:020000040800F2
:100000001008002005010008932900086D2400084D
:1000100091290008E30D00087D2E00080000000073
:10002000000000000000000000000000ED290008B2
:10003000E50D000800000000B5290008EF290008C0
:100040001F0100081F0100081F0100081F01000810
:100050001F0100081F010008E90D0008F90D000844
:100060001F0100081F0100081F0100081F010008F0
:100070001F0100081F0100081F0100081F010008E0
:100080001F0100081F0100081F0100081F010008D0
:100090001F0100081F0100081F0100081F010008C0
:1000A0001F0100081F0100081F0100081F010008B0
:1000B000892A00081F0100081F0100081F0100080D
:1000C0001F0100081F0100081F0100081F01000890
:1000D0001F010008652E0008712E00081F0100088E
:1000E0001F0100081F0100081F010008DFF810D0E1
:1000F00000F0C4FD00480047E1400008AFF3008075
:10010000100800200648804706480047FEE7FEE743
:10011000FEE7FEE7FEE7FEE7FEE7FEE7FEE7FEE7B7
:10012000412A0008ED000008202A04DB203A21FAC9
:1001300002F00021704721FA02F3D040C2F1200200
:100140009140084319467047A0F14101192900D890
:100150002030704740EA01039B0703D009E008C93B
:10016000121F08C0042AFAD203E011F8013B00F87C
:10017000013B521EF9D27047D2B201E000F8012BC8
:10018000491EFBD270470022F6E710B513460A4617
:1001900004461946FFF7F0FF204610BD421E12F834
:1001A000013F002BFBD111F8013B02F8013B002B72
:1001B000F9D17047421C10F8011B0029FBD1801AAD
:1001C000704710B5002200E0521C835C8C5CA34297
:1001D00001D1002BF8D1D8B2E1B2401A10BD30B530
:1001E00005460020034600E05B1C934205D2EC5C10
:1001F000C85C201A01D1002CF6D130BD2DE9FF4F8B
:10020000087883B09946FF2805D0491C2D2804D0D2
:100210000024002008E000200BE00124F9E700EBB7
:10022000800003EB4000491C0B78FF2BF7D104B191
:10023000404200230293147819461D462D2C01D00C
:100240002B2C04D1521C2D2C13D000240294AA462E
:100250001478FF2C0FD00A25A3FB057801FB05813C
:100260004FF0000C03FB0C11521CE3194AEB010187
:10027000EEE70124EAE7814453EA010002D019F5D0
:10028000C87F06DA03980021C0E9001107B0BDE875
:10029000F08F0025AE4E2F46DFF8B882184600F0EA
:1002A000ADFCCDE90001B9F1000002DAC9F10004AA
:1002B00000E004460023A74A1AEB030B42EB045A62
:1002C00012E0E00707D02A4633463846414600F0A0
:1002D000B4FB074688462A4633461046194600F0C6
:1002E000ACFB05460E466410002CEAD1DDE90001A6
:1002F000B9F1000F5A46534606DA00F010FC3A46B0
:10030000434600F00CFC05E000F097FB3A464346FC
:1003100000F093FB029A0AB181F00041039AC2E90E
:100320000001B3E72DE9FF4F1F468DB0D7E9014625
:100330004FF0FF382E2045464FF000090B90B96969
:100340006D1C0E988847396A824688470028F6D186
:10035000BAF1FF3F0AD024F4D064002E11DDBAF1C7
:100360002B0F08D0BAF12D0F0BD102E0404611B08F
:100370008DE744F48064B9696D1C0E988847824605
:10038000761E6946600501D52D2000E02B208DF8F2
:10039000000001F1010B0DF1200809E0B9696D1CA5
:1003A0000E98884782460F9844F40074761E0560C4
:1003B000002E02DDBAF1300FF0D00B998A453ED104
:1003C00044F0800406E00F99681CA9F1010944F487
:1003D00000740860B9696D1C761E0E9888478246C5
:1003E0003028F0D02BE00B998A4505D1200603D4A4
:1003F00044F08004761E18E0504602F081FE08B3F7
:100400000DF11301761E44F400748B4508D2AAF155
:1004100030000BF8010B200607D5A9F1010003E01D
:10042000200602D409F101008146A00502D50F99EA
:10043000681C0860B9696D1C0E9888478246002EBA
:10044000D1DC53E0002E51DDBAF1650F02D0BAF1D4
:10045000450F4BD1A00549D5B9696D1C24F44074F2
:10046000761E0E9888478246002E0CDD2B2804D07D
:10047000BAF12D0F07D144F48074B9696D1C0E9840
:1004800088478246761EE00501D52D2100E02B210C
:1004900008F8011BCDF82C8021E00DF12901761E12
:1004A00044F4007488450CD2AAF1300010F0FF002B
:1004B00088F8000002D10B99884509D908F1010894
:1004C00006E0E00501D5244801E042F20F708146C4
:1004D000B9696D1C0E98884782460F980560002EFA
:1004E00004DD504602F00CFE0028D6D1F9690E98C2
:1004F0008847FF208BF8000088F800000020069055
:1005000007904B466A4608A906A8FFF777FEA005A4
:1005100002D46FF001002AE714F0240F0AD0E0079C
:1005200014D1DDE906123868031D3B600068C0E99C
:1005300000120BE0DDE9060100F084FB0146E00754
:1005400004D13868021D3A600068016028460EE751
:10055000000014400000F03FF1D8FFFF70B50646E0
:1005600002F0A2FC046805460A220021304600F091
:10057000CFF92C6070BD2DE9FE4F804681EA030063
:10058000C00F0C46009021F0004123F00045B8EB6D
:100590000200A94105D24046214690461C460B4622
:1005A000024623F00040104347D0270DC7F30A004E
:1005B000C3F30A510290401A019040286BDAC3F34A
:1005C000130040F4801B0098924620B10023D2EB28
:1005D000030A63EB0B0B01985946C0F140025046E9
:1005E00000F007F906460D4650465946019A00F0BC
:1005F0000FF910EB08006141002487EA115284EAE8
:10060000E7731A4340D0009A62B3019A012A4FEA75
:10061000075215DC001B61EB02014FF0004202EAB9
:100620000752CDE90042001C41F5801132462B46AD
:1006300000F0B5F903B0BDE8F08F40462146F9E778
:10064000001B61EB0201001C41F5801300185B41A7
:100650002018A2F5001747EB030140EAD570B61940
:100660006D4111E06D084FEA360645EAC0754FEA64
:100670000752001B61EB0201001C41F58011490883
:100680004FEA30000019514132462B4603B0BDE815
:10069000F04F00F075B90098012240000023D0EB24
:1006A000020263EBE073009821464FEAE074B8EB76
:1006B000000061EB0401E9E783F000435BE781F0B0
:1006C000004158E770B5C1F30A5201F0004500241B
:1006D000C1F3130140F2FF3341F480119A4201DA71
:1006E000002070BD40F233439A42A2F2334203DC51
:1006F0005242FFF719FD00E090402C43F1D04042F8
:1007000070BD000030B5041E71F1000404DB4FF031
:100710000044404264EB0101141E73F1000405DB48
:100720001C464FF00043524263EB04038B4208BF68
:10073000824230BD30B5041E71F1000404DB4FF07D
:100740000044404264EB0101141E73F1000405DB18
:100750001C464FF00043524263EB0403994208BF2A
:10076000904230BD30B50B460146002020220124C6
:1007700009E021FA02F59D4205D303FA02F5491B6F
:1007800004FA02F52844151EA2F10102F1DC30BD85
:100790002DE9F05F0546002092469B4688460646B6
:1007A000814640241BE02846414647462246FFF743
:1007B000BBFC53465A46C01A914110D31146184605
:1007C000224600F016F82D1A67EB01084F46224624
:1007D0000120002100F00DF817EB00094E41201E0A
:1007E000A4F10104DFDC484631462A464346BDE811
:1007F000F09F202A04DB203A00FA02F10020704723
:100800009140C2F1200320FA03F31943904070474E
:10081000202A06DBCB17203A41FA02F043EAE073C4
:1008200006E041FA02F3D040C2F1200291400843B1
:1008300019467047426842B1016811F8013B23B183
:10084000521EC0E90012184670470121C160881E7F
:10085000704742685AB1C368016843B983688B42E4
:1008600005D0491E521CC0E90012002070474FF00D
:10087000FF3070470FB4002300B589B00CA9009178
:100880000B996FF00042CB601E4B06931E4B0793F3
:100890000423CDE901321D4A089202466B4600202E
:1008A000FFF740FD09B05DF814FB70B586B0064651
:1008B0004FF0FF300091CDE90101002015460C46B4
:1008C00004903246694604A8FFF7D4FF0246049814
:1008D000211825B108B1084600E020462860049898
:1008E00000280DD0002A02DD0098884208D0081B9D
:1008F0000094CDE901043246694604A8FFF7BAFF27
:1009000006B070BD3508000853080008A90C00089F
:100910002DE9F04791460F4680460446002614F81C
:10092000015B2DB100F0BCF90068405DC007F6D155
:100930002B2D02D02D2D18D0641E4A463946204654
:1009400000F0BBF927B13968A14201D1C7F8008096
:1009500071054FF002040BD54042002803DD02F080
:10096000A3FA0460A007BDE8F08746F48066E4E7D8
:100970000028F8DA02F098FA04606FF00040F2E71D
:1009800010B5141E73F1000408DA401C41F1000197
:1009900092185B411A4301D120F0010010BD2DE9EE
:1009A000F04D92469B4611B1B1FA81F202E0B0FAE5
:1009B00080F220329046FFF71CFF04460F4640EAC3
:1009C0000A0041EA0B0153465A46084313D0114628
:1009D00053EA010019D0C8F140025046FFF7A4FBCA
:1009E00005460E46504659464246FFF702FF084369
:1009F00005D0012004E020463946BDE8F08D0020F6
:100A0000054346EAE0762C4337430A986305E40A37
:100A1000A0EB08000022FD0A44EA47540A3002D540
:100A200000200146E9E7010510196941DDE90845A3
:100A300000196941BDE8F04DA2E72DE9FE4F81EABA
:100A4000030404F0004421F0004100944FF0000B37
:100A500023F0004350EA01045ED052EA03045BD065
:100A6000C3F30A54C1F30A552C44A4F2F33401949D
:100A7000A0FB0254C1F3130141F48011C3F313032B
:100A800043F4801301FB024400FB034E840A970ADF
:100A900044EA815447EA8357A4FB076802958D0A0C
:100AA00005FB07854FEA932C04FB0C542705029D98
:100AB0004FEA065847EA1637B5EB08056EEB070C08
:100AC000870E920E47EA811742EA8312A7FB0201C2
:100AD000B6EB0B0164EB00042B0D43EA0C335E18FC
:100AE00044EB1C50DA465146E7FB0201C5F3130400
:100AF0004FEA0B3343EA14534FEA0432019C43EAB2
:100B00000603A4F10C040294009CCDE900B4FFF7A5
:100B100046FF03B0BDE8F08F00200146F9E72DE95C
:100B2000F04D81EA030404F0004B21F00045144627
:100B30004FF0000A23F0004150EA050220D054EAA9
:100B400001021DD0C5F30A570246C5F31303C1F3D2
:100B50001300C1F30A5640F4801543F48013A7EB49
:100B60000608101BD64608F2FD3873EB050002D3C9
:100B700008F1010801E092185B41B8F1000F03DAB7
:100B800000200146BDE8F08D00204FF4801106469C
:100B900084460EE0171B73EB050705D3121B63EBAE
:100BA000050306434CEA010C49084FEA300092184D
:100BB0005B4150EA0107EDD152EA030012D082EA0C
:100BC000040083EA0501084305D0101BAB4106D29F
:100BD0000122002306E000224FF0004302E06FF004
:100BE000010253101AEB06004CEB085110EB0A00FF
:100BF00041EB0B01BDE8F04DFFF7C2BE0EB540F270
:100C0000334202920022CDE900221346FFF7C7FECD
:100C100003B000BDC1F30A52C1F3130140F2FF3328
:100C200041F480119A4202DA00200146704740F2F6
:100C300033439A42A2F2334202DC5242FFF774BAC3
:100C4000FFF7D7BD01F0004330B421F0004150EA76
:100C5000010206D00A0DA2F56072C1F31301002A49
:100C600002DC30BC00207047440F44EAC104C100DC
:100C7000E01830BC00EBC25000F06EB8064C074DD7
:100C800006E0E06840F0010394E80700984710345C
:100C9000AC42F6D3FFF72EFA145F0008345F000869
:100CA00000487047105F000810B50446FFF7F8FFD2
:100CB0000068005D00F0010010BD2DE9F05F824684
:100CC0000078002715468B460AF10104B946302802
:100CD00001D09DB113E014F8010B0127782803D04F
:100CE000582801D045B10AE00DB1102D07D10027D9
:100CF000102514F8010B02E0082500E00A25002663
:100D0000B0460EE005FB080005FB06F1012701EBEC
:100D100010461FFA80F8B6F5803F00D3B94614F8A4
:100D2000010B294600F04FF80028EBDABBF1000F69
:100D300005D00FB1641E00E05446CBF80040B9F175
:100D4000000F06D002F0B0F802210160C81EBDE815
:100D5000F09F48EA0640FAE70029A8BF7047401C08
:100D6000490008BF20F00100704710B4B0FA80FCC1
:100D700000FA0CF050EA010404BF10BC704749B1FE
:100D8000CCF1200421FA04F411FA0CF118BF01216E
:100D900021430843A3EB0C01CB1D4FEA00614FEA4E
:100DA000102042BF002010BC704700EBC35010441D
:100DB0000029A4BF10BC7047401C490008BF20F0A8
:100DC000010010BC70473A2800D2303820F02002D1
:100DD000412A01D3A2F13700884201D34FF0FF30FE
:100DE0007047FEE77047000002490020486101207B
:100DF00000F0CCB920000020024901204861022007
:100E000000F0C4B92000002070470000064900200F
:100E1000C8610648016941F004010161016941F0BE
:100E20004001016170470000F001002000200240F5
:100E3000064A0021D16106490A6942F002020A61AC
:100E40004861086940F0400008617047F0010020E7
:100E500000200240044B0022DA61044A136943F087
:100E60000103136101807047F0010020002002405F
:100E700014480022C168CB06134904D5CA6942F060
:100E80000202CA611022C3685B0705D5CB6943F033
:100E90000103CB6142F00402C369DB0707D0CB69D1
:100EA00043F00403CB61C16921F00101C161A2F5E6
:100EB0008071013901D0C2607047C16921F0010120
:100EC000C161704700200240F001002070B5054666
:100ED00000F054FA0646114C09E0681C07D025B111
:100EE00000F04CFA801BA84201D9032070BDE068D5
:100EF000C007F2D1E068800601D52020E060E068FC
:100F0000C00605D4E069C00702D1E068400703D5F8
:100F1000FFF7AEFF012070BD002070BD0020024031
:100F200010B586B0044600F01BF90120CDE902405F
:100F300001900020009004A9684600F073F800F0CA
:100F4000C5F806B010BD0088704770B50C46054660
:100F500000F006F92246E3172946012000F0C0F808
:100F6000BDE8704000F0B2B810B590F82110002430
:100F7000022903D00421816301243DE001680A684D
:100F800022F00E020A6001680A6822F001020A607B
:100F90001A4A0168914201D1012121E0174A143215
:100FA000914201D110211BE0144A2832914201D113
:100FB000891515E0114A3C32914201D189140FE0A4
:100FC0000E4A5032914202D14FF4803108E00B4A70
:100FD0006432914202D14FF4801101E04FF08071F0
:100FE000064A083A5160012180F82110002180F85A
:100FF0002010416B01B18847204610BD0800024017
:1010000070B5044600F0BAF90546601C02D00448E9
:101010000078044400F0B2F9401BA042FAD370BD3E
:10102000580000202DE9F047054626480F460126C6
:10103000017E01290FD00121814601762868DFF861
:1010400088804CF25034022808D0A2462046FFF790
:101050003DFFA8B131E00220BDE8F0872046FFF750
:1010600035FF08BB0120FFF7D1FE2046FFF72EFF1A
:10107000D8F81010064621F00401C8F810101CE042
:101080004FF0FF303860AC6811E02046FFF7D0FE2B
:101090005046FFF71BFFD8F81010060021F00201A0
:1010A000C8F8101001D03C6007E004F58064D5E971
:1010B000020100EB8120A042E7D8002189F8181036
:1010C0003046C9E7F00100200020024003480169D2
:1010D00041F08001016100207047000000200240C3
:1010E0002DE9F05F07461C4888460024017E15461E
:1010F0001E46012909D00121814601764CF2503A61
:101100005046FFF7E3FE18B122E00220BDE8F09F51
:10111000012F02D0022F00D00427D346DFF83CA0D5
:10112000220128463146FEF7FFFF81B208EB44005A
:10113000FFF790FE5846FFF7C9FEDAF8102022F0BC
:101140000102CAF8102018B9641CE4B2BC42E7D30B
:10115000002289F81820D9E7F00100200020024081
:10116000064900200A69120607D5054A4A60054A61
:101170004A600969090600D5012070470020024035
:1011800023016745AB89EFCD70470000044910B5D6
:101190000A68024202D00860FFF7F6FF10BD0000A7
:1011A000140401402DE9F84FDFF890A100220AF164
:1011B000040B144601274FF00F090BF1040E00BF7A
:1011C0000B6807FA04F52B40AB4274D1DFF870C10D
:1011D0004E68A6EB0C0866452BD00DDC032E34D0F0
:1011E00005DC36B3012E19D0022E2FD11BE0112EB3
:1011F00016D0122E2AD119E0B8F5881F19D006DCB6
:10120000B8F5803F15D0B8F5801F1FD111E0B8F5B3
:10121000001F0ED0B8F5041F18D10AE0CA6815E007
:10122000CA68121D12E0CA6808320FE0CA680C32A0
:101230000CE08A682AB1012A4FF0080203D0456108
:1012400004E0042202E0056100E00022FF2B01D847
:10125000064601E000F104064FEA840501D9A5F134
:101260002005D6F800C009FA05F82CEA080C02FAA5
:1012700005F54CEA050CC6F800C04D68ED0057D5E1
:10128000304DAE6946F00106AE61AD6924F003064B
:1012900005F0010500952C4D06EB050CDCF8085017
:1012A000A6074FEA167809FA08F6B543274EB0426A
:1012B00002D1002610E03BE0254EB04201D10126CC
:1012C0000AE0244EB04201D1022605E0224EB0428F
:1012D00001D1032600E0042606FA08F62E43CCF8D6
:1012E00008604D68DAF80060ED03554601D51E43ED
:1012F00000E09E432E604D68DBF80060AD035D4664
:1013000001D51E4300E09E432E604D68DEF800606C
:10131000ED02754601D51E4300E09E432E604D68E8
:10132000AD020E4D2E6801D51E4300E09E432E6097
:10133000641C102CFFF444AFBDE8F88F000401409A
:1013400000001110001002400000014000080140A0
:10135000000C014000100140001401400C04014049
:101360008068084000D001207047C2684A40C260CF
:1013700070470AB1016170470904FBE701488068C2
:10138000704700005800002070B504001BD094F88E
:101390003D00002520B984F83C50204600F030F98B
:1013A000242084F83D002068016821F001010160DB
:1013B00000F0A0FA404A6168914201D83F4900E03C
:1013C0003F49884201D2012070BD3E492368B0FBED
:1013D000F1F159606368934206D94FF4967359430B
:1013E0004FF47A73B1FBF3F12368491C1962616809
:1013F000914210D84900401EB0FBF1F2521CC2F3DA
:101400000B02042A01D2042022E0B0FBF1F0401CC0
:10141000C0F30B001CE0A368CBB301EBC10202EBED
:101420000116421EB2FBF6F2521C42F48042120533
:1014300036D06BB301EBC10202EB0111401EB0FBD1
:10144000F1F0401CC0F30B0040F4804040F4004039
:101450002168C861D4E90701084321680860D4E91C
:101460000310084321688860D4E905010843216816
:10147000C8602068016841F00101016025642020F6
:1014800084F83D00256384F83E50002070BD00E0E4
:1014900008E001EB4106421EB2FBF6F2521CC6E721
:1014A0000120D5E701EB4101401EB0FBF1F0401CEB
:1014B000C0F30B00CAE70000A086010080841E0074
:1014C00000093D0040420F002DE9F84F1F469046AD
:1014D0008A460446DDF82890FFF750FF064694F848
:1014E0003D0020287ED11923012243492046009641
:1014F00001F043F800287DD194F83C00012879D010
:10150000012084F83C0020680168C90703D1016804
:1015100041F0010101602068016821F4006101606F
:10152000212084F83D00102084F83E000025256429
:10153000C4F8248067853148E062608D2085334699
:101540004A465146204600F0A7FF28B1206C84F897
:101550003C5004284CD00DE020684169806900901F
:1015600030E032464946204601F07CF828B1206C34
:10157000042838D00320BDE8F88F606A411C6162FE
:10158000216800780861608D401E6085208D401EB6
:1015900080B2208521684A69D24352070BD450B1EA
:1015A000606A421C626200780861608D401E60853E
:1015B000208D401E208532464946204600F0B6FF69
:1015C0000028D4D1208D0028CBD154F83D0B0168E0
:1015D00041F400710160202004F81E09E577657769
:1015E0000020C8E706E02068016841F4007101604E
:1015F0000120C0E70220BEE7020010000000FFFF4C
:1016000010B586B00021009101910291039100680C
:101610000F4988421AD10F4CA06940F00800A06120
:10162000A069694600F008000490C02000901220D4
:101630000190032003900848FFF7B4FDE06940F4EF
:101640000010E061E06900F40010049006B010BDE5
:101650000054004000100240000C01400248816824
:10166000027811448160704758000020074810B587
:10167000016841F010010160032000F073F80020C0
:1016800000F006F800F024F8002010BD0020024011
:1016900070B50D4D04464FF47A712878B1FBF0F027
:1016A0000A490968B1FBF0F000F0FCFA48B9102CC7
:1016B00007D200222146501E00F034F800206C6052
:1016C00070BD012070BD00005800002064000020A3
:1016D0000C4808B5816941F001018161816901F01F
:1016E00001010091C16941F08051C161C06900F000
:1016F000805000900448416821F0E06141F00071A1
:10170000416008BD001002400000014000F01F02CF
:10171000012191404009800000F1E020C0F8001153
:1017200070470000F0B40E4B1B680C46C3F3022355
:10173000C3F10705042D00D90425191D072901D27D
:10174000002300E0DB1E012606FA05F1491E2140B8
:1017500099409E40761E16403143F0BC01F01AB904
:101760000CED00E0064900F0070208684FF6FF03A1
:10177000184040EA0220034A104308607047000006
:101780000CED00E00000FA052DE9F047DFF8548188
:1017900005460E46D8F8000000F00700B0420CD213
:1017A000D8F8001021F007013143C8F80010D8F82C
:1017B000000000F00700B0426FD128684A4C810752
:1017C00012D5400703D5606840F4E0606060287877
:1017D000000703D5606840F4605060606068A968E5
:1017E00020F0F000084360602878C00744D06868A3
:1017F000012816D02168022816D0890700294CDA62
:10180000616821F0030101436160FFF7B7FD69687A
:10181000074641F2883001290ED00229814618D0AE
:1018200026E021688903E9E78901E7E7FFF7A6FDDC
:10183000C11B494501D918E081466068C0F38100A9
:101840000128F3D118E000BFFFF798FDC11B4945FF
:101850000BD86068C0F381000228F5D10CE000BF0E
:10186000FFF78CFDC11B494502D90320BDE8F08775
:10187000606810F00C0FF3D1D8F80010404601F06A
:101880000701B1420BD9016821F007013143016022
:10189000006800F00700B04201D00120E6E7287898
:1018A000400705D56068E96820F4E060084360609F
:1018B0002878000706D56068296920F4605040EA5E
:1018C000C100606000F036F86168084AC1F3031196
:1018D000515CC840064908600020FFF7D9FE00208F
:1018E000C4E700000020024000100240745E0008BF
:1018F000640000200448054900684968044AC1F3AF
:101900000221515CC8407047640000200010024072
:10191000845E00080448054900684968044AC1F328
:10192000C221515CC8407047640000200010024092
:10193000845E000812A185B00FC98DE80F0014A0C5
:10194000144A006804905168134801F00C03042BFA
:1019500010D0082B0ED1C1F38343C9031DF8030037
:101960000AD5516804AAC1F34041515C0A4A504368
:10197000B0FBF1F005B0704708494843FAE70000B2
:1019800002030405060708090A0B0C0D0E0F1010C0
:10199000010200000010024000127A0000093D0020
:1019A0002DE9F84F04460078B94DC00748D0686863
:1019B000C0F38100012807D06868C0F381000228C5
:1019C00009D16868C00306D52868800338D56068E7
:1019D00000286FD034E06068B0F5803F0BD010B1C4
:1019E000B0F5A02F11D0286820F480302860286836
:1019F00020F4802002E0286840F48030286060688D
:101A000088B1FFF7BBFC064609E0286840F4802057
:101A10002860F0E7FFF7B2FC801B642875D82868BF
:101A20008003F7D50CE0FFF7A9FC064605E000BFF0
:101A3000FFF7A4FC801B6428F0D828688003F7D443
:101A40002078944E80074FF001094FF000083BD5F5
:101A5000686810F00C0F07D06868C0F38100022896
:101A600009D16868C00306D42868800714D52069A6
:101A700001281FD110E02069B0B1C6F80090FFF72F
:101A80007DFC074605E000BFFFF778FCC01B02287D
:101A9000C4D828688007F7D52868616920F0F80065
:101AA00040EAC10028600FE0C6F80080FFF766FC3E
:101AB000074606E0E9E000BFFFF760FCC01B022814
:101AC00023D828688007F7D4207800072CD57248DF
:101AD000A169D9B1C0F80090FFF750FC074604E0B7
:101AE000FFF74CFCC01B02280FD8686A8007F7D5A7
:101AF0006A484FF4FA510068B0FBF1F0009000BF63
:101B00000098411E0091FAD20EE080E0C0F80080FB
:101B1000FFF734FC074604E0FFF730FCC01B022847
:101B200075D8686A8007F7D42078400760D5E869DF
:101B30000027C00008D4E86940F08050E861E869F7
:101B4000012700F08050009055480168C90513D462
:101B50000168834641F480710160FFF70FFC824603
:101B600006E000BFFFF70AFCA0EB0A0064284ED88D
:101B7000DBF80000C005F5D5E06801280AD008B1FF
:101B8000052813D0286A20F001002862286A20F076
:101B9000040002E0286A40F001002862E06841F297
:101BA000883B98B1FFF7EAFB82460BE0286A40F0D9
:101BB00004002862EEE700BFFFF7E0FBA0EB0A019C
:101BC00059455AD8286A8007F6D50CE0FFF7D6FBAE
:101BD000824605E0FFF7D2FBA0EB0A0159454CD83D
:101BE000286A8007F6D41FB1E86920F08050E861C8
:101BF000E06988B36968C1F38101022945D00228F0
:101C0000C6F8608004D0FFF7B9FB044638E034E042
:101C1000FFF7B4FB074604E0FFF7B0FBC01B022848
:101C20002BD828688001F7D4206AB0F5803F05D111
:101C30006868A16820F4003008436860D4E90801AE
:101C40000843696821F4741108436860C6F860901D
:101C5000FFF794FB044606E015E000BFFFF78EFB9C
:101C6000001B022809D828688001F7D50BE000BFC7
:101C7000FFF784FB001B022802D90320BDE8F88F80
:101C800028688001F4D40020F8E70120F6E700007E
:101C900000100240000042428004424264000020E2
:101CA0000070004010B5401EB0F1807F01D30120CC
:101CB00010BD4FF0E02460610F21601700F06AFE54
:101CC0000020A06107202061002010BD70477047F0
:101CD00030B590F83C20012A20D0012280F83C2029
:101CE000022380F83D3003685C6824F070045C6077
:101CF00003685C680D682C435C6003689C6824F092
:101D000080049C6003689C6849680C439C6080F870
:101D10003D20002180F83C10084630BD022030BD37
:101D200010B5040003D094F83D0010B107E0012085
:101D300010BD002084F83C00204600F00DF8022081
:101D400084F83D00211D206800F0A4FE012084F8E5
:101D50003D00002010BD000008B50068B0F1804FC4
:101D600012D10A48C16941F00101C161C069002274
:101D700000F00100009011461C20FFF7D3FCBDE8E5
:101D800008401C20FFF7C2BC08BD00000010024044
:101D90000168CA6842F00102CA600068016841F047
:101DA000010101600020704770B5044690F83C00C6
:101DB000012817D0012584F83C50022084F83D000A
:101DC0002068826822F0770222F47F4282600868ED
:101DD000502837D00DDC202859D005DC88B31028D6
:101DE00041D151E0022070BD302853D040283AD173
:101DF0003FE060282ED070280BD0B0F5805F03D074
:101E0000B0F5005F2FD110E02068816821F0070154
:101E100015E0CB68D1E90121206800F071FE21684E
:101E2000886840F0770088601DE0CB68D1E9012127
:101E3000206800F065FE2068816841F4804181607F
:101E400011E01EE0CA684968206800F06BFE50216E
:101E5000206806E0CA684968206800F074FE6021C6
:101E6000206800F057FE84F83D50002084F83C00C4
:101E700070BDCA684968206800F054FE402120689F
:101E8000EFE700212068ECE710212068E9E7202136
:101E90002068E6E730212068E3E7704770B5044624
:101EA000006801694FF00005C943890715D4C1686E
:101EB000C943890711D4E91E0161012020772068F8
:101EC00080698007204602D0FFF7E7FF04E000F0BA
:101ED00098F8204600F096F8257720680169C943F4
:101EE000490717D4C168C943490713D46FF00401E7
:101EF0000161022020772068806910F4407F20462D
:101F000002D0FFF7CAFF04E000F07BF8204600F0A3
:101F100079F8257720680169C943090716D4C16893
:101F2000C943090712D46FF008010161042020772A
:101F30002068C0698007204602D0FFF7AEFF04E0AA
:101F400000F05FF8204600F05DF825772068016911
:101F5000C943C90617D4C168C943C90613D46FF071
:101F600010010161082020772068C06910F4407FCB
:101F7000204602D0FFF791FF04E000F042F820462F
:101F800000F040F8257720680169C943C90708D1E6
:101F9000C168C943C90704D1891E0161204600F008
:101FA00033F820680169C943090609D4C168C943E7
:101FB000090605D46FF0800101612046FFF786FE17
:101FC00020680169C943490609D4C168C943490663
:101FD00005D46FF040010161204600F025F820682B
:101FE0000169C94389060BD4C168C943890607D46E
:101FF0006FF0200101612046BDE87040FFF767BE29
:1020000070BD704770470000054900680968884244
:1020100004D14FF400510348FFF7A7B970470000FF
:102020001C010020001001407047704770B5026825
:1020300004461068D168536910F00F0F50D003F0B8
:10204000010501F4907635435DD0C20705D0CA057D
:1020500003D5E26B42F00102E263420705D5DA07DD
:1020600003D0E26B42F00202E263820705D5DA0791
:1020700003D0E26B42F00402E263020705D5DA07FF
:1020800003D0E26B42F00802E263E26B002A33D035
:10209000800604D5880602D5204600F07CFD206825
:1020A0004069E16BC0F38010090700D428B32046D3
:1020B00000F063FD2068416949061AD5416921F0A5
:1020C00040014161606BA0B11B494163606BFEF749
:1020D0004BFF002810D0606B416BBDE87040084793
:1020E000830610D58B060ED52046BDE8704000F063
:1020F00052BD2046FFF799FF70BD2046FFF795FFC0
:102100000020E06370BD030606D50B0604D520460B
:10211000BDE8704000F042BE4006F3D54806F1D558
:10212000D168204621F04001D160202184F8391087
:1021300000F09BF970BD00006B2B000870B5040027
:1021400004D094F83900002510B106E0012070BDDC
:1021500084F83850204600F023F8242084F8390011
:102160002068C16821F40051C160204600F05EFD86
:102170002068016921F4904101612068416921F0E2
:102180002A0141612068C16841F40051C160E563E2
:10219000202084F8390084F83A00002070BD000047
:1021A00070B586B0002400940194029403942E4EDE
:1021B00003682E49022003222D4DB34226D18B699C
:1021C00043F480438B618B6903F4804304938B69F0
:1021D00043F004038B618969039201F004010491C7
:1021E0000102CDE9001069462846FEF7DBFF2815FD
:1021F000CDE90004694628460294FEF7D3FF002289
:1022000011462520FFF78EFA252028E0194EB3420B
:1022100027D1CB6943F40033CB61CB6903F400339E
:1022200004938B6943F004038B618969039201F085
:10223000040104910421CDE9001069462846FEF707
:10224000B1FF0820CDE90004694628460294FEF754
:10225000A9FF002211462620FFF764FA2620FFF787
:1022600055FA06B070BD0000003801400010024071
:1022700000080140004400402DE9F843044690F86E
:102280003A00994616460D4620284FD195B18EB199
:1022900094F83800012849D0012084F8380000273C
:1022A000E763222084F83A00FFF768F8A6858046A5
:1022B000E68531E00120BDE8F883E08D401EE08531
:1022C000A0684346B0F5805F4FF000024FF0200158
:1022D0002046CDF8009004D000F091FD98B1032085
:1022E000E9E700F08CFD0028F9D12069002820687A
:1022F000406803D0C1B225F8011B0DE0C0F308010E
:1023000025F8021B08E0206900282068406801D0F9
:1023100000F07F0005F8010BE08D0028CDD12020D2
:1023200084F83A0084F838700020C4E70220C2E73D
:1023300090F83A30202B22D1F9B1F2B190F8383030
:10234000012B1CD081628285C2850021C1632222BB
:1023500080F83A2080F838100168CA6842F4807228
:10236000CA6001684A6942F001024A610068C168B6
:1023700041F02001C1600020704701207047022019
:102380007047000010B500680649884208D100F087
:1023900013FBBDE81040012203490448FFF7C8BF02
:1023A00010BD000000440040260000205C01002019
:1023B0002DE9F843044690F839001F4616460D46AD
:1023C000202850D1A5B19EB194F8380001284AD0F8
:1023D000012084F838004FF00008C4F83C80212028
:1023E00084F83900FEF7CAFFA6848146E68426E019
:1023F0000120BDE8F883E08C401EE084A0684B46D5
:10240000B0F5805F4FF000024FF08001204600974A
:1024100003D000F0F4FCE8B90DE000F0F0FCC8B91E
:1024200028882168C0F308004860206908B16D1C45
:1024300005E0AD1C03E0216815F8010B4860E08C55
:102440000028D8D14B46002240212046009700F0BA
:10245000D6FC08B10320CCE7202084F8390084F8AA
:1024600038800020C5E70220C3E77047FEE7016817
:102470004A69D24352050CD46FF480624A61042148
:102480000164002140F8301F2022427301730120B3
:102490007047002070470000F8B50446C06A1E4629
:1024A0000D461746042807D0012805D010F5803FB7
:1024B00002D0206B122804D12068016841F4807199
:1024C0000160134600224FF001112046009600F0F3
:1024D00054F8A0B92069B0F5804F12D006202168C9
:1024E00000EAD51040F0F000086133463A460E4944
:1024F000204600F073F838B1206C042811D0032076
:10250000F8BD05F0FE0000E0E8B221680861064968
:1025100033463A46891F204600F060F80028EBD188
:10252000F8BD0120F8BD00000800010070B5164696
:102530000D4604461AE02046FFF799FF08B1012036
:1025400070BD681C12D025B1FEF718FF801BA84291
:102550000CD954F8400F40F0200044F81009002036
:102560002060202161732073032070BD20684069C2
:10257000C0434007DFD4002070BD2DE9F0471E4660
:1025800090460D460446C1F30747DDF8209012E05F
:10259000701C10D02EB1FEF7F1FEA0EB0900B04286
:1025A00009D9002044F8300F20216173A0732073F3
:1025B0000320BDE8F0872068012F0AD0806925EA52
:1025C00000000004000C06D000214145E0D00020AE
:1025D000EFE74069F3E70121F7E700002DE9F04755
:1025E0009A4691460D46044600264FF02008C1F356
:1025F00007472AE020684069C043400512D420689C
:10260000016841F40071016021686FF480604861E5
:1026100004202064266384F83D8084F83C60012017
:10262000BDE8F087B9F1FF3F0FD0B9F1000F05D039
:10263000FEF7A4FEA0EB0A01494506D944F8306F25
:1026400084F80D8026730320EAE72068012F07D065
:10265000D0F8180025EA00000004000CE0D0C9E71B
:102660004069F7E770B516460D4604461AE0204665
:10267000FFF7FDFE08B1012070BD681C12D025B126
:10268000FEF77CFE801BA8420CD954F8400F40F0A6
:10269000200044F81009002020602021617320737D
:1026A000032070BD20684069C0430006DFD40020CD
:1026B00070BD00001CB500F0F00141F00C028DF877
:1026C000042041F0080100018DF8051040F00C01D4
:1026D0008DF8061040F008008DF807004FF47A706E
:1026E0000090042301AA4E210148FEF7EDFE1CBD17
:1026F000C800002010B50120FFF7DCFFBDE8104046
:102700000320FEF77DBC10B52820FEF779FC3020B1
:10271000FFF7D0FF0F20FEF773FC3020FFF7CAFF52
:102720000F20FEF76DFC3020FFF7C4FF0F20FEF7EF
:1027300067FC2020FFF7BEFF0A20FEF761FC28207F
:10274000FFF7B8FF0A20FEF75BFC0820FFF7B2FF97
:102750000A20FEF755FC0120FFF7ACFF0A20FEF728
:102760004FFC0620FFF7A6FF0A20FEF749FC0C20CD
:10277000FFF7A0FFBDE810400A20FEF741BC0000B3
:102780001CB500F0F00141F00D028DF8042041F07D
:10279000090100018DF8051040F00D018DF80610BB
:1027A00040F009008DF807004FF47A700090042380
:1027B00001AA4E210148FEF787FE1CBDC80000207B
:1027C00010B5044602E0641CFFF7DAFF2078002809
:1027D000F9D110BD01F00F0140B1012809D0022844
:1027E0000AD041F0D40000BFFFF764BF41F0800081
:1027F000FAE741F0C000F7E741F09400F4E7000089
:102800002DE9F04186B000253848009501950295E4
:102810000395816941F010018161816901F0100126
:102820000491816941F020018161816901F02001F9
:102830000491816941F004018161816901F0040121
:102840000491816941F0080181618069284F00F09D
:1028500008004FF4C0440490002221463846FEF799
:1028600088FDDFF890800022F0214046FEF781FDD0
:10287000009401AA0124022682E8700069463846C5
:10288000FEF790FC1C486946CDE9004040460294A2
:10289000FEF788FC19480096CDE9010469464046D8
:1028A000FEF780FCF0208DE8710069464046FEF797
:1028B00079FC40F63340CDE90005694602941048A2
:1028C000FEF770FC002211460620FEF72BFF0620C3
:1028D000FEF71CFF002211460720FEF723FF07200A
:1028E000FEF714FF06B0BDE8F081000000100240C2
:1028F00000100140000801400000211000001110EC
:10290000000C014010B586B00024124800940194D8
:102910000294039404944FF08041059401604FF4B5
:10292000E151C0E9011441F28731C0E9031480216B
:102930008161FFF7F5F94FF4805000906946054832
:10294000FFF732FA049404A902480594FFF7C0F98E
:1029500006B010BD1C0100200C4810B50A490160EA
:102960004FF461414160002181600C22C160C0E9E7
:1029700004128161C161FFF7E1FB002803D0BDE8CB
:102980001040FEF741BA10BD003801408800002019
:10299000FEE770470907090E002806DA00F00F006D
:1029A00000F1E02080F8141D704700F1E02080F86D
:1029B000001470477047000070B50A4D0A4CA979A1
:1029C0000A2904D0E8692154401CE86170BD06481A
:1029D00003F002FA00210846E9612154401C322824
:1029E000FBDB70BD20000020BA0100207047FEF71D
:1029F00035BE30B58FB028216846FDF7C4FB1421E1
:102A00000AA8FDF7C0FB01210804CDE9001000244D
:102A1000029402250491CDE907504FF4E01009908B
:102A20006846FEF7BDFF0F20CDE90A056802CDE933
:102A30000C4002210AA80E94FEF7A6FE0FB030BD8E
:102A40000D48016841F00101016041680B4A1140E5
:102A5000416001680A4A11400160016821F4802147
:102A60000160416821F4FE0141604FF41F01816063
:102A70000449C00308607047001002400000FFF8DE
:102A8000FFFFF6FE08ED00E00148FFF707BA00007F
:102A90001C010020F0B50268164B174C174D4FF083
:102AA0008047984205D0B84203D0A04201D0A84246
:102AB00003D122F070064A683243984205D0B842EA
:102AC00003D0A04201D0A84203D122F44074CA68C6
:102AD000224322F080044A69224302608A68C2626B
:102AE0000A688262984201D109690163012141614A
:102AF000F0BD0000002C0140000400400008004030
:102B000010B5846842EA032224F47F440A43224336
:102B1000826010BD826822F070020A4342F0070111
:102B20008160704710B5036A046A24F001040462EE
:102B3000846924F0F00444EA021423F00A020A43F0
:102B40008461026210BD10B5036A23F010030362B2
:102B50008369046A23F4704343EA023224F0A00339
:102B600043EA01118261016210BD10B5406A002183
:102B7000C185C184FFF759FA10BD0168CA6822F403
:102B80009072CA6001684A6922F001024A612021FC
:102B900080F83A10704710B590F83A10222901D009
:102BA000022010BD8168B1F5805F11D00169002954
:102BB00001681FD0496801F07F03816A4A1C826264
:102BC0000B70C18D491E0904090CC18518D02BE07A
:102BD0000269816A002A0268526805D0D2B20A806E
:102BE000816A491C8162ECE7C2F308020A80816AAB
:102BF000891CF7E74A68816A4B1C83620A70E0E728
:102C00000168CA6822F02002CA600168CA6822F41A
:102C10008072CA6001684A6922F001024A6120217B
:102C200080F83A10FFF7AEFB002010BD2DE9F0410F
:102C3000044600680169E26821F4405111430161D2
:102C40002169A0680843616908432168CA6841F2A4
:102C50000C639A430243CA6020684169A26921F467
:102C60004071114341614C492068642532268842F5
:102C70003CD1FEF74FFE00EBC00101EB0010616894
:102C80008900B0FBF1F7FEF745FE00EBC00101EB58
:102C900000106168B0468900B0FBF1F0B0FBF5F0C0
:102CA0006FF01801484307EB800106EB0110B0FB01
:102CB000F5F000F0F006FEF72DFE00EBC00101EB91
:102CC000001061688900B0FBF1F0B0FBF5F006EB95
:102CD0000016FEF71FFE00EBC00101EB001061685B
:102CE0008900B0FBF1F7FEF715FE3BE0FEF702FEB0
:102CF00000EBC00101EB001061688900B0FBF1F747
:102D0000FEF7F8FD00EBC00101EB00106168B04672
:102D10008900B0FBF1F0B0FBF5F06FF0180148430B
:102D200007EB800106EB0110B0FBF5F000F0F006B8
:102D3000FEF7E0FD00EBC00101EB001061688900C7
:102D4000B0FBF1F0B0FBF5F006EB0016FEF7D2FD9C
:102D500000EBC00101EB001061688900B0FBF1F7E6
:102D6000FEF7C8FD00EBC00101EB001061688900AF
:102D7000B0FBF1F0B0FBF5F06FF01801484307EB42
:102D8000800108EB0110B0FBF5F0216800F00F00A6
:102D900030448860BDE8F0810038014090F8391077
:102DA000212901D0022070478168B1F5805F016A56
:102DB0000BD04A1C0262026809785160C18C491E1E
:102DC0000904090CC1840ED017E009880268C1F318
:102DD0000801516001690029016A02D0491C0162A1
:102DE000ECE7891CFBE70168CA6822F08002CA6030
:102DF0000068C16841F04001C160002070472DE9C2
:102E0000F041984617460E460446069D1DE0681C94
:102E10001BD02DB1FEF7B2FAA0EB0800A84214D9DE
:102E20002068C16821F4D071C1602068416921F037
:102E300001014161202084F8390084F83A00002023
:102E400084F838000320BDE8F0812068006836EA85
:102E5000000004D00020B842D9D00020F3E70120C0
:102E6000F9E700000148FFF7E1B800008800002002
:102E70000148FFF7DBB800005C010020FEE700001E
:102E80000FB4084B10B504A902AA039800F040F94A
:102E9000044602A9002000F0BEFC204610BC5DF8EC
:102EA00014FB00001738000800487047700000202D
:102EB00030B528B1144C031F002021680A4605E0F4
:102EC000084630BD9A4203D810465268002AF9D10C
:102ED000002800D041680BD00468A3EB0005A54290
:102EE00004D11B681C440346046002E0436000E018
:102EF00023603AB11C68D51AA54203D115682C4449
:102F00001C6052685A6030BD680000202DE9F0470F
:102F100082460F4C10480D4E0E4F001B4FF000081C
:102F200020F007054FF0010900221146504601F03C
:102F3000AFF8002802D1306810B10020BDE8F0875A
:102F40003C60C4E90058C6F80090EDE76C00002032
:102F500014020020680000201004002002E008C8CD
:102F6000121F08C1002AFAD170477047002001E003
:102F700001C1121F002AFBD1704700002DE9FF5F3D
:102F800082B00021DDE90430020DDDF840B00343DA
:102F900018D044F61050A2F2FF3242431514119893
:102FA00001281FD0A5EB0B00401C5FEA000A4FF080
:102FB00000064E4FDFF83891B046504615D5CAF19D
:102FC000000413E0119801244AA3012801D16FEAFB
:102FD0000B010298119AC0E90031C0E9024206B023
:102FE000BDE8F09FCBF10000DFE704460021404A36
:102FF000491842EB0450CDE9001012E0E00707D079
:1030000032463B4640464946FDF717FD8046894615
:1030100032463B4610461946FDF70FFD06460F4661
:103020006410002CEAD1DDE90401DDE90023BAF1E6
:10303000000F06DAFDF701FD42464B46FDF7FDFCA9
:1030400005E0FDF76CFD42464B46FDF768FD044682
:103050000E460022284BFDF76DFB03D84FF0FF30E2
:10306000014607E00022254B20463146FDF783FA52
:10307000FDF7D0FD102409E0002C0ADB0A22002312
:10308000FDF786FB039B30321A55641E50EA01029D
:10309000F2D1641C039AC4F111031444119A012A59
:1030A00003D0012208430DD10AE0084304D00020D8
:1030B0004FF0110B119072E7A3EB0B056D1E0DE0A5
:1030C0005B4504DD4FF0000205F1010504E003DA81
:1030D0004FF00002A5F10105002AECD002981199E9
:1030E000C0E90231C0E9004579E700000000144062
:1030F0000000F03F300000000000F0430000E03F1F
:1031000030380A2801D201207047002070470000A3
:103110002DE9FF4F95B09A46884606460025EEE118
:10312000252877D100242746F94A0121039400E09D
:10313000044316F8013F203B01FA03F01042F7D197
:1031400030782A2811D06FF02F033078A0F13002A8
:10315000092A16D8039A44F0020402EB820203EB18
:1031600042021044761C0390EFE758F8042B0392B8
:10317000002A03DA504244F40054039044F002045D
:10318000761C30782E2816D116F8010F44F004046E
:103190002A280DD06FF02F023078A0F13003092BD0
:1031A00009D807EB870302EB4303C718761CF3E744
:1031B00058F8047B761C30786C280FD006DC4C283D
:1031C00017D068280DD06A2814D104E0742810D0D4
:1031D0007A280FD10DE044F400140AE044F480147E
:1031E00001E044F440147278824202D104F5801464
:1031F000761C761C307866280BD013DC582877D0E4
:1032000009DC002875D04528F6D04628F4D0472898
:103210001AD193E118E0632835D0642879D0652865
:1032200012D18BE1702873D008DC6728F1D06928AF
:103230006FD06E280DD06F2806D1ACE073282CD04B
:10324000752874D0782853D05246179990476D1C32
:1032500054E1C4F30250022809D003280DD0D8F855
:10326000001004280DD00D6008F1040846E1D8F8DC
:103270000010EA17C1E90052F6E7D8F800100D80F7
:10328000F2E70D70F0E718F8041B8DF8001000202D
:103290008DF80100EB46012003E058F804BB4FF025
:1032A000FF3061074FF0000102D40DE009F1010188
:1032B0008946B9420FDA8145F8DB1BF8091000296D
:1032C000F4D108E009F1010189468142FADB1BF8DB
:1032D00009100029F6D103985346A0EB09072146AF
:1032E0003846179A00F080FA284400EB090507E0F9
:1032F00044E008E10DE01BF8010B52461799904796
:10330000B9F10109F7D2534621463846179AF2E03F
:1033100039E00A21C4F302524FF0000B0091022A57
:1033200006D058F8040BC117032A09D00AE023E09D
:1033300008F1070020F00702F2E80201904605E0DC
:1033400000B2C117042A01D140B2C117002906DA20
:103350000A460021404261EB02012D2202E02205D3
:1033600004D52B228DF80420012203E0E20701D0CE
:103370002022F7E7914657E00A2100E010214FF0A4
:10338000000B00910BE010214FF0000B44F00404FF
:103390000827009103E008204FF0000B0090C4F3D1
:1033A0000252022A05D058F8040B0021032A08D043
:1033B00008E008F1070020F00702F2E80201904659
:1033C00003E080B2042A00D1C0B24FF00009220706
:1033D0002AD53278702A07D0DDF800C08CF0100CA6
:1033E0005CEA0B0C05D00EE040228DF8042001228F
:1033F00008E050EA010306D030238DF804308DF840
:10340000052002229146009B83F0080353EA0B0338
:103410000AD150EA010201D1620705D530228DF8A8
:1034200004204FF001097F1E3278582A04D039A2B7
:103430000C920CAA02920BE03BA2F9E75B46009AC1
:10344000FDF7A6F90C9B9B5C029A521E0292137028
:1034500050EA0102F2D1029804A9081A00F1200BE7
:10346000600702D524F4803400E001275F4502DDC7
:10347000A7EB0B0000E0002000EB0B01009003988D
:103480004944401A0390E00306D453462146179A54
:10349000039800F0A9F90544002706E001A8524668
:1034A000C05D179990476D1C7F1C4F45F6DBE0030C
:1034B0000CD553462146179A039800F095F9054418
:1034C00004E030205246179990476D1C0099481E21
:1034D00000900029F5DC08E0029802995246007835
:1034E000491C0291179990476D1CBBF10001ABF18B
:1034F000010BF1DC5BE100F065F90544761C3078E6
:1035000000287FF40DAE19B02846BDE8F08F00000A
:1035100009280100303132333435363738396162A9
:10352000636465660000000030313233343536376D
:10353000383941424344454600000000600700D44A
:10354000062708F1070020F00700F0E80223804674
:1035500003F0004C5FEA0C0001D097A009E02005C1
:1035600001D596A005E0E00701D095A001E0AFF2FB
:103570004C001390307823F0004365280CD006DC13
:10358000452809D046281DD047287FD13BE0662832
:1035900018D067287AD136E00021112F01DB1120E5
:1035A00000E0781CCDE9000104A90CA8FFF7E6FCB7
:1035B000DDE90D010C9A4FF0000B07F101091092A3
:1035C00000914EE04FF000400097CDE9011004A9B2
:1035D0000CA8FFF7D3FCDDE90D020C9B0F994FF00F
:1035E000000B91461093009211B9791C00EB010970
:1035F000B7EB090003D4C0F1FF3B07F10109A9EBC8
:103600000700019042E0012F00DA01270021112F6D
:1036100001DD112000E03846CDE9000104A90CA825
:10362000FFF7ACFCDDE90D010C9A00914FF0000BA7
:10363000B946109221070FD4009A4A4503DA914601
:1036400001E0A9F10109B9F1010F05DD109AA9F115
:103650000101515C3029F4D0B84202DA10F1040FB4
:1036600003DA0121CDE9011010E0002803DC8344D6
:10367000A9EB000102E0411C494500DD8946A0EBB1
:103680000B00401C01904FF000400290200705D431
:103690000198484502DB4FF0FF30019000208DF883
:1036A0004B0002980DF14B07B0F1004F25D00220DE
:1036B0000C902B200D90029800280CDA40420290CA
:1036C0002D200D9007E00A210298FDF74BF83031CC
:1036D000029007F8011D0C99481E0C900029F2DC9D
:1036E00002980028EFD1791E0D980870307800F00C
:1036F000200040F0450007F8020D11A8C01BC01DB6
:1037000002901398007800B1012000EB09010198A4
:1037100001EBE071029801440398401A401E0390A7
:10372000E00306D453462146179A039800F05CF84C
:1037300005441398007818B15246179990476D1CAC
:10374000E00323D553462146179A039800F04CF81E
:1037500005441BE0BBF1000F07DB0098584504DD72
:103760001098179910F80B0001E017993020524675
:10377000904701980BF1010B401E05F101050190E6
:1037800004D12E205246179990476D1CB9F10001C3
:10379000A9F10109DEDC05E017F8010B5246179983
:1037A00090476D1C0299481E02900029F4DC534694
:1037B0002146179A03989EE62D0000002B0000007A
:1037C000200000002DE9F041044600251E46174662
:1037D000880404D405E039462020B0476D1C641EDF
:1037E000F9D52846BDE8F0812DE9F04104460025D1
:1037F0001E469046C80301D5302700E020278804E4
:1038000004D505E041463846B0476D1C641EF9D525
:103810002846BDE8F0810A68531C0B6010707047A1
:1038200010B530B1036823B1D0E90121914201D232
:1038300004E0002010BD491C816020B1914202D2F9
:103840005C5C202CF7D99142F4D1491E816010BDF7
:1038500070B504460F4E19E0A0892568C0050AD44A
:10386000A06820B1FFF7F4FFA089C00503D4206948
:1038700008B171688847A089800503D4206A08B11F
:10388000716888477168204688472C46002CE3D130
:1038900070BD000008000020002200F099BB10B5A8
:1038A000016828208847040002D02821FCF76BFC1F
:1038B000204610BD0022114600F06EB82DE9F047F9
:1038C00088B00F4604469A4616461C216846FCF707
:1038D0005AFC2F480025002C0560456055D08146D4
:1038E000E7B3CDE900470295D9E90212D9F81000F3
:1038F0000491CDE9052009F10800FFF7D0FF5FEA48
:1039000000082BD000986F4608B1029808B1002734
:103910000BE00198042808D903221EA10098FCF7A7
:103920005EFC10B90298C01C02903846FFF778FF81
:103930000146404600F080FF68B1BAF1000F13D095
:103940006846FFF76DFFDDE90101814203D202996C
:103950000098405C40B14046FFF77AFFDDE9011076
:1039600088420AD205460BE01EB10299009808442D
:103970003060404608B0BDE8F087081E00D0451E04
:103980000EB160193060C9E900450020F2E700007F
:1039900000000020EFBBBF0070B515460E460400C6
:1039A00009D0FCF707FC411C2B4632462046BDE8F7
:1039B0007040FFF783BF002070BD000070B5344C2D
:1039C0004FF48045A8B3012842D002285FD10022DD
:1039D00029462046FDF7CDFCC820FDF711FB01224A
:1039E00029462046FDF7C5FCC820FDF709FB00224B
:1039F00029462046FDF7BDFCC820FDF701FB01224A
:103A000029462046FDF7B5FCC820FDF7F9FA00224B
:103A100029462046FDF7ADFCC820FDF7F1FA01224A
:103A200029462046FDF7A5FCC820BDE87040FDF7FB
:103A3000E7BA002229462046FDF79BFC9620FDF7B9
:103A4000DFFA29462046BDE870400122FDF791BC0F
:103A5000002229462046FDF78CFCFA20FDF7D0FA1B
:103A6000012229462046FDF784FCFA20FDF7C8FA1A
:103A7000002229462046FDF77CFCFA20FDF7C0FA1B
:103A8000012229462046FDF774FCFA20CDE770BDDF
:103A90000010014070B5344C4FF48045A8B30128A4
:103AA00042D002285FD1002229462046FDF761FC62
:103AB000C820FDF7A5FA012229462046FDF759FC4A
:103AC000C820FDF79DFA002229462046FDF751FC4B
:103AD000C820FDF795FA012229462046FDF749FC4A
:103AE000C820FDF78DFA002229462046FDF741FC4B
:103AF000C820FDF785FA012229462046FDF739FC4A
:103B0000C820BDE87040FDF77BBA00222946204658
:103B1000FDF72FFC9620FDF773FA29462046BDE8F5
:103B200070400122FDF725BC002229462046FDF702
:103B300020FCFA20FDF764FA012229462046FDF711
:103B400018FCFA20FDF75CFA002229462046FDF712
:103B500010FCFA20FDF754FA012229462046FDF711
:103B600008FCFA20CDE770BD0010014008B50CA09C
:103B70006B46006800900B4803220121806801F029
:103B8000F9FE094800F0DAF90749012805D008785C
:103B9000072802D04FF0FF3008BD91F9010008BDA1
:103BA0000500000014000020740000201CB510A2C5
:103BB0006B46D2E90012CDE90012010A8DF801101E
:103BC0008DF802000C4807220121806801F0D2FE26
:103BD0000A4800F0B3F90949012805D008780728F8
:103BE00002D04FF0FF301CBD91F901001CBD000058
:103BF0000C000000010000001400002074000020F0
:103C000008B50CA06B46006800900B480322012108
:103C1000806801F0AFFE094800F090F907490128DB
:103C200005D00878072802D04FF0FF3008BD91F981
:103C3000010008BD0D0000001400002074000020E9
:103C40002DE9F047494E8246002280213046FDF79B
:103C500090FBDFF81C91474D4FF40058F41400BF5F
:103C600000F04CF9074621462846FDF779FB58B18C
:103C7000002FF5D1012000F0E9F9394678B1022092
:103C8000FEF7A8FD3CA06AE041464846FDF76DFB03
:103C9000012280213046FDF76CFB012048E0032023
:103CA000FEF798FD39A0FEF78BFD0020FFF7F2FE2E
:103CB00040F25230FDF7A4F9002280213046FDF792
:103CC00058FB00BF00F01AF9074621462846FDF7C9
:103CD00047FB18B3022FF5D100210320FEF77AFD30
:103CE0002FA0FEF76DFD002280213046FDF741FB3D
:103CF0004FEA040700F002F9044639462846FDF76A
:103D00002FFB58B1002CF5D1022000F09FF9A0B193
:103D100000210320FEF75EFD26A020E04146484634
:103D2000FDF723FB012280213046FDF722FB002016
:103D3000FFF7B0FE6320BDE8F087FFF717FF28B15B
:103D400000210320FEF746FD1FA008E0504601F0C9
:103D5000D7FA40B100210320FEF73CFD1FA0FEF77B
:103D60002FFD0020E7E70120E5E700000008014003
:103D700000100140000C014020204C4F49205441CC
:103D80004F204B49205455202000000020202020A7
:103D900044414E4720434150545552454420200051
:103DA0002020202020204C5555204C414E203120F1
:103DB00020202000202020204C4F49204B48492023
:103DC0005448454D2020200020204C4F49204B488E
:103DD000492054414F204D415520000020202020F3
:103DE0005448454D20544841542042414920202008
:103DF000000000007CB515A1164CD1E90001CDE909
:103E000000014FF6FF75258065806B460822012171
:103E1000A06801F0AFFD104800F090F80E490128AD
:103E200005D00878072802D04FF0FF307CBD887895
:103E3000CA7805EA00200243228008794A7905EA17
:103E400000200243628091F901007CBD1B0100004B
:103E500000A3000014000020740000202DE9F041B0
:103E60001D4D4FF0FF38002280212846FDF781FAD2
:103E7000EE141A4F00F042F8044631463846FDF77A
:103E80006FFA78B1002CF5D1012000F0DFF8D0B145
:103E9000FEF730FC00210320FEF79CFC10A0FEF78B
:103EA0008FFC13E04FF400511248FDF75EFA012237
:103EB00080212846FDF75DFA0020FFF7EBFD40F278
:103EC000E730BDE8F081FFF795FF08B14046F8E71D
:103ED00009480088F5E7000000080140000C014097
:103EE000202020204C4F492054414F204B49205442
:103EF00055202000001001401400002008B50CA03F
:103F00006B46006800900B4803220121806801F095
:103F100031FD094800F012F80749012805D008785A
:103F2000072802D04FF0FF3008BD91F9010008BD0D
:103F30000100000014000020740000202DE9F0436F
:103F400085B0224F064600244FF4FA694FF6FF78F9
:103F50004FEA0D0597F83A002028FBD129194B4666
:103F600001221A48FEF788F91CB99DF80000EF28D5
:103F7000F0D1641CE4B2092CECD39DF80000EF28CA
:103F800003D19DF80100012803D0FE2005B0BDE853
:103F9000F0839DF807009DF8061008EA00229DF8BE
:103FA00008001043801E80B200F10A029442D1D969
:103FB0003170002105E06A187318527A491C5A7052
:103FC000C9B28142F7D3C0B2E0E700008800002008
:103FD0002DE9F0418846A8B3B8F1000F33D08468CA
:103FE0000AB90AE024686CB3216A59B34046FCF769
:103FF000E8F80028F6D120E024681CB3266A5FEABE
:104000000805F9D0002EF7D0B54218D002E098B1DB
:104010006D1C761C2878FCF797F807463078FCF77B
:1040200093F887422878F2D0FCF78EF8054630786E
:10403000FCF78AF88542DFD124B1206A10B120460E
:10404000BDE8F081FFE70020FAE7000008B50DA108
:104050006B46096800918DF801000B48042201218C
:10406000806801F087FC0948FFF768FF07490128CD
:1040700005D00878072802D04FF0FF3008BD91F92D
:10408000010008BD020000001400002074000020A0
:104090002DE9F0410B3020F00706104D19E02068A3
:1040A000B04215D3B0420AD9871B201DD4F8048032
:1040B000FCF750F8A019C0E90078286004E06068B7
:1040C0002860201DFCF746F8201D2660BDE8F08121
:1040D000251D2C68002CE2D10020F7E768000020A5
:1040E00088B0FDF7C3FAFEF784FCFEF789FB8F4822
:1040F0008D49002501608E49C0E901154FF48044C7
:10410000C0E9035445618561C5610562FDF73CF96D
:1041100086488849943001604FF4E131C0E90115C7
:104120000C21C560C0E904518561C561FEF706F840
:10413000FEF712FCFEF7E6FB7C485430FDF728FE44
:104140007A4801227C499430FEF7F2F8FEF7DBFA58
:10415000FEF7D0FA00210846FEF73CFB77A0FEF7F9
:104160002FFBFEF7C7FA00210846FEF733FB74A0C9
:10417000FEF726FB012221467748FDF7FAF84FF4B7
:104180007A70FCF73DFF754C012210212046FDF7A7
:10419000F0F8012220212046FDF7EBF80122402112
:1041A0002046FDF7E6F8012280212046FDF7E1F8E0
:1041B000614C2021A41F6846E562FBF7E4FF0C2058
:1041C000FEF778FA00F04AFFA069012810D0022813
:1041D00013D0032817D004281BD0052826D0012887
:1041E00034D0022846D003285FD0042879D093E049
:1041F000A07858B301F0B8F8E4E7A078002839D0E7
:1042000001F03CFCDEE7A07800284ED001F036FD3E
:10421000D8E7A078002864D000210846FEF7DAFA33
:104220004FA0FEF7CDFA01F017FBCBE7A0780028EE
:1042300072D0FEF75FFA00210846FEF7CBFA4DA0D8
:10424000FEF7BEFAA0780028FDD1BBE700210846A2
:10425000FEF7C0FA3AA0FEF7B3FA00210120FEF7FC
:10426000B9FA45A0FEF7ACFA00210220FEF7B2FA37
:1042700047A012E000210846FEF7ACFA30A0FEF796
:104280009FFA00210120FEF7A5FA47A0FEF798FA51
:1042900000210220FEF79EFA49A0FEF791FA0021C4
:1042A0000320FEF797FA4CA03BE000210846FEF7FA
:1042B00091FA23A0FEF784FA00210120FEF78AFA82
:1042C00039A0FEF77DFA00210220FEF783FA30A024
:1042D000FEF776FA00210320FEF77CFA44A020E0E6
:1042E000FFE700210846FEF775FA15A0FEF768FA09
:1042F00000210120FEF76EFA25A0FEF761FA0021E9
:104300000220FEF767FA34A0FEF75AFA00210320D4
:10431000FEF760FA3CA004E000210846FEF75AFAD6
:1043200007A0FEF74DFA4DE700540040C8000020FA
:10433000A08601000044004026000020000000008C
:104340002020444F20414E20544F54204E4748498E
:1043500045502020000000000010014000080140EE
:104360004449454D2044414E48204E48414E205638
:1043700049454E003E0000007C3E20205448454DFB
:104380002056414E2054415920202020000000009A
:104390007C20202020584F412056414E2054415926
:1043A00020202020000000007C2020205448454D83
:1043B0002056414E2054415920202020000000006A
:1043C0007C3E202020584F412056414E20544159D8
:1043D00020202020000000007C20202020584F4179
:1043E00020544F414E20424F20202020000000004A
:1043F0007C3E202020584F4120544F414E20424FB8
:1044000020202020000000007C3E20202020444965
:10441000454D2044414E482020202020000000002F
:104420002DE9F04107460025C8680C462E46B0F538
:104430007A7F5BD2401CE0602168A068095C5B2940
:1044400054D1401CA0602046FFF7EAF94CB1D4E9F2
:104450000110884203D22268125C5D2A33D0884260
:1044600003D3A068401EA06040E0401E04F1100885
:10447000A0604046FFF713FA98B30DB33060466072
:104480000646A068401CA0602046FFF7C9F92146F7
:10449000304600F0D1F930B32046FFF7C1F914B32C
:1044A000D4E90110884203D22168095C2C29E0D0AC
:1044B0006268904217D22168085C5D2813D102E03F
:1044C00005462E46DDE7E068401EE06005B16E60FF
:1044D0002020C7E90250A068401CA0600120BDE870
:1044E000F081FFE715B12846FFF7B2F90020F6E7A3
:1044F000034610B500200246995CA1F13004092C56
:1045000001D830380AE0A1F14104052C01D8373830
:1045100004E0A1F16104052C08D857380844032AA7
:1045200000D20001521C042AE6D310BD002010BDA9
:104530002DE9F04192B04FF0000506460C004FF017
:104540002E03284610953CD02168D1B36A4627E057
:1045500027683944415C34291BD00ADCA1F12B07C0
:10456000092F23D2DFE807F015221517221515159C
:10457000150038290DD006DC35290AD0362908D097
:10458000372913D105E0392903D0452901D0652900
:104590000CD1115400E01354401C3F2806D22CB11A
:1045A000A168D4F804C00F186745D1D315549046BC
:1045B00010A9104600F0CAFE0F461099054688451E
:1045C00003D1002012B0BDE8F081C6E90657114AB8
:1045D000114B28463946FCF7ADF802D86FF0004081
:1045E0000DE000220D4B28463946FCF78BF802D827
:1045F0004FF0004003E028463946FCF763F870614D
:104600000820F060109AA168A2EB08000844A0609E
:104610000120D7E70000C0FFFFFFDF410000E0C13D
:104620002DE9F04107460026C8680C463546B0F52E
:104630007A7F78D2401CE060002C74D0D4E901105D
:10464000884270D22168095C7B296CD1401CA06033
:104650002046FFF7E5F8D4E90110884203D222682A
:10466000125C7D2A4CD08842A0F10100A0605AD291
:1046700004F110084046FFF712F9E8B3F6B12860DC
:1046800045600546A068401CA0602046FFF7C8F8BA
:104690002146284600F049F878B32046FFF7C0F8D5
:1046A00028692862002028613CB3D4E901108842BF
:1046B00036D22168095C3A2932D102E006463546F5
:1046C000E0E7401CA0602046FFF7AAF821462846F4
:1046D00000F0B2F888B12046FFF7A2F8D4E9011043
:1046E000884203D22168095C2C29C3D062689042B9
:1046F00016D22168085C01E011E011E07D280FD19D
:10470000E068401EE06006B175604020C7E90260C5
:10471000A068401CA0600120BDE8F08103E016B154
:104720003046FFF795F80020F6E72DE9F84380467C
:104730008B6808684FF00009C418CDF8009008682D
:104740000E46651CC15C641C22296ED10022716872
:1047500008E0BCF15C0F04D17F1C8F4265D2521C73
:10476000641C641C271A8F4204D294F800C0BCF168
:10477000220FEED1271A8F4257D22178222954D105
:104780001844201A801A3169401C884707004CD011
:10479000009737E029785C2905D000986D1C00F857
:1047A000011B00902EE00220611B012939DB6A7891
:1047B000662A14D008DC222A12D02F2A10D05C2AB4
:1047C0000ED0622A2DD108E06E2A0ED0722A0ED0A9
:1047D000742A0ED0752A24D10DE0082200E00C22A4
:1047E000009901F8012B00910BE00A22F8E70D2255
:1047F000F6E70922F4E76A462146284600F0C2FFA0
:1048000078B10544A542C5D3009981F800901021E4
:10481000C8E903173068201A401CB0600120BDE8C9
:10482000F88317B171693846884715B13068281A7E
:10483000B0600020F3E7000070B50C0005465ED0C4
:10484000206800285BD0A16863680A1D9A4205D8D9
:104850000844042231A1FBF7C2FC78B3A068626867
:10486000411D0126914206D82168052208442DA148
:10487000FBF7B5FC28B3A0686268011D914206D819
:1048800021680422084429A1FBF7A9FCE8B1D4E976
:104890000101814203D22268525C222A1DD081424A
:1048A00021D22268525C2D2A02D0303A092A1AD825
:1048B00021462846BDE87040FFF73ABE0420E86074
:1048C00006E0EE60A068401D04E002206E61E86032
:1048D000A068001DA060012070BD21462846BDE8EB
:1048E0007040FFF722BF814203D22268525C5B2AEC
:1048F00007D0814203D22068405C7B2807D000208B
:1049000070BD21462846BDE87040FFF789BD2146AD
:104910002846BDE87040FFF783BE00006E756C6CE2
:104920000000000066616C736500000074727565BC
:10493000000000002DE9F05F0D20FDF7BBFEFE4CEE
:104940000025FE48E16AFE4EFE4F4FF0010A142991
:104950007ADA002210218346FCF70BFD0121B846CC
:104960003846FCF7FDFC3F1558B139464046FCF788
:10497000F7FC80B302214046FCF7F2FC002864D02B
:10498000A0E04FF031090A20C4F83090FCF738FB62
:1049900000210220FDF71EFFE16A94F830007054F8
:1049A000E748FDF70DFF206B401E2063202801D152
:1049B000C4F8309001214046FCF7D2FC0028F9D021
:1049C000E06A401CC4E90A502069401C2061E0688C
:1049D000FCF716FB76E0FFE74FF041090A20C4F828
:1049E0003090FCF70DFB2846A56229E03946404689
:1049F000FCF7B6FC08BB00210220FDF7EBFEE26AE3
:104A000094F83000B054CE48FDF7DAFE206B401C1D
:104A10002063442802D0332803D004E032202063EE
:104A200001E0C4F8309039464046FCF799FC002874
:104A3000F9D0A562E068FCF7E3FAA06A401CA06226
:104A4000A1688842D2DB37E086E24FF044090A20B1
:104A5000C4F83090FCF7D4FA2846A56229E0022178
:104A60004046FCF77DFC08BB00210220FDF7B2FEAA
:104A7000E16A94F830007054B148FDF7A1FE206B54
:104A8000401C2063472802D0342803D004E03320A0
:104A9000206301E0C4F8309002214046FCF760FC3E
:104AA0000028F9D0A562E068FCF7AAFAA06A401CC9
:104AB000A062A1688842D2DBE06A401CE062206903
:104AC000401C206101221021D9465846FCF751FCB8
:104AD000002220214846FCF74CFC01214046FCF70F
:104AE0003FFC50B139464046FCF73AFCE8B302219E
:104AF0004046FCF735FCC8B3AEE04FF0470B0A2048
:104B0000C4F830B0FCF77CFA2846A56229E0012100
:104B10004046FCF725FC08BB00210220FDF75AFEA9
:104B2000E16A94F8300070548548FDF749FE206B27
:104B3000401C20634A2802D0352803D004E03420EA
:104B4000206301E0C4F830B001214046FCF708FCC6
:104B50000028F9D0A562E068FCF752FAA06A401C70
:104B6000A062A1688842D2DB70E000E037E04FF03D
:104B70004A0B0A20C4F830B0FCF742FA2846A56276
:104B800029E039464046FCF7EBFB08BB0021022038
:104B9000FDF720FEE26A94F83000B0546848FDF753
:104BA0000FFE206B401C20634D2802D0362803D016
:104BB00004E03520206301E0C4F830B039464046B7
:104BC000FCF7CEFB0028F9D0A562E068FCF718FAE4
:104BD000A06A401CA062A1688842D2DB36E04FF098
:104BE0004D0B0A20C4F830B0FCF70AFA2846A5623B
:104BF00029E002214046FCF7B3FB08BB002102205C
:104C0000FDF7E8FDE16A94F8300070544C48FDF778
:104C1000D7FD206B401C2063502802D0372803D0DA
:104C200004E03620206301E0C4F830B002214046A1
:104C3000FCF796FB0028F9D0A562E068FCF7E0F9E4
:104C4000A06A401CA062A1688842D2DBE06A401CD6
:104C5000E0622069401C2061012220214846FCF7C7
:104C600088FB002240214846FCF783FB0121404697
:104C7000FCF776FB50B139464046FCF771FBE8B3D0
:104C800002214046FCF76CFBC8B3B7E04FF0500B75
:104C90000A20C4F830B0FCF7B3F9A56229E001217D
:104CA0004046FCF75DFB08BB00210220FDF792FDAA
:104CB000E16A94F8300070542148FDF781FD206BC3
:104CC000401C2063542802D0382803D004E0372049
:104CD000206301E0C4F830B001214046FCF740FBFE
:104CE0000028F9D0A562E068FCF78AF9A06A401CA8
:104CF000A062A16AA0688142D1DB79E000E040E0D7
:104D00004FF0540B0A20C4F830B0FCF779F928466C
:104D1000A56232E039464046FCF722FB50BB002139
:104D20000220FDF757FDE26A94F83000B0540448C1
:104D3000FDF746FD206B07E0200000200008014041
:104D40009C010020000C0140401C2063572802D029
:104D5000392803D004E03820206301E0C4F830B0E3
:104D600039464046FCF7FCFA0028F9D0A562E06815
:104D7000FCF746F9A06A401CA062A1688842C9DB22
:104D800036E04FF0570B0A20C4F830B0FCF738F982
:104D9000A56229E002214046FCF7E2FA08BB0021A7
:104DA0000220FDF717FDE16A94F830007054A04826
:104DB000FDF706FD206B401C20635B2802D03A28DB
:104DC00003D004E03920206301E0C4F830B00221B0
:104DD0004046FCF7C5FA0028F9D0A562E068FCF768
:104DE0000FF9A06A401CA062A16AA0688142D1DBD1
:104DF000E06A401CE0622069401C206101224021E1
:104E0000CB464846FCF7B5FA002280215846FCF70D
:104E1000B0FA01214046FCF7A3FA60B1B946394621
:104E200047464046FCF79CFA08B302213846FCF797
:104E300097FAE8B38CE0A57084F801A02561444698
:104E400001212046FCF78CFA0028F9D00C20FDF750
:104E500031FCFDF74FFC00210846FDF7BBFC75A0B7
:104E6000FDF7AEFC00210220FDF7B4FC70E04FF02E
:104E700030080A20C4F83080FCF7C2F8C246C846A1
:104E8000A56225E041463846FCF76AFAE8B90021F8
:104E90000220FDF79FFCE16A94F8300070546448EA
:104EA000FDF78EFC206B10382063202803DA00E029
:104EB00019E0C4F830A041463846FCF751FA002802
:104EC000F9D0A562E068FCF79BF8A06A401CA062DC
:104ED000A16AA0688142D5DBE06A401CE0622069DB
:104EE000401C206134E0E06A20B1401EE06220698D
:104EF000401E2061E16A28467554FDF741FCFDF72C
:104F0000F9FB00210120FDF765FC4FA0FDF758FCDF
:104F100000210846FDF75EFC46A0FDF751FC00218C
:104F20000220FDF757FC002503E0705DFDF728FC2B
:104F30006D1CE06A8542F8DB0020FEF73FFD022190
:104F40003846FCF70DFA0028F9D0E068FCF758F86D
:104F500001228021584667E0012240218046FCF76B
:104F600008FA002280214046FCF703FA0121384666
:104F7000FCF7F6F928B102213846FCF7F1F9D8B16F
:104F80004FE0A57084F801A0256101213846FCF7A7
:104F9000E7F90028F9D00C20FDF78CFBFDF7AAFB00
:104FA00000210846FDF716FC22A0FDF709FC0021B0
:104FB0000220FDF70FFC34E0E06A20B1401EE06201
:104FC0002069401E2061E16A28467554FDF7D8FB30
:104FD000FDF790FB00210120FDF7FCFB1AA0FDF777
:104FE000EFFB00210846FDF7F5FB12A0FDF7E8FBFB
:104FF00000210220FDF7EEFB002503E0705DFDF7C8
:10500000BFFB6D1CE06A8542F8DB0020FEF7D6FC92
:1050100002213846FCF7A4F90028F9D0E068FBF734
:10502000EFFF012280214046BDE8F05FFCF7A1B907
:105030009C0100202020205448454D2056414E2000
:1050400054415920202000002020204E484150206B
:1050500056414F2054454E20200000002DE9F047D6
:105060004E4F002210213846FCF783F94C4EFD14B8
:1050700029463046FCF774F94A4CDFF82CA14FF072
:1050800001084FF40059B0B91420FBF7B9FF4946A5
:105090005046FCF76AF9A069401CA061052801D1BF
:1050A000C4F818800020FEF789FC29463046FCF73A
:1050B00057F90028F9D0012210213846FCF759F998
:1050C000002220213846FCF754F929463046FCF7E7
:1050D00047F9B0B91420FBF793FF49465046FCF757
:1050E00044F9A069012801D10520A061401EA061FA
:1050F0000020FEF763FC29463046FCF731F9002812
:10510000F9D0012220213846FCF733F90022402152
:105110003846FCF72EF929463046FCF721F998B9B4
:105120001420FBF76DFF49465046FCF71EF984F842
:105130000280FDF7DFFA0020FEF740FC29463046EA
:10514000FCF70EF90028F9D0012240213846FCF77F
:1051500010F9002280213846FCF70BF92946304629
:10516000FCF7FEF890B91420FBF74AFF4946504679
:10517000FCF7FBF80C20FDF79DFA0020FEF71EFC63
:1051800029463046FCF7ECF80028F9D03846BDE84F
:10519000F04701228021FCF7ECB800000008014034
:1051A000000C014020000020001001402DE9F047D4
:1051B00004008A4616D054F8047CD4F800903E1FB0
:1051C000564500D956462046FDF772FE05468846EC
:1051D000324621465046FEF75BFF40B1C0F80090D2
:1051E000BDE8F087BDE8F0470846FDF78FBE44E90B
:1051F000017955B129686A18211F8A4202D9611BB9
:10520000091F2960C5F80480EAE7024AC2F8008055
:10521000E6E7000068000020F0B597B00C460546B0
:105220001F46164650216846FAF7ADFF002014903D
:10523000159016902A4623A114A8FDF721FE2246B8
:1052400020A115A8FDF71CFE32461EA116A8FDF7E9
:1052500017FE1DA16846FAF7A1FF14A96846FAF7E0
:105260009DFF1CA16846FAF799FF1BA16846FAF753
:1052700095FF15A96846FAF791FF16A16846FAF757
:105280008DFF18A16846FAF789FF16A96846FAF754
:1052900085FF10A16846FAF781FF14A16846FAF766
:1052A0007DFF39466846FAF779FF13A16846FAF799
:1052B00075FF0A23502269461048FDF779F817B0A8
:1052C000F0BD0000256400007B224D6F6465223A2A
:1052D00022000000222C00002241646D696E223AF7
:1052E00022000000224964223A220000224E616D11
:1052F00065223A2200000000227D0A005C010020A5
:1053000008B50FA16B4609680091010A8DF80210DB
:105310008DF803000B4806220121806800F02AFB6B
:105320000948FEF70BFE0849012805D00878072830
:1053300002D04FF0FF3008BD91F9010008BD000018
:1053400006020000140000207400002000B583B0A5
:105350000A460021CDE9001101466846FBF7A5FA8F
:10536000DDE9000103B000BD2DE9F04FCA4C89B062
:1053700000262671E078DFF82493DFF824A3DFF815
:1053800024B340F2E73700282ED0FDF7B3F900210F
:105390000846FDF71FFAC4A0FDF712FA002101200C
:1053A000FDF718FAC6A0FDF70BFA00210220FDF761
:1053B00011FAC8A0FDF704FA0020607020216846A9
:1053C000FAF7E1FED04635466846FFF7B3FA002209
:1053D00080214046FBF7CDFF4FF40061BE48FBF74C
:1053E000BFFF00287ED0D9E0FDF784F900210846F0
:1053F000FDF7F0F9B9A0FDF7E3F900F08BFA012809
:1054000006D1FEF72BFD206228B1B8426BD1A67001
:1054100009B0BDE8F08FFDF76DF900210846FDF7F2
:10542000D9F9B3A0FDF7CCF90020FEF7C7FA0021A7
:105430000120FDF7CFF9A2A0FDF7C2F9002102205B
:10544000FDF7C8F9A3A0FDF7BBF90020607020218B
:105450006846FAF798FE0026D04635466846FFF7BC
:1054600069FA002280214046FBF783FF4FF4006178
:105470009948FBF775FF40B94FF400514846FBF7D8
:1054800074FF012060700646A5700122802140460D
:10549000FBF76FFF60780028E0D00020FEF78EFA5F
:1054A000002E53D100210120FDF794F995A0FDF7BE
:1054B00087F900F02FFA0128F3D1FEF7CFFC411C49
:1054C0007ED15E465846FBF73EFD2062C0B2FEF735
:1054D000B7FB632875D0002874D0012835D194F823
:1054E000202001E051E03DE08C4B2178FFF794FE55
:1054F00001210320FDF76EF989A0FDF761F9206A0B
:105500000A2790FBF7F03030C0B2FDF739F9206A76
:1055100090FBF7F107FB11003030C0B2FDF730F916
:105520007E4A002000211554401C1428FADB01207B
:10553000E162FEF743FA206A401C20623046FBF726
:10554000EFFC3046216AFBF700FDA57042E0002128
:105550000320FDF73FF976A0FDF732F90220FEF7B0
:105560002DFA37E0FDF7C6F800210320FDF732F9E8
:1055700074A0FDF725F90220FEF720FA09B04FF4D8
:105580004870BDE8F04FFBF73BBD4FF40051484673
:10559000FBF7EBFE012060700646A570012280211A
:1055A0004046FBF7E6FE607800283FF40DAF002090
:1055B000FEF704FA76B900210120FDF70BF902E0AD
:1055C0000FE05BE059E04FA0FDF7FAF800F0A2F918
:1055D000012802D0FDF78EF81AE7FEF73FFC411CC8
:1055E00002D0B842B3D1B0E75F465846FBF7ABFCF8
:1055F0002062C0B2FEF724FB63283FD0E8B3012845
:10560000A3D194F82020454B2178FFF705FE012116
:105610000220FDF7DFF850A0FDF7D2F801210320AA
:10562000FDF7D8F83EA0FDF7CBF8206A0A2690FBDC
:10563000F6F03030C0B2FDF7A3F8206A90FBF6F127
:1056400006FB11003030C0B2FDF79AF8334A002053
:1056500000211554401C1428FADB0120E162FEF7FA
:10566000ADF9206A401C20623846FBF759FC3846E9
:10567000216AFBF76AFCE57067E701E0A57064E763
:1056800000210320FDF7A6F838A0FDF799F80220C5
:10569000FEF794F959E700002000002000100140B7
:1056A0000008014000FC0008205448454D205641A8
:1056B0004E205441592041444D494E2020200000A5
:1056C0002020204E4841502056414F2054454E2026
:1056D000200000003E000000000C01402020205867
:1056E0004143204E48414E2041444D494E20200028
:1056F000202020205448454D2056414E20544159E9
:105700002020200020204E4841502056414F205656
:10571000414E205441592020000000009C010020EF
:1057200020205448454D204F4B2049443A2000004A
:1057300020444120544F4E205441492056414E2090
:105740005441590020202020202053414920414429
:105750004D494E20202020002020205448454D2037
:105760004F4B2041444D494E202000002020202056
:10577000204C4F49204B4849205448454D2020207B
:10578000000000002DE9F04705460027481B16469B
:10579000894606285DDBA81CFEF7AAFE0446A0F594
:1057A0005C414FF48060814253D3A4F55841824656
:1057B00051451AD2A81DA9EB00014FF00C0806298B
:1057C00047DB01785C2944D14178752941D1801C9F
:1057D000FEF78EFEA0F55C4151453AD2C4F30901B3
:1057E00061F39F2000F5803002E04FF0060820466C
:1057F000802801D2012110E0B0F5006F02D2022111
:10580000C0270AE0B0F5803F02D20321E02704E080
:10581000B0F5881F1DD20421F0274A1E08E000BF02
:1058200000F0BF03346843F080038009A354521E84
:1058300012F0FF02F4D1012901D9384301E000F050
:105840007F00326810703068084430604046BDE820
:10585000F0870020FBE7000070B500F05BF801283E
:1058600026D1FEF7FBFA1F49421C086221D0A0F5A1
:105870004072E73A1AD049694FF4C8744FF416756C
:1058800059B3012914D1C2B217A30420FFF7C4FCF5
:105890002046FBF7B5FB0120FEF790F84FEA050024
:1058A000FBF7AEFBBDE87040FCF724BF002088701A
:1058B00070BD00210120FCF78DFF0CA0FCF780FFDC
:1058C00000210220FCF786FF0DA0FCF779FF0220E3
:1058D000FEF774F84FF44870E2E7C2B2012102A368
:1058E0000320D3E72000002000000000202020201B
:1058F00056414E2054415920534149202020000058
:10590000202058494E2048415920544855204C41A8
:10591000492020001CB513A1144CD1E90001CDE9A8
:10592000000160688DF80400010E8DF80110010C73
:105930008DF80210010A8DF803106B460722012131
:10594000A06800F017F80A48FEF7F8FA012805D118
:1059500007480178072901D1407808B100201CBD13
:1059600001201CBD130000000000000014000020F6
:10597000740000202DE9FF418EB0EF218DF80C104E
:1059800001218DF81010010E8DF81410010C8DF806
:105990001810010A8DF82000100AD5B24FF4FA68E9
:1059A0001F4614468DF81C108DF824008DF8045005
:1059B00046464346012203A92F48FCF7F9FC33462B
:1059C000012204A92C48FCF7F3FC3346012205A967
:1059D0002948FCF7EDFC3346012206A92648FCF7CE
:1059E000E7FC3346012207A92348FCF7E1FC3346D4
:1059F000012208A92048FCF7DBFC334601220FA94D
:105A00001D48FCF7D5FC3346012209A91A48FCF7CA
:105A1000CFFC3346012201A91748FCF7C9FC05EB6E
:105A200014209DF83C1000254618A41E0DE0785D5A
:105A30008DF82800434601220AA90F48FCF7B8FC5C
:105A4000785D6D1C304486B2EDB2A542EFDB300AC2
:105A50008DF82C008DF830604446434601220BA996
:105A60000548FCF7A5FC234601220CA90248FCF7D7
:105A70009FFC12B0BDE8F0818800002070B5FCF7F3
:105A800039FE00210846FCF7A5FE4EA0FCF798FE63
:105A9000FFF740FF01280AD1FEF7E0F94E4C002540
:105AA00040F2E736206218B1B0427CD1A57070BDDB
:105AB0000020FDF783FFFFF72DFF0128F7D1FCF74A
:105AC00019FE00210846FCF785FE44A0FCF778FE8D
:105AD00000210120FCF77EFE45A0FCF771FE4FF48B
