:020000040800F2
:100000007805002005010008A71A00083F1700081E
:10001000A51A0008910100085D1F000800000000FB
:10002000000000000000000000000000CB1A0008E3
:100030009301000800000000C91A0008CD1A00084A
:100040001F0100081F0100081F0100081F01000810
:100050001F0100081F0100081F0100081F01000800
:100060001F0100081F0100081F0100081F010008F0
:100070001F0100081F0100081F0100081F010008E0
:100080001F0100081F0100081F0100081F010008D0
:100090001F0100081F0100081F0100081F010008C0
:1000A0001F0100081F0100081F0100081F010008B0
:1000B000691B00081F0100081F0100081F0100083C
:1000C0001F0100081F0100081F0100081F01000890
:1000D0001F010008451F0008511F00081F010008EC
:1000E0001F0100081F0100081F010008DFF810D0E1
:1000F00000F03CF8004800473D250008AFF30080C1
:10010000780500200648804706480047FEE7FEE7DE
:10011000FEE7FEE7FEE7FEE7FEE7FEE7FEE7FEE7B7
:10012000211B0008ED000008202A04DB203A21FAF8
:1001300002F00021704721FA02F3D040C2F1200200
:100140009140084319467047D2B201E000F8012BF4
:10015000491EFBD270470022F6E710B513460A4647
:1001600004461946FFF7F0FF204610BD064C074D28
:1001700006E0E06840F0010394E807009847103477
:10018000AC42F6D3FFF7B6FFD42C0008F42C0008DD
:10019000FEE770477047000006490020C861064826
:1001A000016941F004010161016941F0400101610F
:1001B000704700005801002000200240064A00213C
:1001C000D16106490A6942F002020A614861086980
:1001D00040F04000086170475801002000200240B4
:1001E000044B0022DA61044A136943F001031361EE
:1001F000018070475801002000200240144800226E
:10020000C168CB06134904D5CA6942F00202CA612B
:100210001022C3685B0705D5CB6943F00103CB61AE
:1002200042F00402C369DB0707D0CB6943F0040343
:10023000CB61C16921F00101C161A2F58071013971
:1002400001D0C2607047C16921F00101C1617047EE
:10025000002002405801002070B5054600F046FA23
:100260000646114C09E0681C07D025B100F03EFAA3
:10027000801BA84201D9032070BDE068C007F2D1FD
:10028000E068800601D52020E060E068C00605D463
:10029000E069C00702D1E068400703D5FFF7AEFF71
:1002A000012070BD002070BD0020024010B586B056
:1002B000044600F01BF90120CDE902400190002026
:1002C000009004A9684600F073F800F0C5F806B085
:1002D00010BD0088704770B50C46054600F006F961
:1002E0002246E3172946012000F0C0F8BDE870401F
:1002F00000F0B2B810B590F821100024022903D004
:100300000421816301243DE001680A6822F00E02A5
:100310000A6001680A6822F001020A601A4A01684C
:10032000914201D1012121E0174A1432914201D1B9
:1003300010211BE0144A2832914201D1891515E0A1
:10034000114A3C32914201D189140FE00E4A5032D9
:10035000914202D14FF4803108E00B4A643291425D
:1003600002D14FF4801101E04FF08071064A083A43
:100370005160012180F82110002180F82010416B8C
:1003800001B18847204610BD0800024070B5044600
:1003900000F0ACF90546601C02D004480078044423
:1003A00000F0A4F9401BA042FAD370BD1C0000204D
:1003B0002DE9F047054626480F460126017E012912
:1003C0000FD00121814601762868DFF888804CF241
:1003D0005034022808D0A2462046FFF73DFFA8B1BE
:1003E00031E00220BDE8F0872046FFF735FF08BB6B
:1003F0000120FFF7D1FE2046FFF72EFFD8F810109E
:10040000064621F00401C8F810101CE04FF0FF3040
:100410003860AC6811E02046FFF7D0FE5046FFF789
:100420001BFFD8F81010060021F00201C8F81010C8
:1004300001D03C6007E004F58064D5E9020100EBDF
:100440008120A042E7D8002189F818103046C9E77A
:1004500058010020002002400348016941F080015A
:100460000161002070470000002002402DE9F05F8C
:1004700007461C4888460024017E15461E46012971
:1004800009D00121814601764CF2503A5046FFF7DF
:10049000E3FE18B122E00220BDE8F09F012F02D058
:1004A000022F00D00427D346DFF83CA022012846C3
:1004B0003146FFF739FE81B208EB4400FFF790FEAA
:1004C0005846FFF7C9FEDAF8102022F00102CAF8F8
:1004D000102018B9641CE4B2BC42E7D3002289F8AA
:1004E0001820D9E7580100200020024006490020CA
:1004F0000A69120607D5054A4A60054A4A60096931
:10050000090600D5012070470020024023016745FD
:10051000AB89EFCD2DE9F84FDFF890A100220AF169
:10052000040B144601274FF00F090BF1040E00BF16
:100530000B6807FA04F52B40AB4274D1DFF870C1A9
:100540004E68A6EB0C0866452BD00DDC032E34D08C
:1005500005DC36B3012E19D0022E2FD11BE0112E4F
:1005600016D0122E2AD119E0B8F5881F19D006DC52
:10057000B8F5803F15D0B8F5801F1FD111E0B8F550
:10058000001F0ED0B8F5041F18D10AE0CA6815E0A4
:10059000CA68121D12E0CA6808320FE0CA680C323D
:1005A0000CE08A682AB1012A4FF0080203D04561A5
:1005B00004E0042202E0056100E00022FF2B01D8E4
:1005C000064601E000F104064FEA840501D9A5F1D1
:1005D0002005D6F800C009FA05F82CEA080C02FA42
:1005E00005F54CEA050CC6F800C04D68ED0057D57E
:1005F000304DAE6946F00106AE61AD6924F00306E8
:1006000005F0010500952C4D06EB050CDCF80850B3
:10061000A6074FEA167809FA08F6B543274EB04206
:1006200002D1002610E03BE0254EB04201D1012668
:100630000AE0244EB04201D1022605E0224EB0422B
:1006400001D1032600E0042606FA08F62E43CCF872
:1006500008604D68DAF80060ED03554601D51E4389
:1006600000E09E432E604D68DBF80060AD035D4600
:1006700001D51E4300E09E432E604D68DEF8006009
:10068000ED02754601D51E4300E09E432E604D6885
:10069000AD020E4D2E6801D51E4300E09E432E6034
:1006A000641C102CFFF444AFBDE8F88F0004014037
:1006B000000011100010024000000140000801403D
:1006C000000C014000100140001401400C040140E6
:1006D0008068084000D001207047C2684A40C2606C
:1006E00070470AB1016170470904FBE7014880685F
:1006F000704700001C00002070B504001BD094F867
:100700003D00002520B984F83C50204600F030F927
:10071000242084F83D002068016821F00101016077
:1007200000F0A0FA404A6168914201D83F4900E0D8
:100730003F49884201D2012070BD3E492368B0FB89
:10074000F1F159606368934206D94FF496735943A7
:100750004FF47A73B1FBF3F12368491C19626168A5
:10076000914210D84900401EB0FBF1F2521CC2F376
:100770000B02042A01D2042022E0B0FBF1F0401C5D
:10078000C0F30B001CE0A368CBB301EBC10202EB8A
:100790000116421EB2FBF6F2521C42F480421205D0
:1007A00036D06BB301EBC10202EB0111401EB0FB6E
:1007B000F1F0401CC0F30B0040F4804040F40040D6
:1007C0002168C861D4E90701084321680860D4E9B9
:1007D0000310084321688860D4E9050108432168B3
:1007E000C8602068016841F0010101602564202093
:1007F00084F83D00256384F83E50002070BD00E081
:1008000008E001EB4106421EB2FBF6F2521CC6E7BD
:100810000120D5E701EB4101401EB0FBF1F0401C87
:10082000C0F30B00CAE70000A086010080841E0010
:1008300000093D0040420F002DE9F84F1F46904649
:100840008A460446DDF82890FFF750FF064694F8E4
:100850003D0020287ED119230122434920460096DD
:1008600000F0F3FF00287DD194F83C00012879D0F6
:10087000012084F83C0020680168C90703D10168A1
:1008800041F0010101602068016821F4006101600C
:10089000212084F83D00102084F83E0000252564C6
:1008A000C4F8248067853148E062608D2085334636
:1008B0004A465146204600F057FF28B1206C84F884
:1008C0003C5004284CD00DE02068416980690090BC
:1008D00030E032464946204601F02CF828B1206C21
:1008E000042838D00320BDE8F88F606A411C61629B
:1008F000216800780861608D401E6085208D401E53
:1009000080B2208521684A69D24352070BD450B186
:10091000606A421C626200780861608D401E6085DA
:10092000208D401E208532464946204600F066FF55
:100930000028D4D1208D0028CBD154F83D0B01687C
:1009400041F400710160202004F81E09E577657705
:100950000020C8E706E02068016841F400710160EA
:100960000120C0E70220BEE7020010000000FFFFE8
:1009700010B586B0002100910191029103910068A9
:100980000F4988421AD10F4CA06940F00800A061BD
:10099000A069694600F008000490C0200090122071
:1009A0000190032003900848FFF7B4FDE06940F48C
:1009B0000010E061E06900F40010049006B010BD82
:1009C0000054004000100240000C014002488168C1
:1009D00002781144816070471C000020074810B560
:1009E000016841F010010160032000F073F800205D
:1009F00000F006F800F024F8002010BD00200240AE
:100A000070B50D4D04464FF47A712878B1FBF0F0C3
:100A10000A490968B1FBF0F000F0FCFA48B9102C63
:100A200007D200222146501E00F034F800206C60EE
:100A300070BD012070BD00001C00002028000020B7
:100A40000C4808B5816941F001018161816901F0BB
:100A500001010091C16941F08051C161C06900F09C
:100A6000805000900448416821F0E06141F000713D
:100A7000416008BD001002400000014000F01F026C
:100A8000012191404009800000F1E020C0F80011F0
:100A900070470000F0B40E4B1B680C46C3F30223F2
:100AA000C3F10705042D00D90425191D072901D21A
:100AB000002300E0DB1E012606FA05F1491E214055
:100AC00099409E40761E16403143F0BC00F0ECBFCA
:100AD0000CED00E0064900F0070208684FF6FF033E
:100AE000184040EA0220034A1043086070470000A3
:100AF0000CED00E00000FA052DE9F047DFF8548125
:100B000005460E46D8F8000000F00700B0420CD2AF
:100B1000D8F8001021F007013143C8F80010D8F8C8
:100B2000000000F00700B0426FD128684A4C8107EE
:100B300012D5400703D5606840F4E0606060287813
:100B4000000703D5606840F4605060606068A96881
:100B500020F0F000084360602878C00744D068683F
:100B6000012816D02168022816D0890700294CDAFE
:100B7000616821F0030101436160FFF7B7FD696817
:100B8000074641F2883001290ED00229814618D04B
:100B900026E021688903E9E78901E7E7FFF7A6FD79
:100BA000C11B494501D918E081466068C0F3810046
:100BB0000128F3D118E000BFFFF798FDC11B49459C
:100BC0000BD86068C0F381000228F5D10CE000BFAB
:100BD000FFF78CFDC11B494502D90320BDE8F08712
:100BE000606810F00C0FF3D1D8F80010404601F007
:100BF0000701B1420BD9016821F0070131430160BF
:100C0000006800F00700B04201D00120E6E7287834
:100C1000400705D56068E96820F4E060084360603B
:100C20002878000706D56068296920F4605040EAFA
:100C3000C100606000F036F86168084AC1F3031132
:100C4000515CC840064908600020FFF7D9FE00202B
:100C5000C4E700000020024000100240BC2C000845
:100C6000280000200448054900684968044AC1F387
:100C70000221515CC840704728000020001002404B
:100C8000CC2C00080448054900684968044AC1F3AF
:100C9000C221515CC840704728000020001002406B
:100CA000CC2C000812A185B00FC98DE80F0014A04C
:100CB000144A006804905168134801F00C03042B97
:100CC00010D0082B0ED1C1F38343C9031DF80300D4
:100CD0000AD5516804AAC1F34041515C0A4A504305
:100CE000B0FBF1F005B0704708494843FAE700004F
:100CF00002030405060708090A0B0C0D0E0F10105D
:100D0000010200000010024000127A0000093D00BC
:100D10002DE9F84F04460078B94DC00748D06868FF
:100D2000C0F38100012807D06868C0F38100022861
:100D300009D16868C00306D52868800338D5606883
:100D400000286FD034E06068B0F5803F0BD010B160
:100D5000B0F5A02F11D0286820F4803028602868D2
:100D600020F4802002E0286840F480302860606829
:100D700088B1FFF7BBFC064609E0286840F48020F4
:100D80002860F0E7FFF7B2FC801B642875D828685C
:100D90008003F7D50CE0FFF7A9FC064605E000BF8D
:100DA000FFF7A4FC801B6428F0D828688003F7D4E0
:100DB0002078944E80074FF001094FF000083BD592
:100DC000686810F00C0F07D06868C0F38100022833
:100DD00009D16868C00306D42868800714D5206943
:100DE00001281FD110E02069B0B1C6F80090FFF7CC
:100DF0007DFC074605E000BFFFF778FCC01B02281A
:100E0000C4D828688007F7D52868616920F0F80001
:100E100040EAC10028600FE0C6F80080FFF766FCDA
:100E2000074606E0E9E000BFFFF760FCC01B0228B0
:100E300023D828688007F7D4207800072CD572487B
:100E4000A169D9B1C0F80090FFF750FC074604E053
:100E5000FFF74CFCC01B02280FD8686A8007F7D543
:100E60006A484FF4FA510068B0FBF1F0009000BFFF
:100E70000098411E0091FAD20EE080E0C0F8008098
:100E8000FFF734FC074604E0FFF730FCC01B0228E4
:100E900075D8686A8007F7D42078400760D5E8697C
:100EA0000027C00008D4E86940F08050E861E86994
:100EB000012700F08050009055480168C90513D4FF
:100EC0000168834641F480710160FFF70FFC8246A0
:100ED00006E000BFFFF70AFCA0EB0A0064284ED82A
:100EE000DBF80000C005F5D5E06801280AD008B19C
:100EF000052813D0286A20F001002862286A20F013
:100F0000040002E0286A40F001002862E06841F233
:100F1000883B98B1FFF7EAFB82460BE0286A40F075
:100F200004002862EEE700BFFFF7E0FBA0EB0A0138
:100F300059455AD8286A8007F6D50CE0FFF7D6FB4A
:100F4000824605E0FFF7D2FBA0EB0A0159454CD8D9
:100F5000286A8007F6D41FB1E86920F08050E86164
:100F6000E06988B36968C1F38101022945D002288C
:100F7000C6F8608004D0FFF7B9FB044638E034E0DF
:100F8000FFF7B4FB074604E0FFF7B0FBC01B0228E5
:100F90002BD828688001F7D4206AB0F5803F05D1AE
:100FA0006868A16820F4003008436860D4E908014B
:100FB0000843696821F4741108436860C6F86090BA
:100FC000FFF794FB044606E015E000BFFFF78EFB39
:100FD000001B022809D828688001F7D50BE000BF64
:100FE000FFF784FB001B022802D90320BDE8F88F1D
:100FF00028688001F4D40020F8E70120F6E700001B
:1010000000100240000042428004424228000020BA
:101010000070004010B5401EB0F1807F01D3012068
:1010200010BD4FF0E02460610F21601700F03CFD1F
:101030000020A06107202061002010BD704770478C
:1010400030B590F83C20012A20D0012280F83C20C5
:10105000022380F83D3003685C6824F070045C6013
:1010600003685C680D682C435C6003689C6824F02E
:1010700080049C6003689C6849680C439C6080F80D
:101080003D20002180F83C10084630BD022030BDD4
:1010900010B5040003D094F83D0010B107E0012022
:1010A00010BD002084F83C00204600F00DF802201E
:1010B00084F83D00211D206800F05CFD012084F8CB
:1010C0003D00002010BD000008B50068B0F1804F61
:1010D00012D10A48C16941F00101C161C069002211
:1010E00000F00100009011461C20FFF7D3FCBDE882
:1010F00008401C20FFF7C2BC08BD000000100240E1
:101100000168CA6842F00102CA600068016841F0E3
:10111000010101600020704770B5044690F83C0062
:10112000012817D0012584F83C50022084F83D00A6
:101130002068826822F0770222F47F428260086889
:10114000502837D00DDC202859D005DC88B3102872
:1011500041D151E0022070BD302853D040283AD10F
:101160003FE060282ED070280BD0B0F5805F03D010
:10117000B0F5005F2FD110E02068816821F00701F1
:1011800015E0CB68D1E90121206800F029FD216834
:10119000886840F0770088601DE0CB68D1E90121C4
:1011A000206800F01DFD2068816841F48041816065
:1011B00011E01EE0CA684968206800F023FD502154
:1011C000206806E0CA684968206800F02CFD6021AC
:1011D000206800F00FFD84F83D50002084F83C00AA
:1011E00070BDCA684968206800F00CFD4021206885
:1011F000EFE700212068ECE710212068E9E72021D3
:101200002068E6E730212068E3E7704770B50446C0
:10121000006801694FF00005C943890715D4C1680A
:10122000C943890711D4E91E016101202077206894
:1012300080698007204602D0FFF7E7FF04E000F056
:1012400098F8204600F096F8257720680169C94390
:10125000490717D4C168C943490713D46FF0040183
:101260000161022020772068806910F4407F2046C9
:1012700002D0FFF7CAFF04E000F07BF8204600F040
:1012800079F8257720680169C943090716D4C16830
:10129000C943090712D46FF00801016104202077C7
:1012A0002068C0698007204602D0FFF7AEFF04E047
:1012B00000F05FF8204600F05DF8257720680169AE
:1012C000C943C90617D4C168C943C90613D46FF00E
:1012D00010010161082020772068C06910F4407F68
:1012E000204602D0FFF791FF04E000F042F82046CC
:1012F00000F040F8257720680169C943C90708D183
:10130000C168C943C90704D1891E0161204600F0A4
:1013100032F820680169C943090609D4C168C94384
:10132000090605D46FF0800101612046FFF786FEB3
:1013300020680169C943490609D4C168C9434906FF
:1013400005D46FF040010161204600F015F82068D7
:101350000169C94389060BD4C168C943890607D40A
:101360006FF0200101612046BDE87040FFF767BEC5
:1013700070BD7047704770477047704770B502681E
:1013800004461068D168536910F00F0F50D003F075
:10139000010501F4907635435DD0C20705D0CA053A
:1013A00003D5E26B42F00102E263420705D5DA079A
:1013B00003D0E26B42F00202E263820705D5DA074E
:1013C00003D0E26B42F00402E263020705D5DA07BC
:1013D00003D0E26B42F00802E263E26B002A33D0F2
:1013E000800604D5880602D5204600F044FC20681B
:1013F0004069E16BC0F38010090700D428B3204690
:1014000000F02BFC2068416949061AD5416921F09A
:1014100040014161606BA0B11B494163606BFEF705
:1014200069FF002810D0606B416BBDE87040084731
:10143000830610D58B060ED52046BDE8704000F01F
:101440001ABC2046FFF799FF70BD2046FFF795FFB5
:101450000020E06370BD030606D50B0604D52046C8
:10146000BDE8704000F00ABD4006F3D54806F1D54E
:10147000D168204621F04001D160202184F8391044
:1014800000F05CF970BD00004B1C000870B5040052
:1014900004D094F83900002510B106E0012070BD99
:1014A00084F83850204600F023F8242084F83900CE
:1014B0002068C16821F40051C160204600F026FC7C
:1014C0002068016921F4904101612068416921F09F
:1014D0002A0141612068C16841F40051C160E5639F
:1014E000202084F8390084F83A00002070BD000004
:1014F00070B586B0002400940194029403942E4E9B
:1015000003682E49022003222D4DB34226D18B6958
:1015100043F480438B618B6903F4804304938B69AC
:1015200043F004038B618969039201F00401049183
:101530000102CDE9001069462846FEF7EBFF2815A9
:10154000CDE90004694628460294FEF7E3FF002235
:1015500011462520FFF79EFA252028E0194EB342B8
:1015600027D1CB6943F40033CB61CB6903F400335B
:1015700004938B6943F004038B618969039201F042
:10158000040104910421CDE9001069462846FEF7C4
:10159000C1FF0820CDE90004694628460294FEF701
:1015A000B9FF002211462620FFF774FA2620FFF724
:1015B00065FA06B070BD000000380140001002401E
:1015C00000080140004400402DE9F843044690F82B
:1015D0003A00994616460D4620284FD195B18EB156
:1015E00094F83800012849D0012084F838000027F9
:1015F000E763222084F83A00FFF778F8A685804652
:10160000E68531E00120BDE8F883E08D401EE085ED
:10161000A0684346B0F5805F4FF000024FF0200114
:101620002046CDF8009004D000F059FC98B103207A
:10163000E9E700F054FC0028F9D12069002820686F
:10164000406803D0C1B225F8011B0DE0C0F30801CA
:1016500025F8021B08E0206900282068406801D0B6
:1016600000F07F0005F8010BE08D0028CDD120208F
:1016700084F83A0084F838700020C4E70220C2E7FA
:1016800070472DE9F843044690F839001F46164686
:101690000D46202850D1A5B19EB194F838000128FC
:1016A0004AD0012084F838004FF00008C4F83C808C
:1016B000212084F83900FFF719F8A6848146E684D2
:1016C00026E00120BDE8F883E08C401EE084A0689D
:1016D0004B46B0F5805F4FF000024FF0800120468E
:1016E000009703D000F0FBFBE8B90DE000F0F7FB3A
:1016F000C8B928882168C0F308004860206908B18B
:101700006D1C05E0AD1C03E0216815F8010B486075
:10171000E08C0028D8D14B4600224021204600977B
:1017200000F0DDFB08B10320CCE7202084F839006D
:1017300084F838800020C5E70220C3E77047FEE741
:1017400001684A69D24352050CD46FF480624A6141
:1017500004210164002140F8301F202242730173EC
:101760000120704700207047F8B50446C06A1E4645
:101770000D461746042807D0012805D010F5803FF4
:1017800002D0206B122804D12068016841F48071D6
:101790000160134600224FF001112046009600F030
:1017A00054F8A0B92069B0F5804F12D00620216806
:1017B00000EAD51040F0F000086133463A460E4981
:1017C000204600F073F838B1206C042811D00320B3
:1017D000F8BD05F0FE0000E0E8B2216808610649A6
:1017E00033463A46891F204600F060F80028EBD1C6
:1017F000F8BD0120F8BD00000800010070B51646D4
:101800000D4604461AE02046FFF79AFF08B1012072
:1018100070BD681C12D025B1FEF768FF801BA8427E
:101820000CD954F8400F40F0200044F81009002073
:101830002060202161732073032070BD20684069FF
:10184000C0434007DFD4002070BD2DE9F0471E469D
:1018500090460D460446C1F30747DDF8209012E09C
:10186000701C10D02EB1FEF741FFA0EB0900B04272
:1018700009D9002044F8300F20216173A073207330
:101880000320BDE8F0872068012F0AD0806925EA8F
:1018900000000004000C06D000214145E0D00020EB
:1018A000EFE74069F3E70121F7E700002DE9F04792
:1018B0009A4691460D46044600264FF02008C1F393
:1018C00007472AE020684069C043400512D42068D9
:1018D000016841F40071016021686FF48060486123
:1018E00004202064266384F83D8084F83C60012055
:1018F000BDE8F087B9F1FF3F0FD0B9F1000F05D077
:10190000FEF7F4FEA0EB0A01494506D944F8306F12
:1019100084F80D8026730320EAE72068012F07D0A2
:10192000D0F8180025EA00000004000CE0D0C9E758
:101930004069F7E770B516460D4604461AE02046A2
:10194000FFF7FEFE08B1012070BD681C12D025B162
:10195000FEF7CCFE801BA8420CD954F8400F40F093
:10196000200044F8100900202060202161732073BA
:10197000032070BD20684069C0430006DFD400200A
:1019800070BD000070B586B000242048009401941A
:1019900002940394816941F010018161816901F031
:1019A00010010491816941F020018161816901F098
:1019B00020010491816941F004018161816901F094
:1019C00004010491816941F0080181618069104E30
:1019D00000F008004FF400550490002229463046DC
:1019E000FEF77FFE0220CDE9024000950125694601
:1019F00001953046FEF78EFD40F602408DE831003D
:101A000069460448FEF786FD06B070BD001002402E
:101A100000100140000C014010B586B000241248AF
:101A2000009401940294039404944FF0804105942F
:101A300001604FF4E151C0E9011444F61F61C0E9AF
:101A4000031480218161FFF723FB4FF48050009045
:101A500069460548FFF760FB049404A90248059411
:101A6000FFF7EEFA06B010BDD40000200C4810B508
:101A70000A4901604FF461414160002181600C22FC
:101A8000C160C0E904128161C161FFF7FFFC002859
:101A900003D0BDE81040FEF77DBB10BD003801400B
:101AA00040000020FEE770470907090E002806DA0B
:101AB00000F00F0000F1E02080F8141D704700F1E5
:101AC000E02080F80014704770477047FEF77EBF33
:101AD00030B58FB028216846FEF73DFB14210AA8D7
:101AE000FEF739FB01210804CDE90010002402941F
:101AF00002250491CDE907504FF4E01009906846A3
:101B0000FFF706F90F20CDE90A056802CDE90C4080
:101B100002210AA80E94FEF7EFFF0FB030BD0000BF
:101B20000D48016841F00101016041680B4A114014
:101B3000416001680A4A11400160016821F4802176
:101B40000160416821F4FE0141604FF41F01816092
:101B50000449C00308607047001002400000FFF80D
:101B6000FFFFF6FE08ED00E00148FFF74FBB000065
:101B7000D4000020F0B50268164B174C174D4FF0FB
:101B80008047984205D0B84203D0A04201D0A84275
:101B900003D122F070064A683243984205D0B84219
:101BA00003D0A04201D0A84203D122F44074CA68F5
:101BB000224322F080044A69224302608A68C2629A
:101BC0000A688262984201D1096901630121416179
:101BD000F0BD0000002C014000040040000800405F
:101BE00010B5846842EA032224F47F440A43224366
:101BF000826010BD826822F070020A4342F0070141
:101C00008160704710B5036A046A24F0010404621D
:101C1000846924F0F00444EA021423F00A020A431F
:101C20008461026210BD10B5036A23F010030362E1
:101C30008369046A23F4704343EA023224F0A00368
:101C400043EA01118261016210BD10B5406A0021B2
:101C5000C185C184FFF791FB10BD0168CA6822F4F9
:101C60009072CA6001684A6922F001024A6120212B
:101C700080F83A10704710B590F83A10222901D038
:101C8000022010BD8168B1F5805F11D00169002983
:101C900001681FD0496801F07F03816A4A1C826293
:101CA0000B70C18D491E0904090CC18518D02BE0A9
:101CB0000269816A002A0268526805D0D2B20A809D
:101CC000816A491C8162ECE7C2F308020A80816ADA
:101CD000891CF7E74A68816A4B1C83620A70E0E757
:101CE0000168CA6822F02002CA600168CA6822F44A
:101CF0008072CA6001684A6922F001024A612021AB
:101D000080F83A10FFF7BCFC002010BD2DE9F0412F
:101D1000044600680169E26821F440511143016101
:101D20002169A0680843616908432168CA6841F2D3
:101D30000C639A430243CA6020684169A26921F496
:101D40004071114341614C49206864253226884224
:101D50003CD1FEF797FF00EBC00101EB001061687A
:101D60008900B0FBF1F7FEF78DFF00EBC00101EB3E
:101D700000106168B0468900B0FBF1F0B0FBF5F0EF
:101D80006FF01801484307EB800106EB0110B0FB30
:101D9000F5F000F0F006FEF775FF00EBC00101EB77
:101DA000001061688900B0FBF1F0B0FBF5F006EBC4
:101DB0000016FEF767FF00EBC00101EB0010616841
:101DC0008900B0FBF1F7FEF75DFF3BE0FEF74AFF4D
:101DD00000EBC00101EB001061688900B0FBF1F776
:101DE000FEF740FF00EBC00101EB00106168B04658
:101DF0008900B0FBF1F0B0FBF5F06FF0180148433B
:101E000007EB800106EB0110B0FBF5F000F0F006E7
:101E1000FEF728FF00EBC00101EB001061688900AC
:101E2000B0FBF1F0B0FBF5F006EB0016FEF71AFF81
:101E300000EBC00101EB001061688900B0FBF1F715
:101E4000FEF710FF00EBC00101EB00106168890094
:101E5000B0FBF1F0B0FBF5F06FF01801484307EB71
:101E6000800108EB0110B0FBF5F0216800F00F00D5
:101E700030448860BDE8F0810038014090F83910A6
:101E8000212901D0022070478168B1F5805F016A85
:101E90000BD04A1C0262026809785160C18C491E4D
:101EA0000904090CC1840ED017E009880268C1F347
:101EB0000801516001690029016A02D0491C0162D0
:101EC000ECE7891CFBE70168CA6822F08002CA605F
:101ED0000068C16841F04001C160002070472DE9F1
:101EE000F041984617460E460446069D1DE0681CC4
:101EF0001BD02DB1FEF7FAFBA0EB0800A84214D9C5
:101F00002068C16821F4D071C1602068416921F066
:101F100001014161202084F8390084F83A00002052
:101F200084F838000320BDE8F0812068006836EAB4
:101F3000000004D00020B842D9D00020F3E70120EF
:101F4000F9E700000148FFF719BA0000400000203F
:101F50000148FFF713BA000014010020FEE702E079
:101F600008C8121F08C1002AFAD170477047002024
:101F700001E001C1121F002AFBD1704708B50CA077
:101F80006B46006800900B4803220121806800F036
:101F900075FD094800F0C8F90749012805D00878FF
:101FA000072802D04FF0FF3008BD91F9010008BDAD
:101FB00005000000000000202C0000201CB510A22D
:101FC0006B46D2E90012CDE90012010A8DF801102A
:101FD0008DF802000C4807220121806800F04EFDB8
:101FE0000A4800F0A1F90949012805D00878072816
:101FF00002D04FF0FF301CBD91F901001CBD000064
:102000000C00000001000000000000202C00002057
:1020100008B50CA06B46006800900B480322012114
:10202000806800F02BFD094800F07EF9074901287F
:1020300005D00878072802D04FF0FF3008BD91F98D
:10204000010008BD0D000000000000202C00002051
:102050002DE9F0474FF40057DFF8D480354D814625
:10206000BC1000BF00F040F9064621462846FEF7A6
:102070002FFB00283CD0002EF4D1012000F09EF967
:10208000002831464FF0010003D000F001FA2AA0E9
:1020900047E000F0FDF92EA000F046FA4FF47A7008
:1020A000FEF774F900F020F9064621462846FEF7AF
:1020B0000FFBE8B1022EF5D10021012000F0E8F974
:1020C00028A000F031FA264600F00EF90446314609
:1020D0002846FEF7FDFA58B1002CF5D1022000F099
:1020E0006DF960B10021012000F0D2F922A018E0C2
:1020F00039464046FEF7F1FA6320BDE8F087FFF766
:102100003DFF28B10021012000F0C2F91FA008E026
:10211000484600F061FB40B10021012000F0B8F911
:102120001FA000F001FA0020E7E70120E5E700002A
:1021300000100140000C0140202020204C4F49207D
:1021400054414F204B49205455202020202000008E
:102150002044414E4720434150545552454420208D
:1021600020000000202020204C5555204C414E20BE
:10217000312020202000000020204C4F49205441D5
:102180004F204B49205455203220200020204C4F16
:1021900049204B48492054414F204D4155200000D3
:1021A000202020204641494C45442020202020006A
:1021B0007CB515A1164CD1E90001CDE900014FF61F
:1021C000FF75258065806B4608220121A06800F01C
:1021D00055FC104800F0A8F80E49012805D00878F1
:1021E000072802D04FF0FF307CBD8878CA7805EA16
:1021F00000200243228008794A7905EA0020024340
:10220000628091F901007CBD1B01000000A3000069
:10221000000000202C0000202DE9F041234F4FF05A
:10222000FF354FF4006600BF00F05EF8044631460B
:102230003846FEF74DFA78B1002CF5D1012000F0B8
:10224000BDF890B100F0DCF80021084600F020F95C
:1022500017A000F069F923E04FF400511848FEF789
:102260003CFA40F2E730BDE8F0814FF47A74204642
:10227000FEF78CF8FFF79CFFA0B100F0C1F8002139
:10228000084600F005F90FA000F04EF900210120EA
:1022900000F0FEF80FA000F047F92046FEF776F8B0
:1022A0002846E0E70F480088DDE70000000C014009
:1022B0004C4F492054414F204B49205455000000B9
:1022C00000100140202056414E20544159205341D6
:1022D0004920200058494E20484159205448552053
:1022E0004C4149000000002008B50CA06B46006876
:1022F00000900B4803220121806800F0BFFB0948D1
:1023000000F012F80749012805D00878072802D004
:102310004FF0FF3008BD91F9010008BD0100000039
:10232000000000202C0000202DE9F04385B0224F52
:10233000064600244FF4FA694FF6FF784FEA0D0580
:1023400097F83A002028FBD129194B4601221A4858
:10235000FFF73AF91CB99DF80000EF28F0D1641C92
:10236000E4B2092CECD39DF80000EF2803D19DF8CE
:102370000100012803D0FE2005B0BDE8F0839DF8E0
:1023800007009DF8061008EA00229DF80800104397
:10239000801E80B200F10A029442D1D9317000212E
:1023A00005E06A187318527A491C5A70C9B2814202
:1023B000F7D3C0B2E0E700004000002008B50DA14F
:1023C0006B46096800918DF801000B480422012139
:1023D000806800F053FB0948FFF7A6FF0749012872
:1023E00005D00878072802D04FF0FF3008BD91F9DA
:1023F000010008BD02000000000000202C000020A9
:1024000010B5802000F050F80024202000F06CF877
:10241000641C462CF9DB10BD10B53220FDF7B6FF69
:10242000302000F041F80520FDF7B0FF302000F02B
:102430003BF80120FDF7AAFF302000F035F80A2014
:10244000FDF7A4FF202000F02FF80A20FDF79EFFE3
:10245000282000F029F80120FDF798FF082000F05F
:1024600023F80120FDF792FF012000F01DF8012064
:10247000FDF78CFF0120FDF789FF062000F014F81E
:102480000120FDF783FFBDE810400C2000F00CB8E0
:1024900010B1012805D102E041F0800101E041F0D6
:1024A000C001C8B2AFF300801CB500F0F00141F0EC
:1024B0000C028DF8042041F0080100018DF8051090
:1024C00040F00C018DF8061040F008008DF8070070
:1024D00064200090042301AA4E210248FEF7ACF9C3
:1024E0001CBD0000800000201CB500F0F00141F090
:1024F0000D028DF8042041F0090100018DF805104E
:1025000040F00D018DF8061040F009008DF807002D
:1025100064200090042301AA4E210248FEF78CF9A2
:102520001CBD00008000002010B5044602E0641CC1
:10253000FFF7DAFF20780028F9D110BDFEF74EFA38
:10254000FFF7C6FAFFF71EFA2C482B49002401605A
:102550002B49C0E901144FF48041C0E903414461B3
:102560008461C4610462FEF7C7F8244825499430A9
:1025700001604FF4E131C0E901140C21C460C0E9ED
:1025800004418461C461FEF781FFFFF76FFAFFF732
:1025900043FA1A485430FEF7B3FDFFF73DFF002120
:1025A0000846FFF775FF18A0FFF7BEFF1B4C00BFE2
:1025B00000F036F8606801280BD002280FD00328FD
:1025C00013D00428F4D120780028F1D000F0A0F92D
:1025D000EEE720780028EBD000F024F9E8E7207837
:1025E0000028E5D000F0CEFAE2E720780028DFD01E
:1025F00000F030FBDCE700000054004080000020C9
:10260000A086010000440040444F20414E20544F1A
:1026100054204E4748494550000000000C0000205F
:102620002DE9F047464D02212846FEF751F8DFF824
:102630001491454C4FF40058012660B12F153946CE
:102640002846FEF745F8D0B1EE1431462846FEF78D
:102650003FF828B331E01420FDF798FE4146484684
:10266000FEF73BF86068401C6060052800D166609A
:1026700002212846FEF72CF80028F9D01DE014208E
:10268000FDF784FE41464846FEF727F82670FFF71F
:10269000B7FE39462846FEF71BF80028F9D00CE0B3
:1026A0001420FDF773FE41464846FEF716F8314602
:1026B0002846FEF70DF80028F9D06068012815D0EB
:1026C000022820D003282BD0042836D10021084628
:1026D000FFF7DEFE1DA0FFF727FF00210120FFF717
:1026E000D7FE1FA0BDE8F047FFF71EBF0021084638
:1026F000FFF7CEFE1FA0FFF717FF00210120FFF715
:10270000C7FE21A0EEE700210846FFF7C1FE23A087
:10271000FFF70AFF00210120FFF7BAFE24A0E1E73E
:1027200000210846FFF7B4FE17A0FFF7FDFE0021C9
:102730000120FFF7ADFE23A0D4E7BDE8F08700003D
:10274000000C0140001001400C0000207C202058AB
:102750004F4120544F414E20424F20202000000086
:102760007C3E20204449454D2044414E48202020B5
:10277000200000007C3E205448454D2056414E200C
:1027800054415920202000007C2020584F412056E1
:10279000414E205441592020200000007C2020542C
:1027A00048454D2056414E205441592020200000DC
:1027B0007C3E20584F412056414E20544159202004
:1027C000200000007C3E20584F4120544F414E20B5
:1027D000424F20202000000008B50FA16B46096879
:1027E0000091010A8DF802108DF803000B480622B3
:1027F0000121806800F042F90948FFF795FD08497A
:10280000012805D00878072802D04FF0FF3008BD16
:1028100091F9010008BD0000060200000000002040
:102820002C0000202DE9F041FFF7EAFD00210846C9
:10283000FFF72EFE26A0FFF777FE00F0EFF8012845
:1028400041D1284E3046FDF744FD274CA060C0B270
:10285000FFF7FEFB0025632805D04FF47A7820B1FE
:1028600001280AD024E0257022E001210846FFF764
:102870000FFE1EA0FFF758FE17E001210846FFF7E4
:1028800007FE1FA0FFF750FEA0680A2790FBF7F095
:102890003030C0B2FFF728FEA06890FBF7F107FBCD
:1028A00011003030C0B2FFF71FFE4046FDF76EFD4D
:1028B000A068401CA0603046FDF7F8FC3046A168D7
:1028C000FDF709FD2570BDE8F041FFF799BD000057
:1028D00020205448454D2056414E20544159202037
:1028E0000000000000FC00080C0000202020202038
:1028F0002020204C4F4920202020202000000000D4
:102900005448454D204F4B2049443A2000000000D8
:1029100070B500F083F801280FD1FFF77DFC254C3E
:10292000411CA06009D0A0F54071E73903D04FF4F5
:10293000FA6518B113E00020207070BD0021084630
:10294000FFF7A6FD1CA0FFF7EFFD00210120FFF718
:102950009FFD1EA0FFF7E8FD2846FDF717FDA068C4
:10296000012810D100210846FFF792FD12A0FFF7C1
:10297000DBFD00210120FFF78BFD19A0FFF7D4FD3F
:102980002846FDF703FDA0680328D6D1002108469C
:10299000FFF77EFD17A0FFF7C7FD00210120FFF71D
:1029A00077FD19A0FFF7C0FD2846BDE87040FDF790
:1029B000EDBC00000C000020202020204449454DA3
:1029C0002044414E48202020200000002020464F77
:1029D000554E442041444D494E20202020200000E7
:1029E0002020464F554E44204E4748494120202044
:1029F000202000002020204449454D2044414E48DD
:102A000020202020000000002020464F554E44206A
:102A10004D494E4820202020200000001CB513A165
:102A2000144CD1E90001CDE9000160688DF8040083
:102A3000010E8DF80110010C8DF80210010A8DF8BD
:102A400003106B4607220121A06800F017F80A481E
:102A5000FFF76AFC012805D107480178072901D151
:102A6000407808B100201CBD01201CBD13000000EF
:102A700000000000000000202C0000202DE9FF4194
:102A80008EB0EF218DF80C1001218DF81010010E81
:102A90008DF81410010C8DF81810010A8DF8200023
:102AA000100AD5B24FF4FA681F4614468DF81C1070
:102AB0008DF824008DF8045046464346012203A9B0
:102AC0002F48FEF7DEFD3346012204A92C48FEF70D
:102AD000D8FD3346012205A92948FEF7D2FD334629
:102AE000012206A92648FEF7CCFD3346012207A99C
:102AF0002348FEF7C6FD3346012208A92048FEF709
:102B0000C0FD334601220FA91D48FEF7BAFD33462A
:102B1000012209A91A48FEF7B4FD3346012201A992
:102B20001748FEF7AEFD05EB14209DF83C1000257C
:102B30004618A41E0DE0785D8DF82800434601225A
:102B40000AA90F48FEF79DFD785D6D1C304486B2E2
:102B5000EDB2A542EFDB300A8DF82C008DF8306025
:102B60004446434601220BA90548FEF78AFD234649
:102B700001220CA90248FEF784FD12B0BDE8F081E5
:102B80004000002070B5FFF749FF012843D1FFF74F
:102B900037FC00210846FFF77BFC1FA0FFF7C4FCB1
:102BA00000210120FFF774FC20A0FFF7BDFCFFF718
:102BB00033FB224CA0F54071E739E06027D0411C7F
:102BC00025D080B2FFF7FAF900210120FFF760FC61
:102BD0001BA0FFF7A9FC08210120FFF759FC1BA04F
:102BE000FFF7A2FCE0680A2590FBF5F03030C0B298
:102BF000FFF77AFCE06890FBF5F105FB110030303F
:102C0000C0B2FFF771FC4FF47A70FDF7BFFBFFF71E
:102C1000F7FB0020207070BD202020584F41205627
:102C2000414E205441592020000000004D4F4920C2
:102C3000444154205441592056414F000C0000207B
:102C400020444120584F41200000000049443A20D0
:102C50000000000010B5FFF7E1FE01281ED1FFF7CC
:102C6000D7F9FFF7CDFB01210846FFF711FC0CA0B7
:102C7000FFF75AFC4FF47A70FDF788FBFFF7C0FBB3
:102C80000C4900200C4C087088602046FDF70EFBB4
:102C90002046BDE810400021FDF71DBB10BD00001F
:102CA000202020202020444120584F412020202057
:102CB000200000000C00002000FC000800000000C4
:102CC00000000000010203040607080900000000DC
:102CD00001020304F42C0008000000202C00000076
:102CE0005E1F0008202D00082C0000204C0500006D
:102CF0006E1F00080000000000000000FFFFFFFF43
:102D000000000000000000000000000000000000C3
:102D100001000000100000000000000000A24A04B2
:04000005080000ED02
:00000001FF
