:020000040800F2
:10000000B005002005010008E31F0008531C00088C
:10001000E11F0008A5060008992400080000000060
:1000200000000000000000000000000007200008A1
:10003000A7060008000000000520000809200008AD
:100040001F0100081F0100081F0100081F01000810
:100050001F0100081F0100081F0100081F01000800
:100060001F0100081F0100081F0100081F010008F0
:100070001F0100081F0100081F0100081F010008E0
:100080001F0100081F0100081F0100081F010008D0
:100090001F0100081F0100081F0100081F010008C0
:1000A0001F0100081F0100081F0100081F010008B0
:1000B000A52000081F0100081F0100081F010008FB
:1000C0001F0100081F0100081F0100081F01000890
:1000D0001F010008812400088D2400081F0100086A
:1000E0001F0100081F0100081F010008DFF810D0E1
:1000F00000F0C6FA00480047E1320008AFF3008084
:10010000B00500200648804706480047FEE7FEE7A6
:10011000FEE7FEE7FEE7FEE7FEE7FEE7FEE7FEE7B7
:100120005D200008ED000008202A04DB203A21FAB7
:1001300002F00021704721FA02F3D040C2F1200200
:100140009140084319467047D2B201E000F8012BF4
:10015000491EFBD270470022F6E710B513460A4647
:1001600004461946FFF7F0FF204610BD421E12F864
:10017000013F002BFBD111F8013B02F8013B002BA2
:10018000F9D170472DE9FE4F804681EA0300C00F88
:100190000C46009021F0004123F00045B8EB02002E
:1001A000A94105D24046214690461C460B460246D0
:1001B00023F00040104347D0270DC7F30A00C3F3D4
:1001C0000A510290401A019040286BDAC3F31300E1
:1001D00040F4801B0098924620B10023D2EB030A22
:1001E00063EB0B0B01985946C0F14002504600F0FA
:1001F000D0F806460D4650465946019A00F0D8F808
:1002000010EB08006141002487EA115284EAE77389
:100210001A4340D0009A62B3019A012A4FEA07526A
:1002200015DC001B61EB02014FF0004202EA0752AD
:10023000CDE90042001C41F5801132462B4600F00A
:10024000D8F803B0BDE8F08F40462146F9E7001B1F
:1002500061EB0201001C41F5801300185B4120187E
:10026000A2F5001747EB030140EAD570B6196D41BE
:1002700011E06D084FEA360645EAC0754FEA0752AD
:10028000001B61EB0201001C41F5801149084FEA97
:1002900030000019514132462B4603B0BDE8F04F03
:1002A00000F098B80098012240000023D0EB020231
:1002B00063EBE073009821464FEAE074B8EB00006E
:1002C00061EB0401E9E783F000435BE781F0004163
:1002D00058E7000030B5041E71F1000404DB4FF054
:1002E0000044404264EB0101141E73F1000405DB7D
:1002F0001C464FF00043524263EB0403994208BF8F
:10030000904230BD30B50B4601460020202201242A
:1003100009E021FA02F59D4205D303FA02F5491BD3
:1003200004FA02F52844151EA2F10102F1DC30BDE9
:100330002DE9F05F0546002092469B46884606461A
:10034000814640241BE02846414647462246FFF7A7
:10035000EBFE53465A46C01A914110D31146184637
:10036000224600F016F82D1A67EB01084F46224688
:100370000120002100F00DF817EB00094E41201E6E
:10038000A4F10104DFDC484631462A464346BDE875
:10039000F09F202A04DB203A00FA02F10020704787
:1003A0009140C2F1200320FA03F3194390407047B3
:1003B000202A06DBCB17203A41FA02F043EAE07329
:1003C00006E041FA02F3D040C2F120029140084316
:1003D0001946704710B5141E73F1000408DA401C6A
:1003E00041F1000192185B411A4301D120F0010054
:1003F00010BD2DE9F04D92469B4611B1B1FA81F244
:1004000002E0B0FA80F220329046FFF7C2FF0446C5
:100410000F4640EA0A0041EA0B0153465A46084398
:1004200013D0114653EA010019D0C8F140025046DA
:10043000FFF77AFE05460E46504659464246FFF7FC
:10044000A8FF084305D0012004E020463946BDE856
:10045000F08D0020054346EAE0762C4337430A98A6
:100460006305E40AA0EB08000022FD0A44EA4754B1
:100470000A3002D500200146E9E70105101969415B
:10048000DDE9084500196941BDE8F04DA2E72DE915
:10049000FE4F81EA030404F0004421F0004100947F
:1004A0004FF0000B23F0004350EA01045ED052EA03
:1004B00003045BD0C3F30A54C1F30A552C44A4F2DD
:1004C000F3340194A0FB0254C1F3130141F48011F1
:1004D000C3F3130343F4801301FB024400FB034EF8
:1004E000840A970A44EA815447EA8357A4FB0768C1
:1004F00002958D0A05FB07854FEA932C04FB0C54EB
:100500002705029D4FEA065847EA1637B5EB08055E
:100510006EEB070C870E920E47EA811742EA8312B0
:10052000A7FB0201B6EB0B0164EB00042B0D43EAC1
:100530000C335E1844EB1C50DA465146E7FB0201CF
:10054000C5F313044FEA0B3343EA14534FEA043262
:10055000019C43EA0603A4F10C040294009CCDE93B
:1005600000B4FFF746FF03B0BDE8F08F002001465E
:10057000F9E72DE9F04D81EA030404F0004B21F086
:10058000004514464FF0000A23F0004150EA0502EE
:1005900020D054EA01021DD0C5F30A570246C5F324
:1005A0001303C1F31300C1F30A5640F4801543F45A
:1005B0008013A7EB0608101BD64608F2FD3873EB34
:1005C000050002D308F1010801E092185B41B8F17F
:1005D000000F03DA00200146BDE8F08D00204FF443
:1005E0008011064684460EE0171B73EB050705D302
:1005F000121B63EB050306434CEA010C49084FEA62
:10060000300092185B4150EA0107EDD152EA030035
:1006100012D082EA040083EA0501084305D0101BCA
:10062000AB4106D20122002306E000224FF0004336
:1006300002E06FF0010253101AEB06004CEB085178
:1006400010EB0A0041EB0B01BDE8F04DFFF7C2BE15
:10065000C1F30A52C1F3130140F2FF3341F4801198
:100660009A4202DA00200146704740F233439A4230
:10067000A2F2334202DC5242FFF756BDFFF789BEB9
:10068000064C074D06E0E06840F0010394E80700DF
:1006900098471034AC42F6D3FFF72CFD8445000890
:1006A000A4450008FEE77047704700000649002097
:1006B000C8610648016941F004010161016941F026
:1006C00040010161704700009001002000200240BD
:1006D000064A0021D16106490A6942F002020A6114
:1006E0004861086940F040000861704790010020AF
:1006F00000200240044B0022DA61044A136943F0EF
:100700000103136101807047900100200020024026
:1007100014480022C168CB06134904D5CA6942F0C7
:100720000202CA611022C3685B0705D5CB6943F09A
:100730000103CB6142F00402C369DB0707D0CB6938
:1007400043F00403CB61C16921F00101C161A2F54D
:100750008071013901D0C2607047C16921F0010187
:10076000C1617047002002409001002070B505462D
:1007700000F046FA0646114C09E0681C07D025B186
:1007800000F03EFA801BA84201D9032070BDE0684A
:10079000C007F2D1E068800601D52020E060E06863
:1007A000C00605D4E069C00702D1E068400703D560
:1007B000FFF7AEFF012070BD002070BD0020024099
:1007C00010B586B0044600F01BF90120CDE90240C7
:1007D00001900020009004A9684600F073F800F032
:1007E000C5F806B010BD0088704770B50C460546C8
:1007F00000F006F92246E3172946012000F0C0F870
:10080000BDE8704000F0B2B810B590F82110002497
:10081000022903D00421816301243DE001680A68B4
:1008200022F00E020A6001680A6822F001020A60E2
:100830001A4A0168914201D1012121E0174A14327C
:10084000914201D110211BE0144A2832914201D17A
:10085000891515E0114A3C32914201D189140FE00B
:100860000E4A5032914202D14FF4803108E00B4AD7
:100870006432914202D14FF4801101E04FF0807157
:10088000064A083A5160012180F82110002180F8C1
:100890002010416B01B18847204610BD080002407E
:1008A00070B5044600F0ACF90546601C02D004485F
:1008B0000078044400F0A4F9401BA042FAD370BDB4
:1008C000380000202DE9F047054626480F4601264E
:1008D000017E01290FD00121814601762868DFF8C9
:1008E00088804CF25034022808D0A2462046FFF7F8
:1008F0003DFFA8B131E00220BDE8F0872046FFF7B8
:1009000035FF08BB0120FFF7D1FE2046FFF72EFF81
:10091000D8F81010064621F00401C8F810101CE0A9
:100920004FF0FF303860AC6811E02046FFF7D0FE92
:100930005046FFF71BFFD8F81010060021F0020107
:10094000C8F8101001D03C6007E004F58064D5E9D8
:10095000020100EB8120A042E7D8002189F818109D
:100960003046C9E790010020002002400348016999
:1009700041F080010161002070470000002002402A
:100980002DE9F05F07461C4888460024017E154685
:100990001E46012909D00121814601764CF2503AC8
:1009A0005046FFF7E3FE18B122E00220BDE8F09FB9
:1009B000012F02D0022F00D00427D346DFF83CA03D
:1009C000220128463146FFF7AFFB81B208EB440015
:1009D000FFF790FE5846FFF7C9FEDAF8102022F024
:1009E0000102CAF8102018B9641CE4B2BC42E7D373
:1009F000002289F81820D9E7900100200020024049
:100A0000064900200A69120607D5054A4A60054AC8
:100A10004A600969090600D501207047002002409C
:100A200023016745AB89EFCD2DE9F84FDFF890A1A1
:100A300000220AF1040B144601274FF00F090BF1B5
:100A4000040E00BF0B6807FA04F52B40AB4274D1CB
:100A5000DFF870C14E68A6EB0C0866452BD00DDCA4
:100A6000032E34D005DC36B3012E19D0022E2FD13F
:100A70001BE0112E16D0122E2AD119E0B8F5881FCE
:100A800019D006DCB8F5803F15D0B8F5801F1FD10E
:100A900011E0B8F5001F0ED0B8F5041F18D10AE018
:100AA000CA6815E0CA68121D12E0CA6808320FE071
:100AB000CA680C320CE08A682AB1012A4FF0080299
:100AC00003D0456104E0042202E0056100E0002259
:100AD000FF2B01D8064601E000F104064FEA840529
:100AE00001D9A5F12005D6F800C009FA05F82CEACD
:100AF000080C02FA05F54CEA050CC6F800C04D6872
:100B0000ED0057D5304DAE6946F00106AE61AD69D6
:100B100024F0030605F0010500952C4D06EB050CAD
:100B2000DCF80850A6074FEA167809FA08F6B5432C
:100B3000274EB04202D1002610E03BE0254EB042E5
:100B400001D101260AE0244EB04201D1022605E07F
:100B5000224EB04201D1032600E0042606FA08F630
:100B60002E43CCF808604D68DAF80060ED03554676
:100B700001D51E4300E09E432E604D68DBF8006007
:100B8000AD035D4601D51E4300E09E432E604D68D7
:100B9000DEF80060ED02754601D51E4300E09E437D
:100BA0002E604D68AD020E4D2E6801D51E4300E04B
:100BB0009E432E60641C102CFFF444AFBDE8F88FF8
:100BC000000401400000111000100240000001402C
:100BD00000080140000C01400010014000140140D9
:100BE0000C0401408068084000D001207047C268B2
:100BF0004A40C26070470AB1016170470904FBE7CF
:100C000001488068704700003800002070B504007B
:100C10001BD094F83D00002520B984F83C502046B4
:100C200000F030F9242084F83D002068016821F0AC
:100C30000101016000F0A0FA404A6168914201D8C8
:100C40003F4900E03F49884201D2012070BD3E4942
:100C50002368B0FBF1F159606368934206D94FF401
:100C6000967359434FF47A73B1FBF3F12368491C2F
:100C700019626168914210D84900401EB0FBF1F240
:100C8000521CC2F30B02042A01D2042022E0B0FB62
:100C9000F1F0401CC0F30B001CE0A368CBB301EBE8
:100CA000C10202EB0116421EB2FBF6F2521C42F4E4
:100CB0008042120536D06BB301EBC10202EB011189
:100CC000401EB0FBF1F0401CC0F30B0040F480402C
:100CD00040F400402168C861D4E907010843216855
:100CE0000860D4E90310084321688860D4E905014D
:100CF00008432168C8602068016841F00101016073
:100D00002564202084F83D00256384F83E500020AF
:100D100070BD00E008E001EB4106421EB2FBF6F2B6
:100D2000521CC6E70120D5E701EB4101401EB0FB94
:100D3000F1F0401CC0F30B00CAE70000A0860100E0
:100D400080841E0000093D0040420F002DE9F84F4D
:100D50001F4690468A460446DDF82890FFF750FF6C
:100D6000064694F83D0020287ED1192301224349EC
:100D70002046009600F0F3FF00287DD194F83C0057
:100D8000012879D0012084F83C0020680168C90757
:100D900003D1016841F0010101602068016821F47C
:100DA00000610160212084F83D00102084F83E009D
:100DB00000252564C4F8248067853148E062608D91
:100DC000208533464A465146204600F057FF28B159
:100DD000206C84F83C5004284CD00DE02068416918
:100DE0008069009030E032464946204601F02CF8F8
:100DF00028B1206C042838D00320BDE8F88F606A41
:100E0000411C6162216800780861608D401E608528
:100E1000208D401E80B2208521684A69D243520746
:100E20000BD450B1606A421C626200780861608D28
:100E3000401E6085208D401E208532464946204652
:100E400000F066FF0028D4D1208D0028CBD154F8C3
:100E50003D0B016841F400710160202004F81E0977
:100E6000E57765770020C8E706E02068016841F46F
:100E7000007101600120C0E70220BEE702001000FF
:100E80000000FFFF10B586B0002100910191029192
:100E9000039100680F4988421AD10F4CA06940F0B5
:100EA0000800A061A069694600F008000490C02015
:100EB000009012200190032003900848FFF7B4FD32
:100EC000E06940F40010E061E06900F40010049073
:100ED00006B010BD0054004000100240000C01405C
:100EE0000248816802781144816070473800002010
:100EF000074810B5016841F010010160032000F0BF
:100F000073F8002000F006F800F024F8002010BD6F
:100F10000020024070B50D4D04464FF47A712878D8
:100F2000B1FBF0F00A490968B1FBF0F000F0FCFAFF
:100F300048B9102C07D200222146501E00F034F888
:100F400000206C6070BD012070BD000038000020E2
:100F5000440000200C4808B5816941F0010181611D
:100F6000816901F001010091C16941F08051C161C5
:100F7000C06900F0805000900448416821F0E061B1
:100F800041F00071416008BD0010024000000140C6
:100F900000F01F02012191404009800000F1E02093
:100FA000C0F8001170470000F0B40E4B1B680C46EF
:100FB000C3F30223C3F10705042D00D90425191D2D
:100FC000072901D2002300E0DB1E012606FA05F105
:100FD000491E214099409E40761E16403143F0BC88
:100FE00001F000B80CED00E0064900F007020868C7
:100FF0004FF6FF03184040EA0220034A10430860FE
:10100000704700000CED00E00000FA052DE9F04704
:10101000DFF8548105460E46D8F8000000F00700BE
:10102000B0420CD2D8F8001021F007013143C8F8C3
:101030000010D8F8000000F00700B0426FD1286817
:101040004A4C810712D5400703D5606840F4E06040
:1010500060602878000703D5606840F460506060E5
:101060006068A96820F0F000084360602878C00735
:1010700044D06868012816D02168022816D0890754
:1010800000294CDA616821F0030101436160FFF738
:10109000B7FD6968074641F2883001290ED0022960
:1010A000814618D026E021688903E9E78901E7E74E
:1010B000FFF7A6FDC11B494501D918E081466068CC
:1010C000C0F381000128F3D118E000BFFFF798FDBD
:1010D000C11B49450BD86068C0F381000228F5D1D7
:1010E0000CE000BFFFF78CFDC11B494502D903206E
:1010F000BDE8F087606810F00C0FF3D1D8F800104D
:10110000404601F00701B1420BD9016821F0070107
:1011100031430160006800F00700B04201D00120B7
:10112000E6E72878400705D56068E96820F4E060C4
:10113000084360602878000706D56068296920F4B4
:10114000605040EAC100606000F036F86168084A0B
:10115000C1F30311515CC840064908600020FFF745
:10116000D9FE0020C4E70000002002400010024029
:101170006C4500084400002004480549006849689F
:10118000044AC1F30221515CC8407047440000206A
:10119000001002407C450008044805490068496881
:1011A000044AC1F3C221515CC8407047440000208A
:1011B000001002407C45000812A185B00FC98DE8DF
:1011C0000F0014A0144A006804905168134801F0FD
:1011D0000C03042B10D0082B0ED1C1F38343C90399
:1011E0001DF803000AD5516804AAC1F34041515CBF
:1011F0000A4A5043B0FBF1F005B070470849484334
:10120000FAE7000002030405060708090A0B0C0DA3
:101210000E0F1010010200000010024000127A00B0
:1012200000093D002DE9F84F04460078B94DC0078C
:1012300048D06868C0F38100012807D06868C0F30F
:101240008100022809D16868C00306D52868800398
:1012500038D5606800286FD034E06068B0F5803F12
:101260000BD010B1B0F5A02F11D0286820F4803039
:101270002860286820F4802002E0286840F480304C
:101280002860606888B1FFF7BBFC064609E0286863
:1012900040F480202860F0E7FFF7B2FC801B642850
:1012A00075D828688003F7D50CE0FFF7A9FC06463F
:1012B00005E000BFFFF7A4FC801B6428F0D8286875
:1012C0008003F7D42078944E80074FF001094FF047
:1012D00000083BD5686810F00C0F07D06868C0F3B1
:1012E0008100022809D16868C00306D428688007F5
:1012F00014D5206901281FD110E02069B0B1C6F8CB
:101300000090FFF77DFC074605E000BFFFF778FC83
:10131000C01B0228C4D828688007F7D528686169EF
:1013200020F0F80040EAC10028600FE0C6F8008015
:10133000FFF766FC074606E0E9E000BFFFF760FC48
:10134000C01B022823D828688007F7D4207800071C
:101350002CD57248A169D9B1C0F80090FFF750FCB4
:10136000074604E0FFF74CFCC01B02280FD8686A50
:101370008007F7D56A484FF4FA510068B0FBF1F0E6
:10138000009000BF0098411E0091FAD20EE080E06C
:10139000C0F80080FFF734FC074604E0FFF730FC9C
:1013A000C01B022875D8686A8007F7D420784007E8
:1013B00060D5E8690027C00008D4E86940F0805093
:1013C000E861E869012700F0805000905548016805
:1013D000C90513D40168834641F480710160FFF7A9
:1013E0000FFC824606E000BFFFF70AFCA0EB0A00F4
:1013F00064284ED8DBF80000C005F5D5E068012868
:101400000AD008B1052813D0286A20F0010028620C
:10141000286A20F0040002E0286A40F001002862F7
:10142000E06841F2883B98B1FFF7EAFB82460BE0A7
:10143000286A40F004002862EEE700BFFFF7E0FBF7
:10144000A0EB0A0159455AD8286A8007F6D50CE066
:10145000FFF7D6FB824605E0FFF7D2FBA0EB0A01BF
:1014600059454CD8286A8007F6D41FB1E86920F0A6
:101470008050E861E06988B36968C1F3810102299D
:1014800045D00228C6F8608004D0FFF7B9FB0446B7
:1014900038E034E0FFF7B4FB074604E0FFF7B0FBA9
:1014A000C01B02282BD828688001F7D4206AB0F529
:1014B000803F05D16868A16820F400300843686067
:1014C000D4E908010843696821F47411084368608D
:1014D000C6F86090FFF794FB044606E015E000BFF5
:1014E000FFF78EFB001B022809D828688001F7D57A
:1014F0000BE000BFFFF784FB001B022802D903208A
:10150000BDE8F88F28688001F4D40020F8E70120B6
:10151000F6E7000000100240000042428004424210
:10152000440000200070004010B5401EB0F1807FE4
:1015300001D3012010BD4FF0E02460610F2160173E
:1015400000F050FD0020A06107202061002010BDA8
:101550007047704730B590F83C20012A20D0012216
:1015600080F83C20022380F83D3003685C6824F05A
:1015700070045C6003685C680D682C435C60036801
:101580009C6824F080049C6003689C6849680C4354
:101590009C6080F83D20002180F83C10084630BD5A
:1015A000022030BD10B5040003D094F83D0010B106
:1015B00007E0012010BD002084F83C00204600F028
:1015C0000DF8022084F83D00211D206800F070FD18
:1015D000012084F83D00002010BD000008B500681F
:1015E000B0F1804F12D10A48C16941F00101C161D7
:1015F000C069002200F00100009011461C20FFF796
:10160000D3FCBDE808401C20FFF7C2BC08BD0000A9
:10161000001002400168CA6842F00102CA60006816
:10162000016841F0010101600020704770B5044677
:1016300090F83C00012817D0012584F83C50022086
:1016400084F83D002068826822F0770222F47F420D
:1016500082600868502837D00DDC202859D005DC7E
:1016600088B3102841D151E0022070BD302853D0FA
:1016700040283AD13FE060282ED070280BD0B0F53A
:10168000805F03D0B0F5005F2FD110E02068816843
:1016900021F0070115E0CB68D1E90121206800F0B5
:1016A0003DFD2168886840F0770088601DE0CB68C8
:1016B000D1E90121206800F031FD2068816841F402
:1016C0008041816011E01EE0CA684968206800F02E
:1016D00037FD5021206806E0CA684968206800F09C
:1016E00040FD6021206800F023FD84F83D5000207B
:1016F00084F83C0070BDCA684968206800F020FD8D
:1017000040212068EFE700212068ECE710212068E5
:10171000E9E720212068E6E730212068E3E7704709
:1017200070B50446006801694FF00005C943890798
:1017300015D4C168C943890711D4E91E016101208C
:101740002077206880698007204602D0FFF7E7FFF6
:1017500004E000F098F8204600F096F8257720681D
:101760000169C943490717D4C168C943490713D45C
:101770006FF004010161022020772068806910F475
:10178000407F204602D0FFF7CAFF04E000F07BF85C
:10179000204600F079F8257720680169C9430907D8
:1017A00016D4C168C943090712D46FF0080101615A
:1017B000042020772068C0698007204602D0FFF708
:1017C000AEFF04E000F05FF8204600F05DF82577FA
:1017D00020680169C943C90617D4C168C943C9064D
:1017E00013D46FF010010161082020772068C069D0
:1017F00010F4407F204602D0FFF791FF04E000F094
:1018000042F8204600F040F8257720680169C94376
:10181000C90708D1C168C943C90704D1891E01613C
:10182000204600F032F820680169C943090609D44E
:10183000C168C943090605D46FF0800101612046E3
:10184000FFF786FE20680169C943490609D4C168CB
:10185000C943490605D46FF040010161204600F0FC
:1018600015F820680169C94389060BD4C168C943CA
:10187000890607D46FF0200101612046BDE8704061
:10188000FFF767BE70BD704770477047704770477D
:1018900070B5026804461068D168536910F00F0FE4
:1018A00050D003F0010501F4907635435DD0C207B6
:1018B00005D0CA0503D5E26B42F00102E26342079C
:1018C00005D5DA0703D0E26B42F00202E263820739
:1018D00005D5DA0703D0E26B42F00402E2630207A7
:1018E00005D5DA0703D0E26B42F00802E263E26B4F
:1018F000002A33D0800604D5880602D5204600F0A1
:1019000058FC20684069E16BC0F38010090700D4DF
:1019100028B3204600F03FFC2068416949061AD5EB
:10192000416921F040014161606BA0B11B494163F5
:10193000606BFEF769FF002810D0606B416BBDE85B
:1019400070400847830610D58B060ED52046BDE8AB
:10195000704000F02EBC2046FFF799FF70BD204676
:10196000FFF795FF0020E06370BD030606D50B0668
:1019700004D52046BDE8704000F01EBD4006F3D5FA
:101980004806F1D5D168204621F04001D1602021E0
:1019900084F8391000F05CF970BD00008721000860
:1019A00070B5040004D094F83900002510B106E0A9
:1019B000012070BD84F83850204600F023F8242020
:1019C00084F839002068C16821F40051C1602046C4
:1019D00000F03AFC2068016921F49041016120681F
:1019E000416921F02A0141612068C16841F4005138
:1019F000C160E563202084F8390084F83A000020B3
:101A000070BD000070B586B000240094019402946B
:101A100003942E4E03682E49022003222D4DB3421B
:101A200026D18B6943F480438B618B6903F4804337
:101A300004938B6943F004038B618969039201F07D
:101A4000040104910102CDE9001069462846FEF721
:101A5000EBFF2815CDE90004694628460294FEF7FD
:101A6000E3FF002211462520FFF79EFA252028E0FB
:101A7000194EB34227D1CB6943F40033CB61CB6914
:101A800003F4003304938B6943F004038B61896989
:101A9000039201F0040104910421CDE9001069468C
:101AA0002846FEF7C1FF0820CDE900046946284614
:101AB0000294FEF7B9FF002211462620FFF774FAC0
:101AC0002620FFF765FA06B070BD0000003801401F
:101AD0000010024000080140004400402DE9F84396
:101AE000044690F83A00994616460D4620284FD1F4
:101AF00095B18EB194F83800012849D0012084F8BE
:101B000038000027E763222084F83A00FFF778F8CE
:101B1000A6858046E68531E00120BDE8F883E08DAA
:101B2000401EE085A0684346B0F5805F4FF000029C
:101B30004FF020012046CDF8009004D000F06DFC5D
:101B400098B10320E9E700F068FC0028F9D120698A
:101B500000282068406803D0C1B225F8011B0DE0C1
:101B6000C0F3080125F8021B08E02069002820685E
:101B7000406801D000F07F0005F8010BE08D0028DF
:101B8000CDD1202084F83A0084F838700020C4E7D2
:101B90000220C2E770472DE9F843044690F8390067
:101BA0001F4616460D46202850D1A5B19EB194F887
:101BB000380001284AD0012084F838004FF000088E
:101BC000C4F83C80212084F83900FFF719F8A68476
:101BD0008146E68426E00120BDE8F883E08C401EC3
:101BE000E084A0684B46B0F5805F4FF000024FF0F4
:101BF00080012046009703D000F00FFCE8B90DE00B
:101C000000F00BFCC8B928882168C0F308004860C0
:101C1000206908B16D1C05E0AD1C03E0216815F8D2
:101C2000010B4860E08C0028D8D14B4600224021AF
:101C30002046009700F0F1FB08B10320CCE72020FC
:101C400084F8390084F838800020C5E70220C3E713
:101C50007047FEE701684A69D24352050CD46FF41D
:101C600080624A6104210164002140F8301F202273
:101C7000427301730120704700207047F8B5044695
:101C8000C06A1E460D461746042807D0012805D015
:101C900010F5803F02D0206B122804D12068016823
:101CA00041F480710160134600224FF0011120467B
:101CB000009600F054F8A0B92069B0F5804F12D01A
:101CC0000620216800EAD51040F0F0000861334694
:101CD0003A460E49204600F073F838B1206C0428CB
:101CE00011D00320F8BD05F0FE0000E0E8B2216845
:101CF0000861064933463A46891F204600F060F8DD
:101D00000028EBD1F8BD0120F8BD0000080001005B
:101D100070B516460D4604461AE02046FFF79AFFB6
:101D200008B1012070BD681C12D025B1FEF768FF14
:101D3000801BA8420CD954F8400F40F0200044F812
:101D4000100900202060202161732073032070BDE2
:101D500020684069C0434007DFD4002070BD2DE9F2
:101D6000F0471E4690460D460446C1F30747DDF88E
:101D7000209012E0701C10D02EB1FEF741FFA0EBB6
:101D80000900B04209D9002044F8300F20216173C6
:101D9000A07320730320BDE8F0872068012F0AD0CC
:101DA000806925EA00000004000C06D000214145AE
:101DB000E0D00020EFE74069F3E70121F7E70000FA
:101DC0002DE9F0479A4691460D46044600264FF00D
:101DD0002008C1F307472AE020684069C043400556
:101DE00012D42068016841F40071016021686FF429
:101DF0008060486104202064266384F83D8084F874
:101E00003C600120BDE8F087B9F1FF3F0FD0B9F188
:101E1000000F05D0FEF7F4FEA0EB0A01494506D9F4
:101E200044F8306F84F80D8026730320EAE72068B9
:101E3000012F07D0D0F8180025EA00000004000C9C
:101E4000E0D0C9E74069F7E770B516460D4604468D
:101E50001AE02046FFF7FEFE08B1012070BD681CA5
:101E600012D025B1FEF7CCFE801BA8420CD954F845
:101E7000400F40F0200044F810090020206020218D
:101E800061732073032070BD20684069C043000661
:101E9000DFD4002070BD00002DE9F04186B00024A1
:101EA00028480094019402940394816941F0100140
:101EB0008161816901F010010491816941F0200183
:101EC0008161816901F020010491816941F004017F
:101ED0008161816901F004010491816941F0080187
:101EE00081618069184F00F008004FF4005504909C
:101EF000002229463846FEF77EFEDFF85080002299
:101F0000F0214046FEF777FE009502260125039654
:101F1000CDE9015469463846FEF786FDF020CDE94B
:101F20000005CDE9024669464046FEF77DFD40F6D4
:101F300033408DE8310069460548FEF775FD06B06F
:101F4000BDE8F0810010024000100140000801408F
:101F5000000C014010B586B0002412480094019492
:101F60000294039404944FF08041059401604FF46F
:101F7000E151C0E9011444F61F61C0E90314802156
:101F80008161FFF70FFB4FF48050009069460548D0
:101F9000FFF74CFB049404A902480594FFF7DAFA12
:101FA00006B010BDF00000200C4810B50A490160D1
:101FB0004FF461414160002181600C22C160C0E9A1
:101FC00004128161C161FFF7EBFC002803D0BDE87A
:101FD0001040FEF769BB10BD003801405C000020D6
:101FE000FEE770470907090E002806DA00F00F0027
:101FF00000F1E02080F8141D704700F1E02080F827
:102000000014704770477047FEF76ABF30B58FB055
:1020100028216846FEF79FF814210AA8FEF79BF8CE
:1020200001210804CDE90010002402940225049146
:10203000CDE907504FF4E01009906846FFF7F2F839
:102040000F20CDE90A056802CDE90C4002210AA85B
:102050000E94FEF7DBFF0FB030BD00000D480168A5
:1020600041F00101016041680B4A11404160016883
:102070000A4A11400160016821F480210160416831
:1020800021F4FE0141604FF41F0181600449C00347
:1020900008607047001002400000FFF8FFFFF6FEE6
:1020A00008ED00E00148FFF73BBB0000F000002016
:1020B000F0B50268164B174C174D4FF08047984209
:1020C00005D0B84203D0A04201D0A84203D122F0EB
:1020D00070064A683243984205D0B84203D0A04205
:1020E00001D0A84203D122F44074CA68224322F0EE
:1020F00080044A69224302608A68C2620A68826276
:10210000984201D10969016301214161F0BD0000DC
:10211000002C0140000400400008004010B5846815
:1021200042EA032224F47F440A432243826010BD22
:10213000826822F070020A4342F007018160704712
:1021400010B5036A046A24F001040462846924F06F
:10215000F00444EA021423F00A020A438461026292
:1021600010BD10B5036A23F0100303628369046A8B
:1021700023F4704343EA023224F0A00343EA01113E
:102180008261016210BD10B5406A0021C185C18421
:10219000FFF77DFB10BD0168CA6822F49072CA6027
:1021A00001684A6922F001024A61202180F83A1050
:1021B000704710B590F83A10222901D0022010BDC6
:1021C0008168B1F5805F11D00169002901681FD0D5
:1021D000496801F07F03816A4A1C82620B70C18DDD
:1021E000491E0904090CC18518D02BE00269816AD7
:1021F000002A0268526805D0D2B20A80816A491C5E
:102200008162ECE7C2F308020A80816A891CF7E761
:102210004A68816A4B1C83620A70E0E70168CA68F9
:1022200022F02002CA600168CA6822F48072CA6083
:1022300001684A6922F001024A61202180F83A10BF
:10224000FFF7A8FC002010BD2DE9F041044600680E
:102250000169E26821F44051114301612169A068DC
:102260000843616908432168CA6841F20C639A43D4
:102270000243CA6020684169A26921F44071114398
:1022800041614C4920686425322688423CD1FEF7E2
:1022900083FF00EBC00101EB001061688900B0FB17
:1022A000F1F7FEF779FF00EBC00101EB0010616868
:1022B000B0468900B0FBF1F0B0FBF5F06FF018010B
:1022C000484307EB800106EB0110B0FBF5F000F08E
:1022D000F006FEF761FF00EBC00101EB0010616842
:1022E0008900B0FBF1F0B0FBF5F006EB0016FEF74D
:1022F00053FF00EBC00101EB001061688900B0FBE7
:10230000F1F7FEF749FF3BE0FEF736FF00EBC001B7
:1023100001EB001061688900B0FBF1F7FEF72CFFBC
:1023200000EBC00101EB00106168B0468900B0FB12
:10233000F1F0B0FBF5F06FF01801484307EB8001B6
:1023400006EB0110B0FBF5F000F0F006FEF714FF0D
:1023500000EBC00101EB001061688900B0FBF1F0F7
:10236000B0FBF5F006EB0016FEF706FF00EBC00130
:1023700001EB001061688900B0FBF1F7FEF7FCFE8D
:1023800000EBC00101EB001061688900B0FBF1F0C7
:10239000B0FBF5F06FF01801484307EB800108EB44
:1023A0000110B0FBF5F0216800F00F0030448860A8
:1023B000BDE8F0810038014090F83910212901D0A2
:1023C000022070478168B1F5805F016A0BD04A1C1A
:1023D0000262026809785160C18C491E0904090C27
:1023E000C1840ED017E009880268C1F3080151606A
:1023F00001690029016A02D0491C0162ECE7891CCD
:10240000FBE70168CA6822F08002CA600068C16800
:1024100041F04001C160002070472DE9F04198462D
:1024200017460E460446069D1DE0681C1BD02DB1C4
:10243000FEF7E6FBA0EB0800A84214D92068C168AB
:1024400021F4D071C1602068416921F0010141612E
:10245000202084F8390084F83A00002084F83800FD
:102460000320BDE8F0812068006836EA000004D04F
:102470000020B842D9D00020F3E70120F9E700009E
:102480000148FFF705BA00005C0000200148FFF793
:10249000FFB9000030010020FEE700000FB4084B38
:1024A00010B504A902AA039800F0DEF8044602A9B8
:1024B000002000F05CFC204610BC5DF814FB00001E
:1024C0006F2D000802E008C8121F08C1002AFAD1C7
:1024D00070477047002001E001C1121F002AFBD1A4
:1024E000704700002DE9FF5F82B00021DDE9043074
:1024F000020DDDF840B0034318D044F61050A2F2AC
:10250000FF3242431514119801281FD0A5EB0B0090
:10251000401C5FEA000A4FF000064E4FDFF838918A
:10252000B046504615D5CAF1000413E011980124B5
:102530004AA3012801D16FEA0B010298119AC0E960
:102540000031C0E9024206B0BDE8F09FCBF10000C7
:10255000DFE704460021404A491842EB0450CDE928
:10256000001012E0E00707D032463B46404649469D
:10257000FDF78DFF8046894632463B461046194698
:10258000FDF785FF06460F466410002CEAD1DDE911
:102590000401DDE90023BAF1000F06DAFDF777FF49
:1025A00042464B46FDF773FF05E0FDF7E2FF42466A
:1025B0004B46FDF7DEFF04460E460022284BFDF792
:1025C00089FE03D84FF0FF30014607E00022254B7B
:1025D00020463146FDF7D6FDFEF73AF8102409E013
:1025E000002C0ADB0A220023FDF7A2FE039B3032F7
:1025F0001A55641E50EA0102F2D1641C039AC4F118
:1026000011031444119A012A03D0012208430DD169
:102610000AE0084304D000204FF0110B119072E73C
:10262000A3EB0B056D1E0DE05B4504DD4FF00002D2
:1026300005F1010504E003DA4FF00002A5F1010500
:10264000002AECD002981199C0E90231C0E9004596
:1026500079E70000000014400000F03F3000000067
:102660000000F0430000E03F2DE9FF4F95B09A468F
:10267000884606460025EEE1252877D10024274626
:10268000F94A0121039400E0044316F8013F203B7E
:1026900001FA03F01042F7D130782A2811D06FF0F8
:1026A0002F033078A0F13002092A16D8039A44F09B
:1026B000020402EB820203EB42021044761C0390F8
:1026C000EFE758F8042B0392002A03DA504244F44F
:1026D0000054039044F00204761C30782E2816D162
:1026E00016F8010F44F004042A280DD06FF02F02D1
:1026F0003078A0F13003092B09D807EB870302EBF0
:102700004303C718761CF3E758F8047B761C30782F
:102710006C280FD006DC4C2817D068280DD06A280A
:1027200014D104E0742810D07A280FD10DE044F4BD
:1027300000140AE044F4801401E044F44014727878
:10274000824202D104F58014761C761C307866280B
:102750000BD013DC582877D009DC002875D0452829
:10276000F6D04628F4D047281AD193E118E0632820
:1027700035D0642879D0652812D18BE1702873D0C8
:1027800008DC6728F1D069286FD06E280DD06F283B
:1027900006D1ACE073282CD0752874D0782853D09B
:1027A0005246179990476D1C54E1C4F30250022819
:1027B00009D003280DD0D8F8001004280DD00D60E2
:1027C00008F1040846E1D8F80010EA17C1E9005200
:1027D000F6E7D8F800100D80F2E70D70F0E718F872
:1027E000041B8DF8001000208DF80100EB4601203D
:1027F00003E058F804BB4FF0FF3061074FF00001D1
:1028000002D40DE009F101018946B9420FDA814590
:10281000F8DB1BF809100029F4D108E009F10101E7
:1028200089468142FADB1BF809100029F6D103988A
:102830005346A0EB090721463846179A00F080FA64
:10284000284400EB090507E044E008E10DE01BF82F
:10285000010B524617999047B9F10109F7D2534637
:1028600021463846179AF2E039E00A21C4F30252B1
:102870004FF0000B0091022A06D058F8040BC11744
:10288000032A09D00AE023E008F1070020F007023C
:10289000F2E80201904605E000B2C117042A01D116
:1028A00040B2C117002906DA0A460021404261EB16
:1028B00002012D2202E0220504D52B228DF80420EE
:1028C000012203E0E20701D02022F7E7914657E01A
:1028D0000A2100E010214FF0000B00910BE01021C5
:1028E0004FF0000B44F004040827009103E0082097
:1028F0004FF0000B0090C4F30252022A05D058F8A2
:10290000040B0021032A08D008E008F1070020F09A
:102910000702F2E80201904603E080B2042A00D1E7
:10292000C0B24FF0000922072AD53278702A07D0AA
:10293000DDF800C08CF0100C5CEA0B0C05D00EE04A
:1029400040228DF80420012208E050EA010306D05D
:1029500030238DF804308DF8052002229146009B2B
:1029600083F0080353EA0B030AD150EA010201D1B4
:10297000620705D530228DF804204FF001097F1E33
:102980003278582A04D039A20C920CAA02920BE099
:102990003BA2F9E75B46009AFDF7CAFC0C9B9B5CE7
:1029A000029A521E0292137050EA0102F2D102986A
:1029B00004A9081A00F1200B600702D524F4803422
:1029C00000E001275F4502DDA7EB0B0000E00020DF
:1029D00000EB0B01009003984944401A0390E00378
:1029E00006D453462146179A039800F0A9F90544E6
:1029F000002706E001A85246C05D179990476D1C5C
:102A00007F1C4F45F6DBE0030CD553462146179A51
:102A1000039800F095F9054404E0302052461799D8
:102A200090476D1C0099481E00900029F5DC08E0D5
:102A30000298029952460078491C029117999047D2
:102A40006D1CBBF10001ABF1010BF1DC5BE100F0AF
:102A500065F90544761C307800287FF40DAE19B076
:102A60002846BDE8F08F00000928010030313233DC
:102A700034353637383961626364656600000000BA
:102A800030313233343536373839414243444546A4
:102A900000000000600700D4062708F1070020F0BE
:102AA0000700F0E80223804603F0004C5FEA0C00C8
:102AB00001D097A009E0200501D596A005E0E00728
:102AC00001D095A001E0AFF24C001390307823F0D4
:102AD000004365280CD006DC452809D046281DD0C7
:102AE00047287FD13BE0662818D067287AD136E0A6
:102AF0000021112F01DB112000E0781CCDE900013D
:102B000004A90CA8FFF7EEFCDDE90D010C9A4FF0CB
:102B1000000B07F10109109200914EE04FF00040C8
:102B20000097CDE9011004A90CA8FFF7DBFCDDE953
:102B30000D020C9B0F994FF0000B914610930092E1
:102B400011B9791C00EB0109B7EB090003D4C0F1FE
:102B5000FF3B07F10109A9EB0700019042E0012FBB
:102B600000DA01270021112F01DD112000E0384695
:102B7000CDE9000104A90CA8FFF7B4FCDDE90D01C3
:102B80000C9A00914FF0000BB946109221070FD418
:102B9000009A4A4503DA914601E0A9F10109B9F129
:102BA000010F05DD109AA9F10101515C3029F4D023
:102BB000B84202DA10F1040F03DA0121CDE9011065
:102BC00010E0002803DC8344A9EB000102E0411C73
:102BD000494500DD8946A0EB0B00401C01904FF0F9
:102BE00000400290200705D40198484502DB4FF0D1
:102BF000FF30019000208DF84B0002980DF14B073B
:102C0000B0F1004F25D002200C902B200D9002989F
:102C100000280CDA404202902D200D9007E00A2196
:102C20000298FDF76FFB3031029007F8011D0C99F7
:102C3000481E0C900029F2DC02980028EFD1791E82
:102C40000D980870307800F0200040F0450007F83B
:102C5000020D11A8C01BC01D02901398007800B18E
:102C6000012000EB0901019801EBE0710298014499
:102C70000398401A401E0390E00306D453462146B1
:102C8000179A039800F05CF805441398007818B17F
:102C90005246179990476D1CE00323D553462146B1
:102CA000179A039800F04CF805441BE0BBF1000FA5
:102CB00007DB0098584504DD1098179910F80B00B1
:102CC00001E0179930205246904701980BF1010B13
:102CD000401E05F10105019004D12E20524617999E
:102CE00090476D1CB9F10001A9F10109DEDC05E096
:102CF00017F8010B5246179990476D1C0299481E10
:102D000002900029F4DC53462146179A03989EE668
:102D10002D0000002B000000200000002DE9F041F4
:102D2000044600251E461746880404D405E03946AB
:102D30002020B0476D1C641EF9D52846BDE8F081FF
:102D40002DE9F041044600251E469046C80301D5F2
:102D5000302700E02027880404D505E041463846A6
:102D6000B0476D1C641EF9D52846BDE8F0810A689D
:102D7000531C0B601070704708B50CA06B460068C0
:102D800000900B4803220121806801F01BFA0948DA
:102D900000F09CF90749012805D00878072802D0DF
:102DA0004FF0FF3008BD91F9010008BD050000009B
:102DB00000000020480000201CB510A26B46D2E99C
:102DC0000012CDE90012010A8DF801108DF8020001
:102DD0000C4807220121806801F0F4F90A4800F04C
:102DE00075F90949012805D00878072802D04FF065
:102DF000FF301CBD91F901001CBD00000C0000005B
:102E000001000000000000204800002008B50CA0D0
:102E10006B46006800900B4803220121806801F096
:102E2000D1F9094800F052F90749012805D008787E
:102E3000072802D04FF0FF3008BD91F9010008BD0E
:102E40000D00000000000020480000202DE9F047A0
:102E50004FF40057DFF8D480354D8146BC1000BFD9
:102E600000F014F9064621462846FDF7BBFE00286F
:102E70003CD0002EF4D1012000F072F90028314638
:102E80004FF0010003D000F0D5F92AA047E000F090
:102E9000D1F92EA000F01AFA4FF47A70FDF700FD78
:102EA00000F0F4F8064621462846FDF79BFEE8B1FF
:102EB000022EF5D10021012000F0BCF928A000F07D
:102EC00005FA264600F0E2F8044631462846FDF7AA
:102ED00089FE58B1002CF5D1022000F041F960B113
:102EE0000021012000F0A6F922A018E03946404652
:102EF000FDF77DFE6320BDE8F087FFF73DFF28B1B9
:102F00000021012000F096F91DA008E0484600F0DD
:102F100073FF40B10021012000F08CF91DA000F0EA
:102F2000D5F90020E7E70120E5E7000000100140A7
:102F3000000C0140202020204C4F492054414F20BC
:102F40004B49205455202020202000002044414E91
:102F50004720434150545552454420202000000052
:102F6000202020204C5555204C414E20312020203F
:102F700020000000202020204C4F4920202000006D
:102F800020204C4F49204B48492054414F204D416F
:102F900055200000202020204641494C4544202057
:102FA000202020007CB515A1164CD1E90001CDE907
:102FB00000014FF6FF75258065806B4608220121D0
:102FC000A06801F0FFF8104800F080F80E490128D1
:102FD00005D00878072802D04FF0FF307CBD8878F4
:102FE000CA7805EA00200243228008794A7905EA76
:102FF00000200243628091F901007CBD1B010000AA
:1030000000A3000000000020480000202DE9F0414E
:10301000174F4FF0FF354FF4006600BF00F036F851
:10302000044631463846FDF7DDFD78B1002CF5D178
:10303000012000F095F890B100F0B4F800210120D3
:1030400000F0F8F80BA000F041F90BE04FF400514C
:103050000C48FDF7CCFD40F2E730BDE8F081FFF70A
:10306000A1FF08B12846F8E707480088F5E7000007
:10307000000C01404C4F492054414F204B492054F3
:1030800055000000001001400000002008B50CA011
:103090006B46006800900B4803220121806801F014
:1030A00091F8094800F012F80749012805D008787E
:1030B000072802D04FF0FF3008BD91F9010008BD8C
:1030C0000100000000000020480000202DE9F0432E
:1030D00085B0224F064600244FF4FA694FF6FF7878
:1030E0004FEA0D0597F83A002028FBD129194B46E5
:1030F00001221A48FEF7F2FC1CB99DF80000EF28E7
:10310000F0D1641CE4B2092CECD39DF80000EF2848
:1031100003D19DF80100012803D0FE2005B0BDE8D1
:10312000F0839DF807009DF8061008EA00229DF83C
:1031300008001043801E80B200F10A029442D1D9E7
:103140003170002105E06A187318527A491C5A70D0
:10315000C9B28142F7D3C0B2E0E700005C000020B2
:1031600008B50DA16B46096800918DF801000B4868
:1031700004220121806801F025F80948FFF7A6FF25
:103180000749012805D00878072802D04FF0FF3002
:1031900008BD91F9010008BD0200000000000020F8
:1031A0004800002010B5802000F050F800242020B6
:1031B00000F06CF8641C462CF9DB10BD10B5322011
:1031C000FDF76EFB302000F041F80520FDF768FBAD
:1031D000302000F03BF80120FDF762FB302000F0CA
:1031E00035F80A20FDF75CFB202000F02FF80A20BC
:1031F000FDF756FB282000F029F80120FDF750FBD1
:10320000082000F023F80120FDF74AFB012000F020
:103210001DF80120FDF744FB0120FDF741FB0620CE
:1032200000F014F80120FDF73BFBBDE810400C2036
:1032300000F00CB810B1012805D102E041F0800186
:1032400001E041F0C001C8B2AFF300801CB500F04E
:10325000F00141F00C028DF8042041F0080100015A
:103260008DF8051040F00C018DF8061040F00800B4
:103270008DF8070064200090042301AA4E21024823
:10328000FDF764FD1CBD00009C0000201CB500F093
:10329000F00141F00D028DF8042041F00901000118
:1032A0008DF8051040F00D018DF8061040F0090072
:1032B0008DF8070064200090042301AA4E210248E3
:1032C000FDF744FD1CBD00009C00002010B5044625
:1032D00002E0641CFFF7DAFF20780028F9D110BD66
:1032E00088B0FDF705FEFEF791FEFEF7D5FD4748D5
:1032F0004549002501604649C0E901154FF4804168
:10330000C0E9035145618561C5610562FDF77EFC39
:103310003E484049943001604FF4E131C0E9011565
:103320000C21C560C0E904518561C561FEF738FB19
:10333000FEF73AFEFEF70EFE34485430FEF76AF907
:10334000FFF73CFF00210846FFF774FF32A0FFF7AC
:10335000BDFF40F6B830FDF7A3FAFFF723FF334C6B
:10336000012210212046FDF746FC012220212046A3
:10337000FDF741FC012240212046FDF73CFC0122E3
:1033800080212046FDF737FC294C00210846656264
:10339000FFF750FF20216846FCF7DDFE00F076FBCA
:1033A0006069012817D002281BD003281FD00428E9
:1033B00023D00528F2D1A0780028EFD0FFF7F2FE45
:1033C00000210846FFF736FF1AA0FFF77FFFA0781D
:1033D0000028FDD1E2E7A0780028DFD000F032FD20
:1033E000DCE7A0780028D9D000F070FFD6E7A078FD
:1033F0000028D3D001F052F8D0E7A0780028CDD033
:1034000000F02AFECAE70000005400409C000020A3
:10341000A086010000440040444F20414E20544FFC
:1034200054204E4748494550000000000008014024
:103430000C0000203E0000002DE9F05FDFF8F4B33F
:103440008146002210215846FDF7D5FBDFF8E883BE
:1034500001214046FDF7C6FBF84EF94C4FF480675A
:10346000002558B139464046FDF7BCFB78B3022130
:103470004046FDF7B7FB002861D09CE04FF0310AD1
:103480000A20C4F828A0FDF70BFAD4E90310FFF7CF
:10349000D1FE616A94F828007054FFF7F7FEA06A25
:1034A000401EA062202801D1C4F828A00121404676
:1034B000FDF798FB0028F9D0606A401CC4E9085069
:1034C000E068401CE060A068FDF7EAF973E0FFE700
:1034D0004FF0410A0A20C4F828A0FDF7E1F9284678
:1034E000256228E039464046FDF77CFB00BBD4E965
:1034F0000310FFF79FFE626A94F82800B054FFF7AC
:10350000C5FEA06A401CA062442802D0332803D024
:1035100004E03220A06201E0C4F828A03946404609
:10352000FDF760FB0028F9D02562A068FDF7B8F927
:10353000206A401C206261688842D3DB35E04FF08E
:10354000440A0A20C4F828A0FDF7AAF928462562F3
:1035500028E002214046FDF745FB00BBD4E90310FB
:10356000FFF768FE616A94F828007054FFF78EFE3A
:10357000A06A401CA062472802D0342803D004E08F
:103580003320A06201E0C4F828A002214046FDF7E4
:1035900029FB0028F9D02562A068FDF781F9206A8F
:1035A000401C206261688842D3DB606A401C606214
:1035B000E068401CE06001221021DA465846FDF721
:1035C0001AFB002220215046FDF715FB0121404641
:1035D000FDF708FB50B139464046FDF703FBE0B369
:1035E00002214046FDF7FEFAC0B3ABE04FF0470BB7
:1035F0000A20C4F828B0FDF753F92846256228E0D0
:1036000001214046FDF7EEFA00BBD4E90310FFF7B5
:1036100011FE616A94F828007054FFF737FEA06A23
:10362000401CA0624A2802D0352803D004E0342090
:10363000A06201E0C4F828B001214046FDF7D2FAAB
:103640000028F9D02562A068FDF72AF9206A401CFD
:10365000206261688842D3DB6EE000E036E04FF024
:103660004A0B0A20C4F828B0FDF71AF9284625624B
:1036700028E039464046FDF7B5FA00BBD4E903100F
:10368000FFF7D8FD626A94F82800B054FFF7FEFDFA
:10369000A06A401CA0624D2802D0362803D004E066
:1036A0003520A06201E0C4F828B039464046FDF755
:1036B00099FA0028F9D02562A068FDF7F1F8206A90
:1036C000401C206261688842D3DB35E04FF04D0B2F
:1036D0000A20C4F828B0FDF7E3F82846256228E060
:1036E00002214046FDF77EFA00BBD4E90310FFF744
:1036F000A1FD616A94F828007054FFF7C7FDA06A25
:10370000401CA062502802D0372803D004E03620A5
:10371000A06201E0C4F828B002214046FDF762FA39
:103720000028F9D02562A068FDF7BAF8206A401C8D
:10373000206261688842D3DB606A401C6062E06896
:10374000401CE060012220215046FDF754FA00227F
:1037500040215046FDF74FFA01214046FDF742FA5D
:1037600050B139464046FDF73DFAE0B302214046EC
:10377000FDF738FAC0B3B4E04FF0500B0A20C4F89C
:1037800028B0FDF78DF82846256228E00121404643
:10379000FDF728FA00BBD4E90310FFF74BFD616A7F
:1037A00094F828007054FFF771FDA06A401CA062D5
:1037B000542802D0382803D004E03720A06201E06A
:1037C000C4F828B001214046FDF70CFA0028F9D0D2
:1037D0002562A068FDF764F8206A401C20626168D9
:1037E0008842D3DB77E000E03FE04FF0540B0A2043
:1037F000C4F828B0FDF754F82846256231E0394670
:103800004046FDF7EFF948BBD4E90310FFF712FD7E
:10381000626A94F82800B054FFF738FDA06A401C93
:10382000A062572802D039280CD00DE03820A062C1
:103830000AE0000000080140000C01407001002077
:103840000C000020C4F828B039464046FDF7CAF9FC
:103850000028F9D02562A068FDF722F8206A401CF4
:10386000206261688842CADB35E04FF0570B0A20BE
:10387000C4F828B0FDF714F82846256228E0022194
:103880004046FDF7AFF900BBD4E90310FFF7D2FCC7
:10389000616A94F828007054FFF7F8FCA06A401C95
:1038A000A0625B2802D03A2803D004E03920A0624D
:1038B00001E0C4F828B002214046FDF793F9002842
:1038C000F9D02562A068FCF7EBFF206A401C20625B
:1038D00061688842D3DB606A401C6062E068401C1B
:1038E000E06001224021D3465046FDF784F90022D2
:1038F00080215846FDF77FF901214046FDF772F916
:103900004FF0010A60B1B946394647464046FDF7D7
:1039100069F9E8B302213846FDF764F9C8B3A3E0BA
:10392000A57084F801A0FFF73DFC00210846FFF7D1
:1039300081FC53A0FFF7CAFC02210020FFF77AFCAC
:10394000002709E0F05DFFF7A1FC19F80700F15D21
:10395000084409F807007F1C606A8742F2DB4FF4D5
:103960007A70FCF79DFF002000213554401C1E2872
:10397000FADBE56025616162FFF714FCD4E903100E
:10398000FFF758FC3FA0FFF7A1FCE068401C01E0F6
:1039900009E03FE04646E06001213046FDF722F9AC
:1039A0000028F9D060E04FF030080A20C4F82880E1
:1039B000FCF776FF2846256222E049463846FDF7A7
:1039C00011F9D0B9D4E90310FFF734FC616A94F817
:1039D00028007054FFF75AFCA06A1038A062202813
:1039E00001DAC4F8288049463846FDF7FBF800287C
:1039F000F9D02562A068FCF753FF206A401C2062C2
:103A000061688842D9DB606A401C6062E068401CE3
:103A1000E06029E0606A08B1401E6062E06810B9A9
:103A20002169012902D0216921B105E01020C4E9F2
:103A3000030503E0012803D0012801DB401EE060FC
:103A400001462069FFF7F6FB0FA0FFF73FFCD4E922
:103A50000310FFF7EFFB02213846FDF7C3F80028FB
:103A6000F9D0A068FCF71CFFE0680F2801DDC4E96D
:103A7000035A5846BDE8F05F01228021FDF7BBB82C
:103A80003E3E00003E000000200000002DE9F05FF7
:103A90006E4E002210213046FDF7ADF8DFF8B091F0
:103AA000F51429464846FDF79DF8DFF8A8B16A4CA1
:103AB00001274FF4005A90B91420FCF7F1FE51464B
:103AC0005846FDF794F86069401C6061062800D1F3
:103AD000676129464846FDF785F80028F9D001229C
:103AE00010213046FDF787F8002220213046FDF7EF
:103AF00082F829464846FDF775F890B91420FCF77E
:103B0000CFFE51465846FDF772F8606900B967610B
:103B10006069401E606129464846FDF763F8002849
:103B2000F9D0B046012220214046FDF764F800227A
:103B300040213046FDF75FF829464E464846FDF7DE
:103B400051F878B91420FCF7ABFE51465846FDF702
:103B50004EF8A770FFF726FB29463046FDF742F8DE
:103B60000028F9D00122402147464046FDF743F89E
:103B7000002280213846FDF73EF829463046FDF701
:103B800031F860B91420FCF78BFE51465846FDF71A
:103B90002EF829463046FDF725F80028F9D00122F5
:103BA00080213846FDF727F86069012817D00228E0
:103BB00022D003282DD0042838D0052843D1002155
:103BC0000846FFF737FB25A0FFF780FB0021012007
:103BD000FFF730FB26A0BDE8F05FFFF777BB0021C1
:103BE0000846FFF727FB27A0FFF770FB0021012005
:103BF000FFF720FB28A0EEE700210846FFF71AFB9D
:103C00002AA0FFF763FB00210120FFF713FB2CA084
:103C1000E1E700210846FFF70DFB1FA0FFF756FB69
:103C200000210120FFF706FB2AA0D4E70021084667
:103C3000FFF700FB2CA0FFF749FB00210120FFF755
:103C4000F9FA2EA0C7E7BDE8F09F00000008014088
:103C5000000C0140001001400C0000207C202020BE
:103C60004449454D2044414E48202020200000007A
:103C70007C3E20204E4841502054454E202020209C
:103C8000200000007C3E205448454D2056414E20E7
:103C900054415920202000007C2020584F412056BC
:103CA000414E205441592020200000007C20205407
:103CB00048454D2056414E205441592020200000B7
:103CC0007C3E20584F412056414E205441592020DF
:103CD000200000007C3E20584F4120544F414E2090
:103CE000424F2020200000007C2020584F412054CB
:103CF0004F414E20424F2020200000007C3E2020DB
:103D00004449454D2044414E4820202020000000D9
:103D1000F0B597B00C4605461F461646502168463A
:103D2000FCF719FA00201490159016902A4623A14A
:103D300014A8FEF7B3FB224620A115A8FEF7AEFBA0
:103D400032461EA116A8FEF7A9FB1DA16846FCF786
:103D50000DFA14A96846FCF709FA1CA16846FCF79D
:103D600005FA1BA16846FCF701FA15A96846FCF79D
:103D7000FDF916A16846FCF7F9F918A16846FCF7A9
:103D8000F5F916A96846FCF7F1F910A16846FCF7A9
:103D9000EDF914A16846FCF7E9F939466846FCF7E5
:103DA000E5F913A16846FCF7E1F90A2350226946B8
:103DB0001048FDF7F0FE17B0F0BD000025640000CC
:103DC0007B224D6F6465223A22000000222C000005
:103DD0002241646D696E223A220000002249642269
:103DE0003A220000224E616D65223A220000000056
:103DF000227D0A003001002008B50FA16B4609683A
:103E00000091010A8DF802108DF803000B4806227C
:103E10000121806800F0D6F90948FFF757F90849F1
:103E2000012805D00878072802D04FF0FF3008BDE0
:103E300091F9010008BD000006020000000000200A
:103E4000480000202DE9F04788B0FFF7ABF90021CA
:103E50000846FFF7EFF95EA0FFF738FA00F082F9A5
:103E600001280AD1FFF7D2F85E4C40F2E73700256F
:103E7000A06128B1B8427CD1A57008B0BDE8F08738
:103E8000FFF790F900210846FFF7D4F956A0FFF795
:103E90001DFA4FF47A7A5046FCF702FDFFF782F9DB
:103EA00000210846FFF7C6F954A0FFF70FFA657026
:103EB00020216846FCF74FF9DFF8449100264FF4C3
:103EC00000686846FFF7B8FA41464846FCF78AFEA4
:103ED00020B160780028F4D046B166E04FF400517C
:103EE0004848FCF784FE012060705EE000F03AF97B
:103EF00001285AD1FFF78AF8411C02D0B84248D0B5
:103F000049E0414E3046FCF76EFCA061C0B2FEF7BE
:103F10009DFF632803D020B101280DD039E0A570A2
:103F200037E001210846FFF785F938A0FFF7CEF901
:103F30005046FCF7B5FC2CE001210846FFF77AF962
:103F400037A0FFF7C3F9A0690A2790FBF7F03030DC
:103F5000C0B2FFF79BF9A06990FBF7F107FB1100D6
:103F60003030C0B2FFF792F9227E207D6B46217877
:103F700000E01DE0FFF7CCFE5046FCF791FCA06985
:103F8000401CA0613046FCF71BFC3046A169FCF7E1
:103F90002CFCA57009E001210846FFF74BF924A08D
:103FA000FFF794F95046FCF77BFCFFF7FBF864E75A
:103FB000FFF7F8F800210846FFF73CF920A0FFF7CB
:103FC00085F908B04FF4FA60BDE8F047FCF768BC2B
:103FD0002020584143204E48414E2041444D494EF7
:103FE000202000000C00002020205448454D205681
:103FF000414E205441592020000000003E000000A6
:10400000000C01400010014000FC0008202020208E
:104010002020204C4F49202020202020000000009C
:104020005448454D204F4B2049443A2000000000A1
:104030002020444120544F4E20544149200000008C
:104040002020202020205341492041444D494E202A
:10405000202020200000000070B500F083F8012827
:104060000FD1FEF7D3FF254C411CA06109D0A0F56C
:104070004071E73903D04FF4FA6518B113E000201E
:10408000A07070BD00210846FFF7D4F81CA0FFF710
:104090001DF900210120FFF7CDF81EA0FFF716F94A
:1040A0002846FCF7FDFBA069012810D10021084635
:1040B000FFF7C0F812A0FFF709F900210120FFF770
:1040C000B9F819A0FFF702F92846FCF7E9FBA06947
:1040D0000328D6D100210846FFF7ACF817A0FFF758
:1040E000F5F800210120FFF7A5F819A0FFF7EEF879
:1040F0002846BDE87040FCF7D3BB00000C00002050
:10410000202020204449454D2044414E4820202075
:10411000200000002020464F554E442041444D4988
:104120004E202020202000002020464F554E4420C5
:104130004E474849412020202020000020202044D4
:1041400049454D2044414E482020202000000000D9
:104150002020464F554E44204D494E4820202020D7
:10416000200000001CB513A1144CD1E90001CDE9D9
:10417000000160688DF80400010E8DF80110010C3B
:104180008DF80210010A8DF803106B4607220121F9
:10419000A06800F017F80A48FEF798FF012805D13B
:1041A00007480178072901D1407808B100201CBDDB
:1041B00001201CBD130000000000000000000020D2
:1041C000480000202DE9FF418EB0EF218DF80C1042
:1041D00001218DF81010010E8DF81410010C8DF8CE
:1041E0001810010A8DF82000100AD5B24FF4FA68B1
:1041F0001F4614468DF81C108DF824008DF80450CD
:1042000046464346012203A92F48FDF7C4FC334626
:10421000012204A92C48FDF7BEFC3346012205A962
:104220002948FDF7B8FC3346012206A92648FDF7C8
:10423000B2FC3346012207A92348FDF7ACFC334604
:10424000012208A92048FDF7A6FC334601220FA948
:104250001D48FDF7A0FC3346012209A91A48FDF7C5
:104260009AFC3346012201A91748FDF794FC05EB9F
:1042700014209DF83C1000254618A41E0DE0785D22
:104280008DF82800434601220AA90F48FDF783FC58
:10429000785D6D1C304486B2EDB2A542EFDB300A8A
:1042A0008DF82C008DF830604446434601220BA95E
:1042B0000548FDF770FC234601220CA90248FDF7D2
:1042C0006AFC12B0BDE8F0815C0000202DE9F041ED
:1042D000FEF768FF00210846FEF7ACFF45A0FEF799
:1042E000F5FFFFF73FFF01280AD1FEF78FFE464C8E
:1042F000002540F2E736A06120B1B0426AD1A57036
:10430000BDE8F0814FF47A773846FCF7C9FAFFF739
:1043100029FF0128F4D1FEF745FF00210846FEF7EA
:1043200089FF3AA0FEF7D2FF00210120FEF782FFAD
:104330003BA0FEF7CBFF3846FCF7B2FAFEF766FE6D
:10434000E061B04243D020B3411C2FD080B2FEF7D1
:1043500033FD00210120FEF76DFF35A0FEF7B6FF0B
:1043600008210120FEF766FF34A0FEF7AFFFE069E9
:104370000A2690FBF6F03030C0B2FEF787FFE06906
:1043800090FBF6F106FB11003030C0B2FEF77EFF65
:104390001AE000210846FEF74DFF2AA0FEF796FF1F
:1043A00000210120FEF746FF2AA00BE0002108466D
:1043B000FEF740FF2CA0FEF789FF00210120FEF749
:1043C00039FF2DA0FEF782FF3846FCF769FAFEF7A9
:1043D000E9FE94E7FEF7E6FE00210846FEF72AFF15
:1043E00029A0FEF773FFBDE8F0414FF4FA60FCF737
:1043F00057BA00002020584143204E48414E2041EA
:10440000444D494E202000000C0000202020205860
:104410004F412056414E20544159202000000000B9
:104420004D4F4920444154205441592056414F009A
:104430002020444120584F412020000020204944A2
:104440003A2000002020204B484F4E47205448453A
:1044500020202000584F412056414E2054415920E1
:1044600041444D494E000000202056414E20544109
:10447000592053414920200058494E204841592095
:10448000544855204C4149002020202053414920C8
:1044900041444D494E2020200000000010B5FEF799
:1044A00081FE00210846FEF7C5FE1FA0FEF70EFFA5
:1044B000FFF758FE012835D1FEF7A8FD1F4CA0617B
:1044C00070B1FEF76FFE00210846FEF7B3FE1CA098
:1044D000FEF7FCFEBDE810404FF4FA60FCF7E0B9CF
:1044E000FFF740FE01281DD1FEF790FCFEF75AFEB3
:1044F00001210846FEF79EFE16A0FEF7E7FE4FF4E8
:104500007A70FCF7CDF9FEF74DFE0020A070A06197
:10451000154C2046FCF754F92046BDE81040002118
:10452000FCF763B910BD00002020584143204E48DD
:10453000414E2041444D494E202000000C000020F7
:10454000202020205341492041444D494E20202025
:10455000000000002020202020444120584F41200E
:10456000202020200000000000FC000800000000C7
:104570000000000001020304060708090000000013
:1045800001020304A44500080000002048000000C8
:10459000C4240008EC45000848000020680500001D
:1045A000D42400080000000000000000FFFFFFFF0F
:1045B00000000000E80300006400000001000000AB
:1045C00000000000000000000000000000000000EB
:1045D00000000000000000000000000001000000DA
:0C45E000100000000000000000A24A04CF
:04000005080000ED02
:00000001FF
