:020000040800F2
:10000000B0040020050100081F180008431500086F
:100010001D180008A5060008E91B000800000000E4
:10002000000000000000000000000000431800086D
:10003000A706000800000000411800084518000845
:100040001F0100081F0100081F0100081F01000810
:100050001F0100081F0100081F0100081F01000800
:100060001F0100081F0100081F0100081F010008F0
:100070001F0100081F0100081F0100081F010008E0
:100080001F0100081F0100081F0100081F010008D0
:100090001F0100081F0100081F0100081F010008C0
:1000A0001F0100081F0100081F0100081F010008B0
:1000B0001F0100081F0100081F0100081F010008A0
:1000C0001F0100081F0100081F0100081F01000890
:1000D0001F0100081F010008DD1B00081F010008A8
:1000E0001F0100081F0100081F010008DFF810D0E1
:1000F00000F0C6FA00480047ED250008AFF3008085
:10010000B00400200648804706480047FEE7FEE7A7
:10011000FEE7FEE7FEE7FEE7FEE7FEE7FEE7FEE7B7
:1001200099180008ED000008202A04DB203A21FA83
:1001300002F00021704721FA02F3D040C2F1200200
:100140009140084319467047D2B201E000F8012BF4
:10015000491EFBD270470022F6E710B513460A4647
:1001600004461946FFF7F0FF204610BD421E12F864
:10017000013F002BFBD111F8013B02F8013B002BA2
:10018000F9D170472DE9FE4F804681EA0300C00F88
:100190000C46009021F0004123F00045B8EB02002E
:1001A000A94105D24046214690461C460B460246D0
:1001B00023F00040104347D0270DC7F30A00C3F3D4
:1001C0000A510290401A019040286BDAC3F31300E1
:1001D00040F4801B0098924620B10023D2EB030A22
:1001E00063EB0B0B01985946C0F14002504600F0FA
:1001F000D0F806460D4650465946019A00F0D8F808
:1002000010EB08006141002487EA115284EAE77389
:100210001A4340D0009A62B3019A012A4FEA07526A
:1002200015DC001B61EB02014FF0004202EA0752AD
:10023000CDE90042001C41F5801132462B4600F00A
:10024000D8F803B0BDE8F08F40462146F9E7001B1F
:1002500061EB0201001C41F5801300185B4120187E
:10026000A2F5001747EB030140EAD570B6196D41BE
:1002700011E06D084FEA360645EAC0754FEA0752AD
:10028000001B61EB0201001C41F5801149084FEA97
:1002900030000019514132462B4603B0BDE8F04F03
:1002A00000F098B80098012240000023D0EB020231
:1002B00063EBE073009821464FEAE074B8EB00006E
:1002C00061EB0401E9E783F000435BE781F0004163
:1002D00058E7000030B5041E71F1000404DB4FF054
:1002E0000044404264EB0101141E73F1000405DB7D
:1002F0001C464FF00043524263EB0403994208BF8F
:10030000904230BD30B50B4601460020202201242A
:1003100009E021FA02F59D4205D303FA02F5491BD3
:1003200004FA02F52844151EA2F10102F1DC30BDE9
:100330002DE9F05F0546002092469B46884606461A
:10034000814640241BE02846414647462246FFF7A7
:10035000EBFE53465A46C01A914110D31146184637
:10036000224600F016F82D1A67EB01084F46224688
:100370000120002100F00DF817EB00094E41201E6E
:10038000A4F10104DFDC484631462A464346BDE875
:10039000F09F202A04DB203A00FA02F10020704787
:1003A0009140C2F1200320FA03F3194390407047B3
:1003B000202A06DBCB17203A41FA02F043EAE07329
:1003C00006E041FA02F3D040C2F120029140084316
:1003D0001946704710B5141E73F1000408DA401C6A
:1003E00041F1000192185B411A4301D120F0010054
:1003F00010BD2DE9F04D92469B4611B1B1FA81F244
:1004000002E0B0FA80F220329046FFF7C2FF0446C5
:100410000F4640EA0A0041EA0B0153465A46084398
:1004200013D0114653EA010019D0C8F140025046DA
:10043000FFF77AFE05460E46504659464246FFF7FC
:10044000A8FF084305D0012004E020463946BDE856
:10045000F08D0020054346EAE0762C4337430A98A6
:100460006305E40AA0EB08000022FD0A44EA4754B1
:100470000A3002D500200146E9E70105101969415B
:10048000DDE9084500196941BDE8F04DA2E72DE915
:10049000FE4F81EA030404F0004421F0004100947F
:1004A0004FF0000B23F0004350EA01045ED052EA03
:1004B00003045BD0C3F30A54C1F30A552C44A4F2DD
:1004C000F3340194A0FB0254C1F3130141F48011F1
:1004D000C3F3130343F4801301FB024400FB034EF8
:1004E000840A970A44EA815447EA8357A4FB0768C1
:1004F00002958D0A05FB07854FEA932C04FB0C54EB
:100500002705029D4FEA065847EA1637B5EB08055E
:100510006EEB070C870E920E47EA811742EA8312B0
:10052000A7FB0201B6EB0B0164EB00042B0D43EAC1
:100530000C335E1844EB1C50DA465146E7FB0201CF
:10054000C5F313044FEA0B3343EA14534FEA043262
:10055000019C43EA0603A4F10C040294009CCDE93B
:1005600000B4FFF746FF03B0BDE8F08F002001465E
:10057000F9E72DE9F04D81EA030404F0004B21F086
:10058000004514464FF0000A23F0004150EA0502EE
:1005900020D054EA01021DD0C5F30A570246C5F324
:1005A0001303C1F31300C1F30A5640F4801543F45A
:1005B0008013A7EB0608101BD64608F2FD3873EB34
:1005C000050002D308F1010801E092185B41B8F17F
:1005D000000F03DA00200146BDE8F08D00204FF443
:1005E0008011064684460EE0171B73EB050705D302
:1005F000121B63EB050306434CEA010C49084FEA62
:10060000300092185B4150EA0107EDD152EA030035
:1006100012D082EA040083EA0501084305D0101BCA
:10062000AB4106D20122002306E000224FF0004336
:1006300002E06FF0010253101AEB06004CEB085178
:1006400010EB0A0041EB0B01BDE8F04DFFF7C2BE15
:10065000C1F30A52C1F3130140F2FF3341F4801198
:100660009A4202DA00200146704740F233439A4230
:10067000A2F2334202DC5242FFF756BDFFF789BEB9
:10068000064C074D06E0E06840F0010394E80700DF
:1006900098471034AC42F6D3FFF72CFD68280008C9
:1006A00088280008FEE7704710B590F82110002454
:1006B000022903D00421816301243DE001680A6816
:1006C00022F00E020A6001680A6822F001020A6044
:1006D0001A4A0168914201D1012121E0174A1432DE
:1006E000914201D110211BE0144A2832914201D1DC
:1006F000891515E0114A3C32914201D189140FE06D
:100700000E4A5032914202D14FF4803108E00B4A38
:100710006432914202D14FF4801101E04FF08071B8
:10072000064A083A5160012180F82110002180F822
:100730002010416B01B18847204610BD08000240DF
:1007400070B5044600F0FAF80546601C02D0044873
:100750000078044400F0F2F8401BA042FAD370BDC8
:10076000080000202DE9F84FDFF890A100220AF1DF
:10077000040B144601274FF00F090BF1040E00BFC4
:100780000B6807FA04F52B40AB4274D1DFF870C157
:100790004E68A6EB0C0866452BD00DDC032E34D03A
:1007A00005DC36B3012E19D0022E2FD11BE0112EFD
:1007B00016D0122E2AD119E0B8F5881F19D006DC00
:1007C000B8F5803F15D0B8F5801F1FD111E0B8F5FE
:1007D000001F0ED0B8F5041F18D10AE0CA6815E052
:1007E000CA68121D12E0CA6808320FE0CA680C32EB
:1007F0000CE08A682AB1012A4FF0080203D0456153
:1008000004E0042202E0056100E00022FF2B01D891
:10081000064601E000F104064FEA840501D9A5F17E
:100820002005D6F800C009FA05F82CEA080C02FAEF
:1008300005F54CEA050CC6F800C04D68ED0057D52B
:10084000304DAE6946F00106AE61AD6924F0030695
:1008500005F0010500952C4D06EB050CDCF8085061
:10086000A6074FEA167809FA08F6B543274EB042B4
:1008700002D1002610E03BE0254EB04201D1012616
:100880000AE0244EB04201D1022605E0224EB042D9
:1008900001D1032600E0042606FA08F62E43CCF820
:1008A00008604D68DAF80060ED03554601D51E4337
:1008B00000E09E432E604D68DBF80060AD035D46AE
:1008C00001D51E4300E09E432E604D68DEF80060B7
:1008D000ED02754601D51E4300E09E432E604D6833
:1008E000AD020E4D2E6801D51E4300E09E432E60E2
:1008F000641C102CFFF444AFBDE8F88F00040140E5
:1009000000001110001002400000014000080140EA
:10091000000C014000100140001401400C04014093
:100920008068084000D001207047C2684A40C26019
:1009300070470AB1016170470904FBE7014880680C
:10094000704700000800002070B504001BD094F828
:100950003D00002520B984F83C50204600F030F9D5
:10096000242084F83D002068016821F00101016025
:1009700000F0A0FA404A6168914201D83F4900E086
:100980003F49884201D2012070BD3E492368B0FB37
:10099000F1F159606368934206D94FF49673594355
:1009A0004FF47A73B1FBF3F12368491C1962616853
:1009B000914210D84900401EB0FBF1F2521CC2F324
:1009C0000B02042A01D2042022E0B0FBF1F0401C0B
:1009D000C0F30B001CE0A368CBB301EBC10202EB38
:1009E0000116421EB2FBF6F2521C42F4804212057E
:1009F00036D06BB301EBC10202EB0111401EB0FB1C
:100A0000F1F0401CC0F30B0040F4804040F4004083
:100A10002168C861D4E90701084321680860D4E966
:100A20000310084321688860D4E905010843216860
:100A3000C8602068016841F0010101602564202040
:100A400084F83D00256384F83E50002070BD00E02E
:100A500008E001EB4106421EB2FBF6F2521CC6E76B
:100A60000120D5E701EB4101401EB0FBF1F0401C35
:100A7000C0F30B00CAE70000A086010080841E00BE
:100A800000093D0040420F002DE9F84F1F469046F7
:100A90008A460446DDF82890FFF750FF064694F892
:100AA0003D0020287ED1192301224349204600968B
:100AB00000F0CDFD00287DD194F83C00012879D0CC
:100AC000012084F83C0020680168C90703D101684F
:100AD00041F0010101602068016821F400610160BA
:100AE000212084F83D00102084F83E000025256474
:100AF000C4F8248067853148E062608D20853346E4
:100B00004A465146204600F031FD28B1206C84F859
:100B10003C5004284CD00DE0206841698069009069
:100B200030E032464946204600F006FE28B1206CEF
:100B3000042838D00320BDE8F88F606A411C616248
:100B4000216800780861608D401E6085208D401E00
:100B500080B2208521684A69D24352070BD450B134
:100B6000606A421C626200780861608D401E608588
:100B7000208D401E208532464946204600F040FD2B
:100B80000028D4D1208D0028CBD154F83D0B01682A
:100B900041F400710160202004F81E09E5776577B3
:100BA0000020C8E706E02068016841F40071016098
:100BB0000120C0E70220BEE7020010000000FFFF96
:100BC00010B586B000210091019102910391006857
:100BD0000F4988421AD10F4CA06940F00800A0616B
:100BE000A069694600F008000490C020009012201F
:100BF0000190032003900848FFF7B4FDE06940F43A
:100C00000010E061E06900F40010049006B010BD2F
:100C10000054004000100240000C0140024881686E
:100C2000027811448160704708000020074810B521
:100C3000016841F010010160032000F073F800200A
:100C400000F006F800F024F8002010BD002002405B
:100C500070B50D4D04464FF47A712878B1FBF0F071
:100C60000A490968B1FBF0F000F0FCFA48B9102C11
:100C700007D200222146501E00F034F800206C609C
:100C800070BD012070BD000008000020140000208D
:100C90000C4808B5816941F001018161816901F069
:100CA00001010091C16941F08051C161C06900F04A
:100CB000805000900448416821F0E06141F00071EB
:100CC000416008BD001002400000014000F01F021A
:100CD000012191404009800000F1E020C0F800119E
:100CE00070470000F0B40E4B1B680C46C3F30223A0
:100CF000C3F10705042D00D90425191D072901D2C8
:100D0000002300E0DB1E012606FA05F1491E214002
:100D100099409E40761E16403143F0BC00F080BDE5
:100D20000CED00E0064900F0070208684FF6FF03EB
:100D3000184040EA0220034A104308607047000050
:100D40000CED00E00000FA052DE9F047DFF85481D2
:100D500005460E46D8F8000000F00700B0420CD25D
:100D6000D8F8001021F007013143C8F80010D8F876
:100D7000000000F00700B0426FD128684A4C81079C
:100D800012D5400703D5606840F4E06060602878C1
:100D9000000703D5606840F4605060606068A9682F
:100DA00020F0F000084360602878C00744D06868ED
:100DB000012816D02168022816D0890700294CDAAC
:100DC000616821F0030101436160FFF7B7FD6968C5
:100DD000074641F2883001290ED00229814618D0F9
:100DE00026E021688903E9E78901E7E7FFF7A6FD27
:100DF000C11B494501D918E081466068C0F38100F4
:100E00000128F3D118E000BFFFF798FDC11B494549
:100E10000BD86068C0F381000228F5D10CE000BF58
:100E2000FFF78CFDC11B494502D90320BDE8F087BF
:100E3000606810F00C0FF3D1D8F80010404601F0B4
:100E40000701B1420BD9016821F00701314301606C
:100E5000006800F00700B04201D00120E6E72878E2
:100E6000400705D56068E96820F4E06008436060E9
:100E70002878000706D56068296920F4605040EAA8
:100E8000C100606000F036F86168084AC1F30311E0
:100E9000515CC840064908600020FFF7D9FE0020D9
:100EA000C4E7000000200240001002405028000863
:100EB000140000200448054900684968044AC1F349
:100EC0000221515CC840704714000020001002400D
:100ED000602800080448054900684968044AC1F3CD
:100EE000C221515CC840704714000020001002402D
:100EF0006028000812A185B00FC98DE80F0014A06A
:100F0000144A006804905168134801F00C03042B44
:100F100010D0082B0ED1C1F38343C9031DF8030081
:100F20000AD5516804AAC1F34041515C0A4A5043B2
:100F3000B0FBF1F005B0704708494843FAE70000FC
:100F400002030405060708090A0B0C0D0E0F10100A
:100F5000010200000010024000127A0000093D006A
:100F60002DE9F84F04460078B94DC00748D06868AD
:100F7000C0F38100012807D06868C0F3810002280F
:100F800009D16868C00306D52868800338D5606831
:100F900000286FD034E06068B0F5803F0BD010B10E
:100FA000B0F5A02F11D0286820F480302860286880
:100FB00020F4802002E0286840F4803028606068D7
:100FC00088B1FFF7BBFC064609E0286840F48020A2
:100FD0002860F0E7FFF7B2FC801B642875D828680A
:100FE0008003F7D50CE0FFF7A9FC064605E000BF3B
:100FF000FFF7A4FC801B6428F0D828688003F7D48E
:101000002078944E80074FF001094FF000083BD53F
:10101000686810F00C0F07D06868C0F381000228E0
:1010200009D16868C00306D42868800714D52069F0
:1010300001281FD110E02069B0B1C6F80090FFF779
:101040007DFC074605E000BFFFF778FCC01B0228C7
:10105000C4D828688007F7D52868616920F0F800AF
:1010600040EAC10028600FE0C6F80080FFF766FC88
:10107000074606E0E9E000BFFFF760FCC01B02285E
:1010800023D828688007F7D4207800072CD5724829
:10109000A169D9B1C0F80090FFF750FC074604E001
:1010A000FFF74CFCC01B02280FD8686A8007F7D5F1
:1010B0006A484FF4FA510068B0FBF1F0009000BFAD
:1010C0000098411E0091FAD20EE080E0C0F8008046
:1010D000FFF734FC074604E0FFF730FCC01B022892
:1010E00075D8686A8007F7D42078400760D5E8692A
:1010F0000027C00008D4E86940F08050E861E86942
:10110000012700F08050009055480168C90513D4AC
:101110000168834641F480710160FFF70FFC82464D
:1011200006E000BFFFF70AFCA0EB0A0064284ED8D7
:10113000DBF80000C005F5D5E06801280AD008B149
:10114000052813D0286A20F001002862286A20F0C0
:10115000040002E0286A40F001002862E06841F2E1
:10116000883B98B1FFF7EAFB82460BE0286A40F023
:1011700004002862EEE700BFFFF7E0FBA0EB0A01E6
:1011800059455AD8286A8007F6D50CE0FFF7D6FBF8
:10119000824605E0FFF7D2FBA0EB0A0159454CD887
:1011A000286A8007F6D41FB1E86920F08050E86112
:1011B000E06988B36968C1F38101022945D002283A
:1011C000C6F8608004D0FFF7B9FB044638E034E08D
:1011D000FFF7B4FB074604E0FFF7B0FBC01B022893
:1011E0002BD828688001F7D4206AB0F5803F05D15C
:1011F0006868A16820F4003008436860D4E90801F9
:101200000843696821F4741108436860C6F8609067
:10121000FFF794FB044606E015E000BFFFF78EFBE6
:10122000001B022809D828688001F7D50BE000BF11
:10123000FFF784FB001B022802D90320BDE8F88FCA
:1012400028688001F4D40020F8E70120F6E70000C8
:10125000001002400000424280044242140000207C
:101260000070004010B5401EB0F1807F01D3012016
:1012700010BD4FF0E02460610F21601700F0D0FA3C
:101280000020A06107202061002010BD70470000F1
:1012900070B5026804461068D168536910F00F0FEA
:1012A00050D003F0010501F4907635435DD0C207BC
:1012B00005D0CA0503D5E26B42F00102E2634207A2
:1012C00005D5DA0703D0E26B42F00202E26382073F
:1012D00005D5DA0703D0E26B42F00402E2630207AD
:1012E00005D5DA0703D0E26B42F00802E263E26B55
:1012F000002A33D0800604D5880602D5204600F0A7
:1013000005FB20684069E16BC0F38010090700D439
:1013100028B3204600F0ECFA2068416949061AD546
:10132000416921F040014161606BA0B11B494163FB
:10133000606BFFF7B9F9002810D0606B416BBDE816
:1013400070400847830610D58B060ED52046BDE8B1
:10135000704000F0DBBA2046FFF798FF70BD2046D2
:10136000FFF794FF0020E06370BD030606D50B066F
:1013700004D52046BDE8704000F0CCBB4006F3D554
:101380004806F1D5D168204621F04001D1602021E6
:1013900084F8391000F0D4F870BD0000E11800089E
:1013A00070B5040004D094F83900002510B106E0AF
:1013B000012070BD84F83850204600F023F8242026
:1013C00084F839002068C16821F40051C1602046CA
:1013D00000F0E8FA2068016921F490410161206879
:1013E000416921F02A0141612068C16841F400513E
:1013F000C160E563202084F8390084F83A000020B9
:1014000070BD000030B585B00024009401940294B2
:1014100003940068184988422BD11848C16941F4E7
:101420000031C161C16901F400310491816941F069
:10143000040181618069124D00F0040004900420D1
:101440000090022001900320039069462846FFF790
:1014500089F90820CDE90004694628460294FFF77F
:1014600081F9002211462620FFF73CFC2620FFF7D9
:101470002DFC05B030BD00000044004000100240CB
:101480000008014070472DE9F843044690F8390000
:101490001F4616460D46202850D1A5B19EB194F89E
:1014A000380001284AD0012084F838004FF00008A5
:1014B000C4F83C80212084F83900FFF73FFAA68465
:1014C0008146E68426E00120BDE8F883E08C401EDA
:1014D000E084A0684B46B0F5805F4FF000024FF00B
:1014E00080012046009703D000F045FBE8B90DE0ED
:1014F00000F041FBC8B928882168C0F308004860A3
:10150000206908B16D1C05E0AD1C03E0216815F8E9
:10151000010B4860E08C0028D8D14B4600224021C6
:101520002046009700F027FB08B10320CCE72020DD
:1015300084F8390084F838800020C5E70220C3E72A
:101540007047FEE701684A69D24352050CD46FF434
:1015500080624A6104210164002140F8301F20228A
:10156000427301730120704700207047F8B50446AC
:10157000C06A1E460D461746042807D0012805D02C
:1015800010F5803F02D0206B122804D1206801683A
:1015900041F480710160134600224FF00111204692
:1015A000009600F054F8A0B92069B0F5804F12D031
:1015B0000620216800EAD51040F0F00008613346AB
:1015C0003A460E49204600F073F838B1206C0428E2
:1015D00011D00320F8BD05F0FE0000E0E8B221685C
:1015E0000861064933463A46891F204600F060F8F4
:1015F0000028EBD1F8BD0120F8BD00000800010073
:1016000070B516460D4604461AE02046FFF79AFFCD
:1016100008B1012070BD681C12D025B1FFF78EF90A
:10162000801BA8420CD954F8400F40F0200044F829
:10163000100900202060202161732073032070BDF9
:1016400020684069C0434007DFD4002070BD2DE909
:10165000F0471E4690460D460446C1F30747DDF8A5
:10166000209012E0701C10D02EB1FFF767F9A0EBAC
:101670000900B04209D9002044F8300F20216173DD
:10168000A07320730320BDE8F0872068012F0AD0E3
:10169000806925EA00000004000C06D000214145C5
:1016A000E0D00020EFE74069F3E70121F7E7000011
:1016B0002DE9F0479A4691460D46044600264FF024
:1016C0002008C1F307472AE020684069C04340056D
:1016D00012D42068016841F40071016021686FF440
:1016E0008060486104202064266384F83D8084F88B
:1016F0003C600120BDE8F087B9F1FF3F0FD0B9F1A0
:10170000000F05D0FFF71AF9A0EB0A01494506D9E9
:1017100044F8306F84F80D8026730320EAE72068D0
:10172000012F07D0D0F8180025EA00000004000CB3
:10173000E0D0C9E74069F7E770B516460D460446A4
:101740001AE02046FFF7FEFE08B1012070BD681CBC
:1017500012D025B1FFF7F2F8801BA8420CD954F83B
:10176000400F40F0200044F81009002020602021A4
:1017700061732073032070BD20684069C043000678
:10178000DFD4002070BD000070B586B00024204872
:101790000094019402940394816941F010018161E5
:1017A000816901F010010491816941F0200181619A
:1017B000816901F020010491816941F00401816196
:1017C000816901F004010491816941F0080181619E
:1017D0008069104E00F008004FF40055049000227C
:1017E00029463046FFF7A5F80220CDE902400095D2
:1017F0000125694601953046FEF7B4FF40F60240E8
:101800008DE8310069460448FEF7ACFF06B070BDB4
:101810000010024000100140000C0140FEE770473C
:101820000907090E002806DA00F00F0000F1E02099
:1018300080F8141D704700F1E02080F80014704714
:1018400070477047FFF7EAB930B58FB02821684676
:10185000FEF781FC14210AA8FEF77DFC0121080493
:10186000CDE900100024029402250491CDE907502F
:101870004FF4E01009906846FFF772FB0F20CDE9A6
:101880000A056802CDE90C4002210AA80E94FFF770
:101890005BFA0FB030BD00000D48016841F0010156
:1018A000016041680B4A1140416001680A4A1140D9
:1018B0000160016821F480210160416821F4FE018A
:1018C00041604FF41F0181600449C0030860704704
:1018D000001002400000FFF8FFFFF6FE08ED00E0F8
:1018E00010B5406A0021C185C184FFF7CFFC10BD4F
:1018F0000168CA6822F49072CA6001684A6922F0DD
:1019000001024A61202180F83A10704710B590F822
:101910003A10222901D0022010BD8168B1F5805F04
:1019200011D00169002901681FD0496801F07F03C7
:10193000816A4A1C82620B70C18D491E0904090C20
:10194000C18518D02BE00269816A002A02685268BA
:1019500005D0D2B20A80816A491C8162ECE7C2F3E9
:1019600008020A80816A891CF7E74A68816A4B1C71
:1019700083620A70E0E70168CA6822F02002CA6048
:101980000168CA6822F48072CA6001684A6922F05C
:1019900001024A61202180F83A10FFF773FD002010
:1019A00010BD00002DE9F041044600680169E268BD
:1019B00021F44051114301612169A0680843616924
:1019C00008432168CA6841F20C639A430243CA6023
:1019D00020684169A26921F44071114341614C4979
:1019E00020686425322688423CD1FFF773FA00EB69
:1019F000C00101EB001061688900B0FBF1F7FFF74F
:101A000069FA00EBC00101EB00106168B046890083
:101A1000B0FBF1F0B0FBF5F06FF01801484307EBB5
:101A2000800106EB0110B0FBF5F000F0F006FFF7C7
:101A300051FA00EBC00101EB001061688900B0FBB6
:101A4000F1F0B0FBF5F006EB0016FFF743FA00EB00
:101A5000C00101EB001061688900B0FBF1F7FFF7EE
:101A600039FA3BE0FFF726FA00EBC00101EB00106A
:101A700061688900B0FBF1F7FFF71CFA00EBC001C9
:101A800001EB00106168B0468900B0FBF1F0B0FBDB
:101A9000F5F06FF01801484307EB800106EB0110E9
:101AA000B0FBF5F000F0F006FFF704FA00EBC00120
:101AB00001EB001061688900B0FBF1F0B0FBF5F0BC
:101AC00006EB0016FFF7F6F900EBC00101EB001082
:101AD00061688900B0FBF1F7FFF7ECF900EBC0019A
:101AE00001EB001061688900B0FBF1F0B0FBF5F08C
:101AF0006FF01801484307EB800108EB0110B0FBC1
:101B0000F5F0216800F00F0030448860BDE8F081F6
:101B10000038014090F83910212901D00220704787
:101B20008168B1F5805F016A0BD04A1C02620268CD
:101B300009785160C18C491E0904090CC1840ED07A
:101B400017E009880268C1F30801516001690029A2
:101B5000016A02D0491C0162ECE7891CFBE70168BD
:101B6000CA6822F08002CA600068C16841F0400182
:101B7000C160002070472DE9F041984617460E4697
:101B80000446069D1DE0681C1BD02DB1FEF7D6FE55
:101B9000A0EB0800A84214D92068C16821F4D071D4
:101BA000C1602068416921F001014161202084F871
:101BB000390084F83A00002084F838000320BDE89A
:101BC000F0812068006836EA000004D00020B842A6
:101BD000D9D00020F3E70120F9E700000148FFF722
:101BE00057BB00006C000020FEE700000FB4084B5C
:101BF00010B504A902AA039800F0DEF8044602A971
:101C0000002000F05CFC204610BC5DF814FB0000D6
:101C1000BF24000802E008C8121F08C1002AFAD138
:101C200070477047002001E001C1121F002AFBD15C
:101C3000704700002DE9FF5F82B00021DDE904302C
:101C4000020DDDF840B0034318D044F61050A2F264
:101C5000FF3242431514119801281FD0A5EB0B0049
:101C6000401C5FEA000A4FF000064E4FDFF8389143
:101C7000B046504615D5CAF1000413E0119801246E
:101C80004AA3012801D16FEA0B010298119AC0E919
:101C90000031C0E9024206B0BDE8F09FCBF1000080
:101CA000DFE704460021404A491842EB0450CDE9E1
:101CB000001012E0E00707D032463B464046494656
:101CC000FEF7E5FB8046894632463B4610461946FC
:101CD000FEF7DDFB06460F466410002CEAD1DDE975
:101CE0000401DDE90023BAF1000F06DAFEF7CFFBAD
:101CF00042464B46FEF7CBFB05E0FEF73AFC424678
:101D00004B46FEF736FC04460E460022284BFEF7F3
:101D1000E1FA03D84FF0FF30014607E00022254BDF
:101D200020463146FEF72EFAFEF792FC102409E019
:101D3000002C0ADB0A220023FEF7FAFA039B30325A
:101D40001A55641E50EA0102F2D1641C039AC4F1D0
:101D500011031444119A012A03D0012208430DD122
:101D60000AE0084304D000204FF0110B119072E7F5
:101D7000A3EB0B056D1E0DE05B4504DD4FF000028B
:101D800005F1010504E003DA4FF00002A5F10105B9
:101D9000002AECD002981199C0E90231C0E900454F
:101DA00079E70000000014400000F03F3000000020
:101DB0000000F0430000E03F2DE9FF4F95B09A4648
:101DC000884606460025EEE1252877D100242746DF
:101DD000F94A0121039400E0044316F8013F203B37
:101DE00001FA03F01042F7D130782A2811D06FF0B1
:101DF0002F033078A0F13002092A16D8039A44F054
:101E0000020402EB820203EB42021044761C0390B0
:101E1000EFE758F8042B0392002A03DA504244F407
:101E20000054039044F00204761C30782E2816D11A
:101E300016F8010F44F004042A280DD06FF02F0289
:101E40003078A0F13003092B09D807EB870302EBA8
:101E50004303C718761CF3E758F8047B761C3078E8
:101E60006C280FD006DC4C2817D068280DD06A28C3
:101E700014D104E0742810D07A280FD10DE044F476
:101E800000140AE044F4801401E044F44014727831
:101E9000824202D104F58014761C761C30786628C4
:101EA0000BD013DC582877D009DC002875D04528E2
:101EB000F6D04628F4D047281AD193E118E06328D9
:101EC00035D0642879D0652812D18BE1702873D081
:101ED00008DC6728F1D069286FD06E280DD06F28F4
:101EE00006D1ACE073282CD0752874D0782853D054
:101EF0005246179990476D1C54E1C4F302500228D2
:101F000009D003280DD0D8F8001004280DD00D609A
:101F100008F1040846E1D8F80010EA17C1E90052B8
:101F2000F6E7D8F800100D80F2E70D70F0E718F82A
:101F3000041B8DF8001000208DF80100EB460120F5
:101F400003E058F804BB4FF0FF3061074FF0000189
:101F500002D40DE009F101018946B9420FDA814549
:101F6000F8DB1BF809100029F4D108E009F10101A0
:101F700089468142FADB1BF809100029F6D1039843
:101F80005346A0EB090721463846179A00F080FA1D
:101F9000284400EB090507E044E008E10DE01BF8E8
:101FA000010B524617999047B9F10109F7D25346F0
:101FB00021463846179AF2E039E00A21C4F302526A
:101FC0004FF0000B0091022A06D058F8040BC117FD
:101FD000032A09D00AE023E008F1070020F00702F5
:101FE000F2E80201904605E000B2C117042A01D1CF
:101FF00040B2C117002906DA0A460021404261EBCF
:1020000002012D2202E0220504D52B228DF80420A6
:10201000012203E0E20701D02022F7E7914657E0D2
:102020000A2100E010214FF0000B00910BE010217D
:102030004FF0000B44F004040827009103E008204F
:102040004FF0000B0090C4F30252022A05D058F85A
:10205000040B0021032A08D008E008F1070020F053
:102060000702F2E80201904603E080B2042A00D1A0
:10207000C0B24FF0000922072AD53278702A07D063
:10208000DDF800C08CF0100C5CEA0B0C05D00EE003
:1020900040228DF80420012208E050EA010306D016
:1020A00030238DF804308DF8052002229146009BE4
:1020B00083F0080353EA0B030AD150EA010201D16D
:1020C000620705D530228DF804204FF001097F1EEC
:1020D0003278582A04D039A20C920CAA02920BE052
:1020E0003BA2F9E75B46009AFEF722F90C9B9B5C4A
:1020F000029A521E0292137050EA0102F2D1029823
:1021000004A9081A00F1200B600702D524F48034DA
:1021100000E001275F4502DDA7EB0B0000E0002097
:1021200000EB0B01009003984944401A0390E00330
:1021300006D453462146179A039800F0A9F905449E
:10214000002706E001A85246C05D179990476D1C14
:102150007F1C4F45F6DBE0030CD553462146179A0A
:10216000039800F095F9054404E030205246179991
:1021700090476D1C0099481E00900029F5DC08E08E
:102180000298029952460078491C0291179990478B
:102190006D1CBBF10001ABF1010BF1DC5BE100F068
:1021A00065F90544761C307800287FF40DAE19B02F
:1021B0002846BDE8F08F0000092801003031323395
:1021C0003435363738396162636465660000000073
:1021D000303132333435363738394142434445465D
:1021E00000000000600700D4062708F1070020F077
:1021F0000700F0E80223804603F0004C5FEA0C0081
:1022000001D097A009E0200501D596A005E0E007E0
:1022100001D095A001E0AFF24C001390307823F08C
:10222000004365280CD006DC452809D046281DD07F
:1022300047287FD13BE0662818D067287AD136E05E
:102240000021112F01DB112000E0781CCDE90001F5
:1022500004A90CA8FFF7EEFCDDE90D010C9A4FF084
:10226000000B07F10109109200914EE04FF0004081
:102270000097CDE9011004A90CA8FFF7DBFCDDE90C
:102280000D020C9B0F994FF0000B9146109300929A
:1022900011B9791C00EB0109B7EB090003D4C0F1B7
:1022A000FF3B07F10109A9EB0700019042E0012F74
:1022B00000DA01270021112F01DD112000E038464E
:1022C000CDE9000104A90CA8FFF7B4FCDDE90D017C
:1022D0000C9A00914FF0000BB946109221070FD4D1
:1022E000009A4A4503DA914601E0A9F10109B9F1E2
:1022F000010F05DD109AA9F10101515C3029F4D0DC
:10230000B84202DA10F1040F03DA0121CDE901101D
:1023100010E0002803DC8344A9EB000102E0411C2B
:10232000494500DD8946A0EB0B00401C01904FF0B1
:1023300000400290200705D40198484502DB4FF089
:10234000FF30019000208DF84B0002980DF14B07F3
:10235000B0F1004F25D002200C902B200D90029858
:1023600000280CDA404202902D200D9007E00A214F
:102370000298FDF7C7FF3031029007F8011D0C9954
:10238000481E0C900029F2DC02980028EFD1791E3B
:102390000D980870307800F0200040F0450007F8F4
:1023A000020D11A8C01BC01D02901398007800B147
:1023B000012000EB0901019801EBE0710298014452
:1023C0000398401A401E0390E00306D4534621466A
:1023D000179A039800F05CF805441398007818B138
:1023E0005246179990476D1CE00323D5534621466A
:1023F000179A039800F04CF805441BE0BBF1000F5E
:1024000007DB0098584504DD1098179910F80B0069
:1024100001E0179930205246904701980BF1010BCB
:10242000401E05F10105019004D12E205246179956
:1024300090476D1CB9F10001A9F10109DEDC05E04E
:1024400017F8010B5246179990476D1C0299481EC8
:1024500002900029F4DC53462146179A03989EE621
:102460002D0000002B000000200000002DE9F041AD
:10247000044600251E461746880404D405E0394664
:102480002020B0476D1C641EF9D52846BDE8F081B8
:102490002DE9F041044600251E469046C80301D5AB
:1024A000302700E02027880404D505E0414638465F
:1024B000B0476D1C641EF9D52846BDE8F0810A6856
:1024C000531C0B601070704710B53220FEF738F9BE
:1024D000302000F041F80520FEF732F9302000F0FE
:1024E0003BF80120FEF72CF9302000F035F80A20E7
:1024F000FEF726F9202000F02FF80A20FEF720F939
:10250000282000F029F80120FEF71AF9082000F031
:1025100023F80120FEF714F9012000F01DF8012036
:10252000FEF70EF90120FEF70BF9062000F014F873
:102530000120FEF705F9BDE810400C2000F00CB8B2
:1025400010B1012805D102E041F0800101E041F025
:10255000C001C8B2AFF300801CB500F0F00141F03B
:102560000C028DF8042041F0080100018DF80510DF
:1025700040F00C018DF8061040F008008DF80700BF
:1025800064200090042301AA4E210248FEF77CFA41
:102590001CBD0000180000201CB500F0F00141F047
:1025A0000D028DF8042041F0090100018DF805109D
:1025B00040F00D018DF8061040F009008DF807007D
:1025C00064200090042301AA4E210248FEF75CFA21
:1025D0001CBD00001800002010B5044602E0641C79
:1025E000FFF7DAFF20780028F9D110BD08B5FEF713
:1025F0001DFBFFF729F9FFF7C7F81E481C49002407
:1026000001601D49C0E901144FF48041C0E9034154
:1026100044618461C4610462FEF796F91548174964
:10262000543001604FF4E131C0E901140C21C46061
:10263000C0E904418461C461FEF7B2FEFFF744FFC4
:1026400000210846FFF77CFF0DA0FFF7C5FF114CE6
:102650004FF4FA6500F020F820790090E378A27832
:102660006178207800F05EF82846FEF769F8F1E717
:102670000054004018000020A086010000440040E3
:10268000444F20414E20544F54204E474849455016
:1026900000000000000000202DE9F0411F4C022145
:1026A0002046FEF73DF91E4F6614D8B12515294680
:1026B0002046FEF735F918B3E51429462046FEF703
:1026C0002FF900280CD11420FEF73AF8314638468D
:1026D000FEF72BF929462046FEF722F90028F9D00B
:1026E000BDE8F0811420FEF72BF831463846FEF79E
:1026F0001CF902212046FEF713F90028F9D0EFE774
:102700001420FEF71DF831463846FEF70EF929462B
:102710002046FEF705F90028F9D0E1E7000C01405A
:10272000001001402DE9F041A8B00C46054698463E
:102730001746642168462E9EFDF70DFD0020199076
:102740001A901B901C901D901E901F90209021901D
:102750002290239024902590269027902A462EA1FF
:1027600019A8FFF743FA22462BA11CA8FFF73EFA4F
:102770003A4629A11FA8FFF739FA424626A122A806
:10278000FFF734FA324624A125A8FFF72FFA23A138
:102790006846FDF7EBFC19A96846FDF7E7FC21A1A7
:1027A0006846FDF7E3FC20A16846FDF7DFFC1CA9A5
:1027B0006846FDF7DBFC1BA16846FDF7D7FC1CA1B2
:1027C0006846FDF7D3FC1FA96846FDF7CFFC15A1AD
:1027D0006846FDF7CBFC18A16846FDF7C7FC22A9A7
:1027E0006846FDF7C3FC0FA16846FDF7BFFC14A1C6
:1027F0006846FDF7BBFC25A96846FDF7B7FC12A1AA
:102800006846FDF7B3FC0A23642269460F48FEF7C9
:102810003AFE28B0BDE8F081256400007B224E44DA
:10282000223A2200222C0000224441223A220000B7
:1028300022544231223A220022544232223A2200C9
:10284000224331223A220000227D0A006C0000203F
:102850000000000000000000010203040607080950
:102860000000000001020304882800080000002086
:1028700018000000141C0008A02800081800002000
:1028800098040000241C0008000000001E00000046
:1028900001000000100000000000000000A24A0437
:04000005080000ED02
:00000001FF
