:020000040800F2
:10000000880500200501000877160008E5120008A1
:100010007516000871010008C91A000800000000E8
:100020000000000000000000000000009B16000817
:100030007301000800000000991600089D160008D2
:100040001F0100081F0100081F0100081F01000810
:100050001F0100081F0100081F0100081F01000800
:100060001F0100081F0100081F0100081F010008F0
:100070001F0100081F0100081F0100081F010008E0
:100080001F0100081F0100081F0100081F010008D0
:100090001F0100081F0100081F0100081F010008C0
:1000A0001F0100081F0100081F0100081F010008B0
:1000B000391700081F0100081F0100081F01000870
:1000C0001F0100081F0100081F0100081F01000890
:1000D0001F010008B11A0008BD1A00081F0100081E
:1000E0001F0100081F0100081F010008DFF810D0E1
:1000F00000F02CF800480047251C0008AFF30080F2
:10010000880500200648804706480047FEE7FEE7CE
:10011000FEE7FEE7FEE7FEE7FEE7FEE7FEE7FEE7B7
:10012000F1160008ED000008D2B201E000F8012B42
:10013000491EFBD270470022F6E710B513460A4667
:1001400004461946FFF7F0FF204610BD064C074D48
:1001500006E0E06840F0010394E807009847103497
:10016000AC42F6D3FFF7C6FF24230008442300085F
:10017000FEE770477047000010B590F8211000248A
:10018000022903D00421816301243DE001680A684B
:1001900022F00E020A6001680A6822F001020A6079
:1001A0001A4A0168914201D1012121E0174A143213
:1001B000914201D110211BE0144A2832914201D111
:1001C000891515E0114A3C32914201D189140FE0A2
:1001D0000E4A5032914202D14FF4803108E00B4A6E
:1001E0006432914202D14FF4801101E04FF08071EE
:1001F000064A083A5160012180F82110002180F858
:100200002010416B01B18847204610BD0800024014
:1002100070B5044600F0F6F80546601C02D00448AC
:100220000078044400F0EEF8401BA042FAD370BD01
:100230002C0000202DE9F84FDFF890A100220AF1F0
:10024000040B144601274FF00F090BF1040E00BFF9
:100250000B6807FA04F52B40AB4274D1DFF870C18C
:100260004E68A6EB0C0866452BD00DDC032E34D06F
:1002700005DC36B3012E19D0022E2FD11BE0112E32
:1002800016D0122E2AD119E0B8F5881F19D006DC35
:10029000B8F5803F15D0B8F5801F1FD111E0B8F533
:1002A000001F0ED0B8F5041F18D10AE0CA6815E087
:1002B000CA68121D12E0CA6808320FE0CA680C3220
:1002C0000CE08A682AB1012A4FF0080203D0456188
:1002D00004E0042202E0056100E00022FF2B01D8C7
:1002E000064601E000F104064FEA840501D9A5F1B4
:1002F0002005D6F800C009FA05F82CEA080C02FA25
:1003000005F54CEA050CC6F800C04D68ED0057D560
:10031000304DAE6946F00106AE61AD6924F00306CA
:1003200005F0010500952C4D06EB050CDCF8085096
:10033000A6074FEA167809FA08F6B543274EB042E9
:1003400002D1002610E03BE0254EB04201D101264B
:100350000AE0244EB04201D1022605E0224EB0420E
:1003600001D1032600E0042606FA08F62E43CCF855
:1003700008604D68DAF80060ED03554601D51E436C
:1003800000E09E432E604D68DBF80060AD035D46E3
:1003900001D51E4300E09E432E604D68DEF80060EC
:1003A000ED02754601D51E4300E09E432E604D6868
:1003B000AD020E4D2E6801D51E4300E09E432E6017
:1003C000641C102CFFF444AFBDE8F88F000401401A
:1003D0000000111000100240000001400008014020
:1003E000000C014000100140001401400C040140C9
:1003F0008068084000D0012070470AB10161704751
:100400000904FBE701488068704700002C000020C9
:1004100070B504001BD094F83D00002520B984F885
:100420003C50204600F030F9242084F83D0020683C
:10043000016821F00101016000F0A0FA404A616802
:10044000914201D83F4900E03F49884201D2012052
:1004500070BD3E492368B0FBF1F159606368934277
:1004600006D94FF4967359434FF47A73B1FBF3F105
:100470002368491C19626168914210D84900401EE6
:10048000B0FBF1F2521CC2F30B02042A01D2042089
:1004900022E0B0FBF1F0401CC0F30B001CE0A368AD
:1004A000CBB301EBC10202EB0116421EB2FBF6F226
:1004B000521C42F48042120536D06BB301EBC102EC
:1004C00002EB0111401EB0FBF1F0401CC0F30B0029
:1004D00040F4804040F400402168C861D4E907013D
:1004E000084321680860D4E9031008432168886044
:1004F000D4E9050108432168C8602068016841F01B
:10050000010101602564202084F83D00256384F802
:100510003E50002070BD00E008E001EB4106421EA5
:10052000B2FBF6F2521CC6E70120D5E701EB410110
:10053000401EB0FBF1F0401CC0F30B00CAE7000006
:10054000A086010080841E0000093D0040420F008B
:100550002DE9F84F1F4690468A460446DDF828905C
:10056000FFF750FF064694F83D0020287ED119235E
:10057000012243492046009600F03BFF00287DD130
:1005800094F83C00012879D0012084F83C002068D0
:100590000168C90703D1016841F0010101602068C9
:1005A000016821F400610160212084F83D001020E1
:1005B00084F83E0000252564C4F82480678531480E
:1005C000E062608D208533464A465146204600F061
:1005D0009FFE28B1206C84F83C5004284CD00DE0DC
:1005E000206841698069009030E0324649462046E3
:1005F00000F074FF28B1206C042838D00320BDE837
:10060000F88F606A411C6162216800780861608D22
:10061000401E6085208D401E80B2208521684A6979
:10062000D24352070BD450B1606A421C6262007818
:100630000861608D401E6085208D401E20853246F9
:100640004946204600F0AEFE0028D4D1208D002877
:10065000CBD154F83D0B016841F4007101602020BA
:1006600004F81E09E57765770020C8E706E02068F2
:10067000016841F4007101600120C0E70220BEE77B
:10068000020010000000FFFF10B586B000210091AD
:1006900001910291039100680F4988421AD10F4CD1
:1006A000A06940F00800A061A069694600F0080058
:1006B0000490C0200090122001900320039008486D
:1006C000FFF7B8FDE06940F40010E061E06900F474
:1006D0000010049006B010BD00540040001002400D
:1006E000000C014002488168027811448160704723
:1006F0002C000020074810B5016841F0100101608E
:10070000032000F073F8002000F006F800F024F851
:10071000002010BD0020024070B50D4D04464FF47E
:100720007A712878B1FBF0F00A490968B1FBF0F062
:1007300000F0FCFA48B9102C07D200222146501EC6
:1007400000F034F800206C6070BD012070BD000026
:100750002C000020380000200C4808B5816941F0C9
:1007600001018161816901F001010091C16941F0DC
:100770008051C161C06900F0805000900448416818
:1007800021F0E06141F00071416008BD00100240BD
:100790000000014000F01F0201219140400980004B
:1007A00000F1E020C0F8001170470000F0B40E4BDB
:1007B0001B680C46C3F30223C3F10705042D00D9BF
:1007C0000425191D072901D2002300E0DB1E0126A4
:1007D00006FA05F1491E214099409E40761E1640BA
:1007E0003143F0BC00F048BF0CED00E0064900F0DA
:1007F000070208684FF6FF03184040EA0220034A48
:1008000010430860704700000CED00E00000FA059E
:100810002DE9F047DFF8548105460E46D8F8000070
:1008200000F00700B0420CD2D8F8001021F0070108
:100830003143C8F80010D8F8000000F00700B042BB
:100840006FD128684A4C810712D5400703D56068EC
:1008500040F4E06060602878000703D5606840F4E9
:10086000605060606068A96820F0F0000843606034
:100870002878C00744D06868012816D0216802286B
:1008800016D0890700294CDA616821F00301014381
:100890006160FFF7B7FD6968074641F288300129BA
:1008A0000ED00229814618D026E021688903E9E7A5
:1008B0008901E7E7FFF7A6FDC11B494501D918E00B
:1008C00081466068C0F381000128F3D118E000BFC1
:1008D000FFF798FDC11B49450BD86068C0F3810044
:1008E0000228F5D10CE000BFFFF78CFDC11B494584
:1008F00002D90320BDE8F087606810F00C0FF3D137
:10090000D8F80010404601F00701B1420BD9016848
:1009100021F0070131430160006800F00700B04298
:1009200001D00120E6E72878400705D56068E9682E
:1009300020F4E060084360602878000706D560680E
:10094000296920F4605040EAC100606000F036F888
:100950006168084AC1F30311515CC8400649086048
:100960000020FFF7D9FE0020C4E70000002002406D
:10097000001002400C2300083800002004480549FC
:1009800000684968044AC1F30221515CC8407047BD
:1009900038000020001002401C23000804480549CC
:1009A00000684968044AC1F3C221515CC8407047DD
:1009B00038000020001002401C23000812A185B05E
:1009C0000FC98DE80F0014A0144A00680490516804
:1009D000134801F00C03042B10D0082B0ED1C1F3E7
:1009E0008343C9031DF803000AD5516804AAC1F363
:1009F0004041515C0A4A5043B0FBF1F005B07047EA
:100A000008494843FAE700000203040506070809FD
:100A10000A0B0C0D0E0F1010010200000010024016
:100A200000127A0000093D002DE9F84F04460078D5
:100A3000B94DC00748D06868C0F38100012807D0CD
:100A40006868C0F38100022809D16868C00306D530
:100A50002868800338D5606800286FD034E060686B
:100A6000B0F5803F0BD010B1B0F5A02F11D02868A1
:100A700020F480302860286820F4802002E0286874
:100A800040F480302860606888B1FFF7BBFC064600
:100A900009E0286840F480202860F0E7FFF7B2FC06
:100AA000801B642875D828688003F7D50CE0FFF711
:100AB000A9FC064605E000BFFFF7A4FC801B6428E4
:100AC000F0D828688003F7D42078944E80074FF040
:100AD00001094FF000083BD5686810F00C0F07D0F3
:100AE0006868C0F38100022809D16868C00306D491
:100AF0002868800714D5206901281FD110E02069DB
:100B0000B0B1C6F80090FFF77DFC074605E000BFD6
:100B1000FFF778FCC01B0228C4D828688007F7D5E7
:100B20002868616920F0F80040EAC10028600FE001
:100B3000C6F80080FFF766FC074606E0E9E000BF64
:100B4000FFF760FCC01B022823D828688007F7D471
:100B5000207800072CD57248A169D9B1C0F800905F
:100B6000FFF750FC074604E0FFF74CFCC01B0228CF
:100B70000FD8686A8007F7D56A484FF4FA510068C1
:100B8000B0FBF1F0009000BF0098411E0091FAD236
:100B90000EE080E0C0F80080FFF734FC074604E078
:100BA000FFF730FCC01B022875D8686A8007F7D4AD
:100BB0002078400760D5E8690027C00008D4E869BC
:100BC00040F08050E861E869012700F08050009013
:100BD00055480168C90513D40168834641F4807102
:100BE0000160FFF70FFC824606E000BFFFF70AFC3A
:100BF000A0EB0A0064284ED8DBF80000C005F5D54C
:100C0000E06801280AD008B1052813D0286A20F02E
:100C100001002862286A20F0040002E0286A40F0FF
:100C200001002862E06841F2883B98B1FFF7EAFBD7
:100C300082460BE0286A40F004002862EEE700BF1D
:100C4000FFF7E0FBA0EB0A0159455AD8286A800754
:100C5000F6D50CE0FFF7D6FB824605E0FFF7D2FBA6
:100C6000A0EB0A0159454CD8286A8007F6D41FB179
:100C7000E86920F08050E861E06988B36968C1F3F1
:100C80008101022945D00228C6F8608004D0FFF710
:100C9000B9FB044638E034E0FFF7B4FB074604E054
:100CA000FFF7B0FBC01B02282BD828688001F7D4BF
:100CB000206AB0F5803F05D16868A16820F4003053
:100CC00008436860D4E908010843696821F4741195
:100CD00008436860C6F86090FFF794FB044606E09E
:100CE00015E000BFFFF78EFB001B022809D828681B
:100CF0008001F7D50BE000BFFFF784FB001B022843
:100D000002D90320BDE8F88F28688001F4D40020C0
:100D1000F8E70120F6E70000001002400000424220
:100D200080044242380000200070004010B5401E90
:100D3000B0F1807F01D3012010BD4FF0E02460614D
:100D40000F21601700F098FC0020A06107202061AF
:100D5000002010BD7047704730B590F83C20012A44
:100D600020D0012280F83C20022380F83D30036827
:100D70005C6824F070045C6003685C680D682C4358
:100D80005C6003689C6824F080049C6003689C6835
:100D900049680C439C6080F83D20002180F83C109D
:100DA000084630BD022030BD10B5040003D094F8D1
:100DB0003D0010B107E0012010BD002084F83C0088
:100DC000204600F00DF8022084F83D00211D206827
:100DD00000F0B8FC012084F83D00002010BD0000A8
:100DE00008B50068B0F1804F12D10A48C16941F0DE
:100DF0000101C161C069002200F0010000901146AC
:100E00001C20FFF7D3FCBDE808401C20FFF7C2BC44
:100E100008BD0000001002400168CA6842F00102EB
:100E2000CA600068016841F001010160002070475C
:100E300070B5044690F83C00012817D0012584F8CD
:100E40003C50022084F83D002068826822F077023E
:100E500022F47F4282600868502837D00DDC2028B9
:100E600059D005DC88B3102841D151E0022070BD73
:100E7000302853D040283AD13FE060282ED0702847
:100E80000BD0B0F5805F03D0B0F5005F2FD110E03C
:100E90002068816821F0070115E0CB68D1E90121C4
:100EA000206800F085FC2168886840F07700886041
:100EB0001DE0CB68D1E90121206800F079FC2068B1
:100EC000816841F48041816011E01EE0CA68496890
:100ED000206800F07FFC5021206806E0CA6849685D
:100EE000206800F088FC6021206800F06BFC84F82A
:100EF0003D50002084F83C0070BDCA6849682068F5
:100F000000F068FC40212068EFE700212068ECE752
:100F100010212068E9E720212068E6E730212068D9
:100F2000E3E7704770B50446006801694FF00005BB
:100F3000C943890715D4C168C943890711D4E91E7B
:100F4000016101202077206880698007204602D057
:100F5000FFF7E7FF04E000F098F8204600F096F86D
:100F6000257720680169C943490717D4C168C94377
:100F7000490713D46FF00401016102202077206833
:100F8000806910F4407F204602D0FFF7CAFF04E0DA
:100F900000F07BF8204600F079F825772068016999
:100FA000C943090716D4C168C943090712D46FF0B1
:100FB00008010161042020772068C069800720466D
:100FC00002D0FFF7AEFF04E000F05FF8204600F02B
:100FD0005DF8257720680169C943C90617D4C1683F
:100FE000C943C90613D46FF01001016108202077AE
:100FF0002068C06910F4407F204602D0FFF791FFBF
:1010000004E000F042F8204600F040F82577206820
:101010000169C943C90708D1C168C943C90704D1D7
:10102000891E0161204600F032F820680169C94339
:10103000090609D4C168C943090605D46FF08001C7
:1010400001612046FFF786FE20680169C943490611
:1010500009D4C168C943490605D46FF04001016154
:10106000204600F015F820680169C94389060BD4B1
:10107000C168C943890607D46FF020010161204689
:10108000BDE87040FFF767BE70BD7047704770479E
:101090007047704770B5026804461068D16853699C
:1010A00010F00F0F50D003F0010501F49076354396
:1010B0005DD0C20705D0CA0503D5E26B42F001023C
:1010C000E263420705D5DA0703D0E26B42F0020281
:1010D000E263820705D5DA0703D0E26B42F004022F
:1010E000E263020705D5DA0703D0E26B42F008029B
:1010F000E263E26B002A33D0800604D5880602D56D
:10110000204600F0A0FB20684069E16BC0F380102E
:10111000090700D428B3204600F087FB2068416906
:1011200049061AD5416921F040014161606BA0B1C7
:101130001B494163606BFFF71FF8002810D0606BFC
:10114000416BBDE870400847830610D58B060ED56D
:101150002046BDE8704000F076BB2046FFF799FFBF
:1011600070BD2046FFF795FF0020E06370BD0306C9
:1011700006D50B0604D52046BDE8704000F066BCDD
:101180004006F3D54806F1D5D168204621F040014C
:10119000D160202184F8391000F0A3F870BD000060
:1011A0001B18000870B5040004D094F8390000251D
:1011B00010B106E0012070BD84F83850204600F0E0
:1011C00023F8242084F839002068C16821F40051F4
:1011D000C160204600F082FB2068016921F4904143
:1011E00001612068416921F02A0141612068C168DC
:1011F00041F40051C160E563202084F8390084F88F
:101200003A00002070BD000070B586B00024009444
:101210000194029403942E4E03682E490220032267
:101220002D4DB34226D18B6943F480438B618B698A
:1012300003F4804304938B6943F004038B61896951
:10124000039201F0040104910102CDE90010694606
:101250002846FEF7EFFF2815CDE900046946284629
:101260000294FEF7E7FF002211462520FFF79EFAC1
:10127000252028E0194EB34227D1CB6943F400332F
:10128000CB61CB6903F4003304938B6943F004030F
:101290008B618969039201F0040104910421CDE975
:1012A000001069462846FEF7C5FF0820CDE9000476
:1012B000694628460294FEF7BDFF0022114626200B
:1012C000FFF774FA2620FFF765FA06B070BD00003C
:1012D0000038014000100240000801400044004076
:1012E00070477047FEE701684A69D24352050CD443
:1012F0006FF480624A6104210164002140F8301FCC
:1013000020224273017301207047002070470000C3
:10131000F8B50446C06A1E460D461746042807D095
:10132000012805D010F5803F02D0206B122804D18F
:101330002068016841F480710160134600224FF07B
:1013400001112046009600F054F8A0B92069B0F5CC
:10135000804F12D00620216800EAD51040F0F0003E
:10136000086133463A460E49204600F073F838B11A
:10137000206C042811D00320F8BD05F0FE0000E029
:10138000E8B221680861064933463A46891F20467B
:1013900000F060F80028EBD1F8BD0120F8BD000096
:1013A0000800010070B516460D4604461AE02046B6
:1013B000FFF799FF08B1012070BD681C12D025B15C
:1013C000FFF720F8801BA8420CD954F8400F40F0DA
:1013D000200044F810090020206020216173207350
:1013E000032070BD20684069C0434007DFD400205F
:1013F00070BD2DE9F0471E4690460D460446C1F3E8
:101400000747DDF8209012E0701C10D02EB1FEF7D7
:10141000F9FFA0EB0900B04209D9002044F8300FD1
:1014200020216173A07320730320BDE8F08720683A
:10143000012F0AD0806925EA00000004000C06D0C4
:1014400000214145E0D00020EFE74069F3E70121AA
:10145000F7E700002DE9F0479A4691460D4604460D
:1014600000264FF02008C1F307472AE020684069B2
:10147000C043400512D42068016841F40071016046
:1014800021686FF48060486104202064266384F83A
:101490003D8084F83C600120BDE8F087B9F1FF3F52
:1014A0000FD0B9F1000F05D0FEF7ACFFA0EB0A0199
:1014B000494506D944F8306F84F80D80267303201F
:1014C000EAE72068012F07D0D0F8180025EA0000CD
:1014D0000004000CE0D0C9E74069F7E770B5164694
:1014E0000D4604461AE02046FFF7FDFE08B1012034
:1014F00070BD681C12D025B1FEF784FF801BA84286
:101500000CD954F8400F40F0200044F81009002096
:101510002060202161732073032070BD2068406922
:10152000C0430006DFD4002070BD00002DE9F0416B
:1015300086B00024284800940194029403948169A1
:1015400041F010018161816901F01001049181690C
:1015500041F020018161816901F0200104918169DC
:1015600041F004018161816901F004010491816904
:1015700041F0080181618069184F00F008004FF4C4
:1015800000550490002229463846FEF736FFDFF862
:1015900050800022F0214046FEF72FFF00950226E2
:1015A00001250396CDE9015469463846FEF742FE0F
:1015B000F020CDE90005CDE9024669464046FEF738
:1015C00039FE40F633408DE8310069460548FEF7A4
:1015D00031FE06B0BDE8F08100100240001001406D
:1015E00000080140000C014010B586B000241248EC
:1015F000009401940294039404944FF08041059464
:1016000001604FF4E151C0E9011444F61F61C0E9E3
:10161000031480218161FFF7C7FB4FF480500090D5
:1016200069460548FFF704FC049404A902480594A0
:10163000FFF792FB06B010BDE40000200C4810B587
:101640000A4901604FF461414160002181600C2230
:10165000C160C0E904128161C161FFF7A3FD0028E8
:1016600003D0BDE81040FEF785BD10BD0038014035
:1016700050000020FEE770470907090E002806DA2F
:1016800000F00F0000F1E02080F8141D704700F119
:10169000E02080F80014704770477047FFF722B8C9
:1016A00030B58FB028216846FEF745FD14210AA801
:1016B000FEF741FD01210804CDE900100024029449
:1016C00002250491CDE907504FF4E01009906846D7
:1016D000FFF7AAF90F20CDE90A056802CDE90C4011
:1016E00002210AA80E94FFF793F80FB030BD000056
:1016F0000D48016841F00101016041680B4A114049
:10170000416001680A4A11400160016821F48021AA
:101710000160416821F4FE0141604FF41F018160C6
:101720000449C00308607047001002400000FFF841
:10173000FFFFF6FE08ED00E00148FFF7F3BB0000F5
:10174000E4000020F0B50268164B174C174D4FF01F
:101750008047984205D0B84203D0A04201D0A842A9
:1017600003D122F070064A683243984205D0B8424D
:1017700003D0A04201D0A84203D122F44074CA6829
:10178000224322F080044A69224302608A68C262CE
:101790000A688262984201D10969016301214161AD
:1017A000F0BD0000002C0140000400400008004093
:1017B00010B5846842EA032224F47F440A4322439A
:1017C000826010BD826822F070020A4342F0070175
:1017D0008160704710B5036A046A24F00104046252
:1017E000846924F0F00444EA021423F00A020A4354
:1017F0008461026210BD10B5036A23F01003036216
:101800008369046A23F4704343EA023224F0A0039C
:1018100043EA01118261016210BD10B5406A0021E6
:10182000C185C184FFF735FC10BD0168CA6822F488
:101830009072CA6001684A6922F001024A6120215F
:1018400080F83A10704710B590F83A10222901D06C
:10185000022010BD8168B1F5805F11D001690029B7
:1018600001681FD0496801F07F03816A4A1C8262C7
:101870000B70C18D491E0904090CC18518D02BE0DD
:101880000269816A002A0268526805D0D2B20A80D1
:10189000816A491C8162ECE7C2F308020A80816A0E
:1018A000891CF7E74A68816A4B1C83620A70E0E78B
:1018B0000168CA6822F02002CA600168CA6822F47E
:1018C0008072CA6001684A6922F001024A612021DF
:1018D00080F83A10FFF704FD002010BD2DE9F0411B
:1018E000044600680169E26821F440511143016136
:1018F0002169A0680843616908432168CA6841F208
:101900000C639A430243CA6020684169A26921F4CA
:101910004071114341614C49206864253226884258
:101920003CD1FFF73BF800EBC00101EB0010616810
:101930008900B0FBF1F7FFF731F800EBC00101EBD4
:1019400000106168B0468900B0FBF1F0B0FBF5F023
:101950006FF01801484307EB800106EB0110B0FB64
:10196000F5F000F0F006FFF719F800EBC00101EB0D
:10197000001061688900B0FBF1F0B0FBF5F006EBF8
:101980000016FFF70BF800EBC00101EB00106168D7
:101990008900B0FBF1F7FFF701F83BE0FEF7EEFF3F
:1019A00000EBC00101EB001061688900B0FBF1F7AA
:1019B000FEF7E4FF00EBC00101EB00106168B046E8
:1019C0008900B0FBF1F0B0FBF5F06FF0180148436F
:1019D00007EB800106EB0110B0FBF5F000F0F0061C
:1019E000FEF7CCFF00EBC00101EB0010616889003D
:1019F000B0FBF1F0B0FBF5F006EB0016FEF7BEFF12
:101A000000EBC00101EB001061688900B0FBF1F749
:101A1000FEF7B4FF00EBC00101EB00106168890024
:101A2000B0FBF1F0B0FBF5F06FF01801484307EBA5
:101A3000800108EB0110B0FBF5F0216800F00F0009
:101A400030448860BDE8F0810038014090F83910DA
:101A5000212901D0022070478168B1F5805F016AB9
:101A60000BD04A1C0262026809785160C18C491E81
:101A70000904090CC1840ED017E009880268C1F37B
:101A80000801516001690029016A02D0491C016204
:101A9000ECE7891CFBE70168CA6822F08002CA6093
:101AA0000068C16841F04001C1600020704700003B
:101AB0000148FFF7EFBA0000500000200148FFF78F
:101AC000E9BA000024010020FEE702E008C8121F66
:101AD00008C1002AFAD170477047002001E001C117
:101AE000121F002AFBD1704710B5802000F050F87B
:101AF0000024202000F06CF8641C462CF9DB10BD9B
:101B000010B53220FEF784FB302000F041F80520AC
:101B1000FEF77EFB302000F03BF80120FEF778FB5B
:101B2000302000F035F80A20FEF772FB202000F08C
:101B30002FF80A20FEF76CFB282000F029F801207E
:101B4000FEF766FB082000F023F80120FEF760FB9B
:101B5000012000F01DF80120FEF75AFB0120FEF7DE
:101B600057FB062000F014F80120FEF751FBBDE8FA
:101B700010400C2000F00CB810B1012805D102E093
:101B800041F0800101E041F0C001C8B2AFF3008034
:101B90001CB500F0F00141F00C028DF8042041F07A
:101BA000080100018DF8051040F00C018DF80610B9
:101BB00040F008008DF8070064200090042301AA7B
:101BC0004E210248FEF7C4FC1CBD0000900000201E
:101BD0001CB500F0F00141F00D028DF8042041F039
:101BE000090100018DF8051040F00D018DF8061077
:101BF00040F009008DF8070064200090042301AA3A
:101C00004E210248FEF7A4FC1CBD000090000020FD
:101C100010B5044602E0641CFFF7DAFF20780028C4
:101C2000F9D110BDFEF766FDFFF73AFDFFF77EFC28
:101C30002A482949002401602949C0E901144FF4C8
:101C40008041C0E9034144618461C4610462FEF7DC
:101C5000DFFB22482349943001604FF4E131C0E9B1
:101C600001140C21C460C0E904418461C461FFF720
:101C700099FAFFF7E3FCFFF7B7FC18485430FFF779
:101C8000CBF8FFF73DFF00210846FFF775FF16A0D0
:101C9000FFF7BEFF194D012210212846FEF7ADFBCC
:101CA000012220212846FEF7A8FB012240212846D8
:101CB000FEF7A3FB012280212846FEF79EFB104879
:101CC000002144620846FFF757FF0EA0FFF7A0FF70
:101CD00000F022F8FCE700000054004090000020D3
:101CE000A086010000440040444F20414E20544F44
:101CF00054204E474849455000000000000801406C
:101D00000000002020202020204E48415020544533
:101D10004E202020202000002DE9F047DFF8EC9332
:101D2000002210214846FEF768FBF94D01212846A4
:101D3000FEF75EFBF74FF84C002658B110212846FD
:101D4000FEF756FB78B320212846FEF751FB00280A
:101D500061D09CE04FF031080A20C4F82880FEF7DB
:101D600057FAD4E90310FFF707FF616A94F82800D7
:101D70007854FFF72DFFA06A401EA062202801D1F1
:101D8000C4F8288001212846FEF732FB0028F9D04C
:101D9000606A401CC4E90860E068401CE060A0681C
:101DA000FEF736FA73E0FFE74FF041080A20C4F867
:101DB0002880FEF72DFA3046266228E010212846BA
:101DC000FEF716FB00BBD4E90310FFF7D5FE616AEE
:101DD00094F828007854FFF7FBFEA06A401CA0622C
:101DE000442802D0332803D004E03220A06201E06E
:101DF000C4F8288010212846FEF7FAFA0028F9D006
:101E00002662A068FEF704FA206A401C206261681E
:101E10008842D3DB35E04FF044080A20C4F828801C
:101E2000FEF7F6F93046266228E020212846FEF724
:101E3000DFFA00BBD4E90310FFF79EFE616A94F855
:101E400028007854FFF7C4FEA06A401CA06247280F
:101E500002D0342803D004E03320A06201E0C4F8AB
:101E6000288020212846FEF7C3FA0028F9D02662F0
:101E7000A068FEF7CDF9206A401C206261688842A4
:101E8000D3DB606A401C6062E068401CE0600122B5
:101E90001021C8464846FEF7B0FA002220214046ED
:101EA000FEF7ABFA01212846FEF7A2FA50B1102145
:101EB0002846FEF79DFAE0B320212846FEF798FA5F
:101EC000C0B3ABE04FF047090A20C4F82890FEF7F2
:101ED0009FF93046266228E001212846FEF788FA5D
:101EE00000BBD4E90310FFF747FE616A94F82800AD
:101EF0007854FFF76DFEA06A401CA0624A2802D009
:101F0000352803D004E03420A06201E0C4F8289012
:101F100001212846FEF76CFA0028F9D02662A06855
:101F2000FEF776F9206A401C206261688842D3DBA4
:101F30006EE000E036E04FF04A090A20C4F828902D
:101F4000FEF766F93046266228E010212846FEF7A3
:101F50004FFA00BBD4E90310FFF70EFE616A94F854
:101F600028007854FFF734FEA06A401CA0624D2878
:101F700002D0362803D004E03520A06201E0C4F886
:101F8000289010212846FEF733FA0028F9D026625F
:101F9000A068FEF73DF9206A401C20626168884213
:101FA000D3DB35E04FF04D090A20C4F82890FEF746
:101FB0002FF93046266228E020212846FEF718FA3D
:101FC00000BBD4E90310FFF7D7FD616A94F828003D
:101FD0007854FFF7FDFDA06A401CA062502802D093
:101FE000372803D004E03620A06201E0C4F828902E
:101FF00020212846FEF7FCF90028F9D02662A068C7
:10200000FEF706F9206A401C206261688842D3DB33
:10201000606A401C6062E068401CE0600122202190
:102020004046FEF7EAF9002240214046FEF7E5F976
:1020300001212846FEF7DCF950B110212846FEF7B1
:10204000D7F9E0B320212846FEF7D2F9C0B3B4E0B7
:102050004FF050090A20C4F82890FEF7D9F830460E
:10206000266228E001212846FEF7C2F900BBD4E928
:102070000310FFF781FD616A94F828007854FFF798
:10208000A7FDA06A401CA062542802D0382803D0C3
:1020900004E03720A06201E0C4F82890012128461E
:1020A000FEF7A6F90028F9D02662A068FEF7B0F87E
:1020B000206A401C206261688842D3DB77E000E040
:1020C0003FE04FF054090A20C4F82890FEF7A0F82A
:1020D0003046266231E010212846FEF789F948BBD8
:1020E000D4E90310FFF748FD616A94F8280078549A
:1020F000FFF76EFDA06A401CA062572802D0392865
:102100000CD00DE03820A0620AE000000008014079
:10211000000C01406401002000000020C4F8289059
:1021200010212846FEF764F90028F9D02662A0683D
:10213000FEF76EF8206A401C206261688842CADBA4
:1021400035E04FF057090A20C4F82890FEF760F8F0
:102150003046266228E020212846FEF749F900BBD8
:10216000D4E90310FFF708FD616A94F82800785459
:10217000FFF72EFDA06A401CA0625B2802D03A281F
:1021800003D004E03920A06201E0C4F828902021A7
:102190002846FEF72DF90028F9D02662A068FEF740
:1021A00037F8206A401C206261688842D3DB606A8D
:1021B000401C6062E068401CE06001224021C14692
:1021C0004046FEF71AF9002280214846FEF715F92D
:1021D0000121A8462846FEF70BF958B110214546C3
:1021E0004046FEF705F978B320212846FEF700F9AE
:1021F00058B37BE0002126700846FFF7BDFC41A0E4
:10220000FFF706FD03210020FFF7B6FC002503E0E1
:10221000785DFFF7DDFC6D1C606A8542F8DB40F6F7
:10222000B830FDF7F5FFFFF75FFC002000213E54BA
:10223000401C1E28FADB4546616201212846FEF754
:10224000D7F80028F9D051E000E036E04FF0300830
:102250000A20C4F82880FDF7DBFF3046266222E022
:1022600010212846FEF7C4F8D0B9D4E90310FFF7CF
:1022700083FC616A94F828007854FFF7A9FCA06AEF
:102280001038A062202801DAC4F8288010212846DE
:10229000FEF7AEF80028F9D02662A068FDF7B8FF77
:1022A000206A401C206261688842D9DB606A401C59
:1022B0006062E068401CE06018E0606A401E606296
:1022C000E168491EE1602069FFF756FC0EA0FFF7A8
:1022D0009FFCD4E90310FFF74FFC20212846FEF7AE
:1022E00087F80028F9D0A068FDF792FFE0680F2872
:1022F00000DBE6604846BDE8F04701228021FEF79A
:102300007CB800003E3E00002000000000000000FD
:102310000000000001020304060708090000000095
:102320000102030444230008000000203C000000D8
:10233000CA1A0008802300083C0000204C05000059
:10234000DA1A000800000000E80300006400000042
:10235000000000000100000000000000000000007C
:10236000000000000000000000000000000000006D
:1023700001000000100000000000000000A24A045C
:04000005080000ED02
:00000001FF
